:020000040800F2
:10000000B1AA010000000000000000000000000094
:1000100000000000000000000000000000000000E0
:1000200000000000000000000000000000000000D0
:1000300000000000000000000000000000000000C0
:1000400000000000000000000000000000000000B0
:1000500000000000000000000000000000000000A0
:100060000000000000000000000000000000000090
:100070000000000000000000000000000000000080
:100080000000000000000000000000000000000070
:100090000000000000000000000000000000000060
:1000A0000000000000000000000000000000000050
:1000B0000000000000000000000000000000000040
:1000C0000000000000000000000000000000000030
:1000D0000000000000000000000000000000000020
:1000E0000000000000000000000000000000000010
:1000F0000000000000000000000000000000000000
:1001000000000000000000000000000000000000EF
:1001100000000000000000000000000000000000DF
:1001200000000000000000000000000000000000CF
:1001300000000000000000000000000000000000BF
:1001400000000000000000000000000000000000AF
:100150000000000000000000000000007370043088
:10016000170500001305C5FF8545F605637BB5003F
:1001700089816378B500170500001305C5002E9529
:1001800002859302002073A0027D970200009382F3
:1001900062E773907230972200009382E2E67390D8
:1001A000C27E73E0C07E972200009382A2DD73902E
:1001B000523097110018938161A91781001813011B
:1001C00061E417350000130565EA9705001893856B
:1001D00065E3170600181306262863FAC500832274
:1001E000050023A0550011059105E3EAC5FE17059A
:1001F0000018130565269705001893852526637753
:10020000B500232005001105E36DB5FE73F0023241
:1002100017350000130505C297300000E780C0BD08
:1002200097300000E780A0C497100000E780C0DF8F
:100230000145814597000000E780C0241733000086
:10024000670083BC01A073E00232828073F0023247
:0402500082800000A8
:100280000A50726F6772616D2068617320657869CA
:10029000746564207769746820636F64653A000050
:1002A000307800006E6D690A0000000074726170A1
:1002B0000A00000001000000040000000700000028
:1002C0000E00000002000000050000000800000011
:1002D000000000000300000006000000090000000C
:1002E0000F0000000A0000000B0000000C000000DE
:1002F0000D00000000000000000000000000594058
:10030000000000000040CF4080250000D024000005
:10031000D6240000D024000072250000D024000064
:10032000D6240000802500008025000072250000F2
:10033000D6240000B6240000B6240000B624000035
:10034000DA240000E2280000E2280000FA28000079
:10035000DC280000DC28000088290000FA280000C2
:10036000DC28000088290000DC280000FA280000B2
:10037000DA280000DA280000DA28000088290000C6
:10038000000102020303030304040404040404043C
:10039000050505050505050505050505050505050D
:1003A00006060606060606060606060606060606ED
:1003B00006060606060606060606060606060606DD
:1003C00007070707070707070707070707070707BD
:1003D00007070707070707070707070707070707AD
:1003E000070707070707070707070707070707079D
:1003F000070707070707070707070707070707078D
:10040000080808080808080808080808080808086C
:10041000080808080808080808080808080808085C
:10042000080808080808080808080808080808084C
:10043000080808080808080808080808080808083C
:10044000080808080808080808080808080808082C
:10045000080808080808080808080808080808081C
:10046000080808080808080808080808080808080C
:1004700008080808080808080808080808080808FC
:10048000B70700081D719387472B86CEA2CCA6CA5A
:1004900018089386070403A80700C8438C47D04771
:1004A0002320070148C30CC750C7C1074107E39485
:1004B000D7FE014502C6014497200000E780009B5B
:1004C00097200000E78080C297200000E78020C6C8
:1004D00097200000E78020CD97200000E78060D4BF
:1004E00097100000E78020B797200000E78020C326
:1004F00065DD97200000E78080C797200000E78037
:10050000A0CD97200000E780E0D49317250098083D
:10051000BA976C0093041400E34805FC03A507FC9C
:1005200097100000E780C0BB228597100000E7808D
:1005300000BA268455BF970700F89387A7AC89CBEC
:10054000173500001305058F173300006700C38AB5
:10055000828041111305D04106C697000000E78054
:10056000801DB2401305D041410117030000670010
:10057000031E377700408327074011E593E71700F4
:100580002320F7408280C166D58F2320F7408280E8
:1005900009E93777004083270740F59B2320F74080
:1005A0008280B776004083A7064001777D17F98FD8
:1005B00023A0F6408280854701ED6388F5029DC93E
:1005C00089476392F502B777004023A8C74082802D
:1005D000638CF5028DC589476398F500B7770040B5
:1005E00023AEC740828082808280B777004023A6F6
:1005F000C7408280B777004023A4C7408280B77786
:10060000004023AAC7408280B777004023ACC74090
:10061000828009E93777004083270740ED9B23203C
:10062000F7408280B776004083A706403707FCFF7B
:100630007D17F98F23A0F6408280B777004003A78B
:10064000074019E91377F7F323A0E74003A7074012
:10065000D98D23A0B7408280B70640FFFD16758F65
:1006600023A0E74003A70740C205D98D23A0B740C8
:10067000828093F7050193F8F50099C3B3E8C800A9
:100680008147854E3D4E930F8002930280042143A3
:10069000139627003397FE003318CE00758F13484A
:1006A000F8FF3396C80001CF032F05003378E80127
:1006B00033660601638FF5056389550410C185070C
:1006C000E39867FC854E3D4E930F800293028004B1
:1006D00041431397270001173396FE003318EE00AD
:1006E000758E1348F8FF3397E80001CE032F4500BD
:1006F0003378E80133670701638FF501638955009B
:1007000058C18507E39767FC828018C945BF10C9A7
:10071000C5BF58C965B750C9E5B7B71702401357E9
:1007200065003E9714438547B397A700D58F1CC338
:100730008280B7170240135765003E9714438547E0
:10074000B397A700D58F1CC38280B71702401357F9
:1007500065003E9714438547B397A70093C7F7FFFB
:10076000F58F1CC382804111B717004006C613875E
:1007700007C0630DE5046371A70213870740630593
:10078000E50637370140130707C0630DE506630927
:10079000F508B240410182803707004093060740C8
:1007A000630ED508938707806308F50AE313E5FE17
:1007B0001305004097000000E780E0F7B240130502
:1007C0000040410117030000670063F81305304043
:1007D00097000000E78020F6B24013053040410149
:1007E000170300006700A3F61305504097000000B0
:1007F000E78060F4B2401305504041011703000048
:100800006700E3F41305B03097000000E780A0F222
:10081000B2401305B030410117030000670023F315
:100820001305404097000000E780E0F0B240130558
:100830004040410117030000670063F113051040B9
:1008400097000000E78020EFB240130510404101FF
:10085000170300006700A3EF130520409700000076
:10086000E78060EDB240130520404101170300000E
:100870006700E3EDC167FD17232005002312050083
:100880001CC52316050023070500828083D70500B9
:1008900003D745001376F5BF1CD5B73701409387C2
:1008A00007C0418B6306F504FD779387F73FE98F17
:1008B000B7060040638ED7021C41B7160040BD9BAF
:1008C0001CC11C415D8F18C19C455CD5630DD600D1
:1008D000184183D7C5001377F7CF18C1184193F794
:1008E0000730D98F1CC15C4993E717005CC982802F
:1008F000144183D725003718004093F6F6F814C149
:10090000144193F70706D58F1CC11C415D8F18C198
:100910009C455CD5E30906FD184183D7C500B73671
:1009200001401377F7CF18C1104193F707301387B1
:1009300006C0D18F1CC1E318E5FA83C7E50023A8E0
:10094000F6C25C4993E717005CC982801C4193E7BB
:1009500017001CC182801C4193E707081CC18280DC
:1009600023100500231105002312050023130500A1
:100970002314050023150500828085476385F50C47
:10098000D9C589476387F5048D476393F5041C51E6
:100990007D777D17F98F1CD1835706001851F976A2
:1009A000B207D98F1CD11851FD1683574600758F99
:1009B00018D11451B20737370140D58F1CD1930796
:1009C00007C0630AF51E5C4D93F7F7CF5CCD8280BC
:1009D00082801451035706008357460093F6F6EFC2
:1009E00014D114512207A207558F18D1145137374B
:1009F0000140930507C093F6F6DF14D11451D58F4B
:100A00001CD16301B5145C4DF19B5CCD82801C51FF
:100A10008356060003574600F99B1CD103280502A4
:100A2000B7370140938507C0B3E6060114D11451CE
:100A3000F59A14D11451558F18D16307B50A1C4D7E
:100A4000F19B1CCD8280145103570600835746004A
:100A5000BD9A14D1145112079207558F18D1145111
:100A600037370140930507C093F6F6FD14D11451B2
:100A7000D58F1CD16307B5001C4D93F7F7CF1CCD64
:100A800082800C51835626008357660093F5F5FB50
:100A90000CD10C5192069207CD8E14D10C51835675
:100AA000860093F5F5F70CD10C518A06CD8F1CD139
:100AB000832547C08357A60093F5F5BF2322B7C00F
:100AC000032647C08A07D18E2322D7C0832647C07A
:100AD0007D761306F67FF18E2322D7C0832647C08A
:100AE000D58F2322F7C049BF1851035826008355DC
:100AF00066006D9B18D18328050283568600035734
:100B0000A600336818012320050310515D9A10D107
:100B10001051D18D0CD103A647C01376F6EF23A256
:100B2000C7C003A647C0D18E23A2D7C083A647C0A3
:100B300093F6F6DF23A2D7C083A647C0558F23A222
:100B4000E7C0F5BD0C5183572600FD7693F5F5BF40
:100B50000CD10C51A2079388F67FCD8F1CD10328AE
:100B600005029385F6FF83576600B376180114D10A
:100B700003280502A20783568600B3E707011CD1AC
:100B8000832747C09206FD8D2322B7C0832547C027
:100B90008357A6007976CD8E2322D7C0832647C0FF
:100BA0007D169207F18E2322D7C0832647C0D58FAA
:100BB0002322F7C089BD832747C0F176FD16F58F44
:100BC0002322F7C083578600832647C09A07D58F14
:100BD0002322F7C0CDBB85476384F502A1C58947B1
:100BE000638AF5028D47639CF5005C4D65777D1740
:100BF000F98F5CCD5C4D22065D8E50CD8280828067
:100C00001C4D65777D17F98F1CCD1C4D22065D8E1E
:100C100010CD82805C4D93F7F7F85CCD5C4D5D8E16
:100C200050CD82801C4D93F7F7F81CCD1C4D5D8E86
:100C300010CD82808547638CF50091CD8947638A0A
:100C4000F5008D476394F50030C18280828010DD0D
:100C5000828050DD828050D9828085476385F5028D
:100C6000A9C58947638CF5028D47639DF5005C4DEE
:100C70007D771307F77FF98F5CCD5C4D22065D8E83
:100C800050CD828082801C4D7D771307F77FF98FCE
:100C90001CCD1C4D22065D8E10CD82805C4DDD9BEF
:100CA0005CCD5C4D5D8E50CD82801C4DDD9B1CCD9E
:100CB0001C4D5D8E10CD828093F5F51F4CC1828056
:100CC00093D7650093F7F73F3E9508413355B5003C
:100CD00005898280B71702409843B706FFE0B10646
:100CE0001367170098C3D8433706F7EA7D16758F48
:100CF000D8C39843B706F7FEFD16758F98C398437F
:100D0000B706FCFFFD16758F98C3D843B70601DF01
:100D1000FD16758FD8C323A6070294433707FF003B
:100D2000C165F18E94C398C798439386F5FF371633
:100D300002404D8F98C311A099C61C42FD1613970F
:100D4000E700E35B07FEB717024098439316E700FE
:100D500063D0060AD8433706C4DF7D16D8C3D8430C
:100D6000B7160240D8C3D84313670740D8C3D84347
:100D7000718FD8C3D84337062920518FD8C3D8578D
:100D80003D76718FD8D7D8574166130616F1518F2B
:100D9000D8D7984337060004518F98C39C421397C5
:100DA0004700E35D07FE9C423706001037170240FC
:100DB000D18F9CC21C4393962700E3DD06FE1443AB
:100DC00037060001B7170240D18E14C3984393161B
:100DD0006700E3DD06FED843B7160240719BD8C317
:100DE000D84313672700D8C3DC42A18BF5DF82808C
:100DF00001A0B70700089387072803AF070083AE59
:100E0000470003AE870003A3C70083A8070103A818
:100E10004701944F03D7C70183C7E701797179462A
:100E200022D48A852A84094506D67AC076C272C43D
:100E30001AC646C842CA36CC231EE100230FF10071
:100E400097200000E7804009A2850945970000002F
:100E5000E780C00AB705000805469385052B0945BC
:100E600097200000E780400701A0411122C43744C9
:100E7000014026C29375F50FAA841305048006C6A7
:100E80001304048097000000E78040E39D4522851D
:100E900097000000E78000E375D9B2402244268520
:100EA00092444101828001114EC606CE22CC26CA50
:100EB0004AC8B28915C22E843389C500A9440345A6
:100EC0000400050497000000E78060FA8347F4FF00
:100ED000638C9700E31524FFF24062444E85D244B0
:100EE0004249B24905618280354597000000E7809C
:100EF00000F8E31624FDCDB7797156CAAE8AB7055E
:100F0000000809469385052A22D426D24AD04ECE1F
:100F100052CC06D62A8A714497200000E780C0FB95
:100F2000BD492549F15405A093F7F60F7114054604
:100F30009305F1005285A307F10097200000E78098
:100F4000A0F9630F9402B3978900B3F75701B3D7A1
:100F5000870093F7F70F9386070313877703E375EB
:100F6000F9FC9377F70F711405469305F10052854C
:100F7000A307F10097200000E78000F6E31594FC3A
:100F8000B250225492540259F249624AD24A4561FF
:100F90008280370700D2230007001205B71700D25E
:100FA000A30507003E9563F7A70023A00700C1072C
:100FB000E3EDA7FE8280F327503093F707FC93E719
:100FC0003700739057308280B705000841111546ED
:100FD0009385452A054506C697200000E780C0EFA7
:100FE000054597000000E78000E141119347F5FFB8
:100FF00022C406C6139747012A8405C3B705000813
:1010000015469385C52A054597200000E780C0EC6A
:10101000228597000000E78000DE97000000E7804F
:10102000E0FAE9BF411106C697000000E780C0CA98
:101030001305700597000000E780E0F597000000B9
:10104000E780A0F7B240410117F3FFFF6700E31FFD
:10105000828041111305206006C697F0FFFFE780EC
:10106000006C1305D07197F0FFFFE780406B3715D8
:101070000140C1460D4681451305058097F0FFFFED
:10108000E780605F97F0FFFFE780E04C014597F055
:10109000FFFFE78040588145014597F0FFFFE7805B
:1010A000005A014597F0FFFFE780C04E0145130647
:1010B000F07F814597F0FFFFE7802050B240014567
:1010C000410117F3FFFF6700034B1316050141822F
:1010D0008145014517F3FFFF6700234E411122C4EC
:1010E00006C689472E84630CF5008D476303F51A05
:1010F0008547630BF508B24022444101828023A05A
:101100000500014597100000E78040D60145971083
:101110000000E780A0D68145014597100000E780D8
:10112000000F93058007054597100000E780200E0B
:1011300093058004094597100000E780400D930552
:10114000E0070D4597100000E780600C9305E0076D
:10115000114597100000E780800B9305200415458A
:1011600097100000E780A00A9305E0071945971043
:101170000000E780C00981452244B2401D4541017D
:10118000171300006700A3089C4113073006E5070A
:101190009CC16349F720639B072009459710000015
:1011A000E78040A5084097100000E78020CD1C4054
:1011B000638A07206547638AE77213072003638FFA
:1011C000E76A1307B004E38DE70413074006638D55
:1011D000E74685C31D57638EE7001307E0FC638A6B
:1011E000E700130750FB6386E7001307C0F9E39499
:1011F000E7F0054597100000E780C09F0840971072
:101200000000E780A0C71C40638407341D57E386B5
:10121000E7161307E0FCE387E70E130750FBE388AC
:10122000E7061307C0F9E398E7EC9305F00F0145D3
:1012300097100000E780A0FD930530090545971041
:101240000000E780C0FC93053009094597100000B5
:10125000E780E0FB930530090D4597100000E7801B
:1012600000FB93051008114597100000E78020FA55
:101270009305300F154597100000E78040F993055E
:10128000300F194597100000E78060F89305F00FC4
:10129000E5B59C411307D0F99D179CC163D7E70EB4
:1012A0009307C0F99CC1054597100000E780809422
:1012B000084097100000E78060BC1C40638807204E
:1012C0001D57638FE7441307E0FC638FE752130752
:1012D00050FB6381E74C1307C0F9638DE72E85C38C
:1012E0006547638EE70013072003638AE70013074F
:1012F000B0046386E70013074006E39EE7DE094576
:1013000097100000E780008F084097100000E780EA
:10131000E0B61C40638A071265476381E76A1307DA
:1013200020036386E7621307B0046385E738130779
:101330004006E392E7DC8145014597100000E78015
:1013400000ED9305C006054597100000E78020ECEE
:101350009305C006094597100000E78040EB930510
:10136000C0060D4597100000E78060EA9305E0078E
:10137000114597100000E78080E9B14515459710A9
:101380000000E780C0E8B145D5B391DF1D57E38C7D
:10139000E7F01307E0FCE388E7F0130750FBE38472
:1013A000E7F03DBF930740069CC1C5BB6547E38698
:1013B000E7DE13072003E382E7DE1307B004E39BB5
:1013C000E7E0E1BB014597100000E78020AA014556
:1013D00097100000E78080AA814501459710000022
:1013E000E780E0E293058007054597100000E7805D
:1013F00000E293058004094597100000E78020E192
:101400009305E0070D4597100000E78040E0930545
:10141000E007114597100000E78060DF9305200486
:10142000154597100000E78080DE9305E007194519
:1014300097100000E780A0DD81451D459710000052
:10144000E780E0DC1C40BDB3014597100000E78059
:10145000E0A1014597100000E78040A281450145C9
:1014600097100000E780A0DA9305800705459710E4
:101470000000E780C0D9930580040945971000005B
:10148000E780E0D89305E0070D4597100000E7805E
:1014900000D89305E007114597100000E78020D79A
:1014A00093052004154597100000E78040D693056A
:1014B000E007194597100000E78060D581451D457C
:1014C00097100000E780A0D41C40B9B501459710E3
:1014D0000000E780A099014597100000E780009A7E
:1014E0008145014597100000E78060D29305800791
:1014F000054597100000E78080D1930580040945D9
:1015000097100000E780A0D09305E0070D459710E5
:101510000000E780C0CF9305E00711459710000059
:10152000E780E0CE93052004154597100000E78082
:1015300000CE9305E007194597100000E78020CD05
:1015400081451D4597100000E78060CC1C408DBB95
:10155000014597100000E780609101459710000059
:10156000E780C0918145014597100000E78020CABF
:1015700093058007054597100000E78040C9930553
:101580008004094597100000E78060C89305E007D4
:101590000D4597100000E78080C79305E0071145CF
:1015A00097100000E780A0C693052004154597100A
:1015B0000000E780C0C59305E007194597100000BB
:1015C000E780E0C481451D4597100000E78020C4F6
:1015D0001C402DB99305F00F014597100000E780DE
:1015E00000C393053009054597100000E78020C22D
:1015F00093053009094597100000E78040C1930525
:1016000030090D4597100000E78060C09305100871
:10161000114597100000E78080BF9305300F1545F6
:1016200097100000E780A0BE9305300F1945971072
:101630000000E780C0BD9305F00F1D459710000026
:10164000E780E0BC1C4061B981450145971000006E
:10165000E780E0BB9305C006054597100000E780D2
:1016600000BB9305C006094597100000E78020BA2B
:101670009305C0060D4597100000E78040B993051B
:10168000E007114597100000E78060B8B1451545A7
:1016900097100000E780A0B7B145194597100000EA
:1016A000E780E0B681451D4597100000E78020B631
:1016B0001C4005B68145014597100000E78020B524
:1016C0009305E007054597100000E78040B4894581
:1016D000094597100000E78080B39305E0070D45AA
:1016E00097100000E780A0B29305E007114597101E
:1016F0000000E780C0B18945154597100000E780DC
:1017000000B19305E007194597100000E78020B06D
:1017100081451D4597100000E78060AF1C4001B96E
:101720009305F00F014597100000E78040AE930548
:10173000700E054597100000E78060AD9305700EB0
:10174000094597100000E78080AC9305700E0D45A9
:1017500097100000E780A0AB9305700E114597101D
:101760000000E780C0AA9305700E15459710000091
:10177000E780E0A99305700E194597100000E780F7
:1017800000A99305F00F1D4597100000E78020A8E1
:101790001C4015BE9305F00F014597100000E7802F
:1017A00000A793051008054597100000E78020A6C4
:1017B0009305D00F094597100000E78040A59305D9
:1017C00010080D4597100000E78060A493051008ED
:1017D000114597100000E78080A39305D00F1545B1
:1017E00097100000E780A0A29305100819459710F4
:1017F0000000E780C0A19305F00F1D459710000081
:10180000E780E0A01C40C1BC9305F00F0145971094
:101810000000E780C09F9305100805459710000061
:10182000E780E09E9305D00F094597100000E78000
:10183000009E930510080D4597100000E780209D3D
:1018400093051008114597100000E780409C930510
:10185000F00B154597100000E780609B930510087A
:10186000194597100000E780809A9305F00F1D45F9
:1018700097100000E780A0991C4091BC814501456C
:1018800097100000E780A0989305E00705459710A2
:101890000000E780C0978945094597100000E78060
:1018A00000979305E0070D4597100000E78020960C
:1018B0009305E007114597100000E78040959305D8
:1018C0000004154597100000E78060949305E00739
:1018D000194597100000E780809381451D459710BA
:1018E0000000E780C0921C40E9B88145014597108F
:1018F0000000E780C091E145054597100000E780B2
:101900000091E145094597100000E7804090E145CE
:101910000D4597100000E780808FE1451145971035
:101920000000E780C08EE145154597100000E78074
:10193000008EE145194597100000E780408D8145F4
:101940001D4597100000E780808C1C40BDB081458C
:10195000014597100000E780808B9305E00705455F
:1019600097100000E780A08A89450945971000007C
:10197000E780E0899305E0070D4597100000E780B8
:1019800000899305E007114597100000E780208843
:1019900093050004154597100000E78040879305E4
:1019A000E007194597100000E780608681451D45D6
:1019B00097100000E780A0851C40B5B28145014525
:1019C00097100000E780A084E145054597100000CE
:1019D000E780E083E145094597100000E780208318
:1019E000E1450D4597100000E7806082E145114513
:1019F00097100000E780A081E14515459710000091
:101A0000E780E080E145194597100000E7802080DD
:101A100081451D4597000000E780607F1C4001B2B2
:101A20008145014597000000E780607E9305E0074F
:101A3000054597000000E780807D894509459700AE
:101A40000000E780C07C9305E0070D45970000008B
:101A5000E780E07B9305E007114597000000E780F1
:101A6000007B8945154597000000E780407A930583
:101A7000E007194597000000E780607981451D4522
:101A800097000000E780A0781C406FF00FF49305EA
:101A9000F00F014597000000E7806077930510087C
:101AA000054597000000E78080769305D00F094533
:101AB00097000000E780A075930510080D4597007A
:101AC0000000E780C07493051008114597000000DE
:101AD000E780E0739305D00F154597000000E7807D
:101AE000007393051008194597000000E7802072E5
:101AF0009305F00F1D4597000000E78040711C40E2
:101B00006FF02FF29305F00F014597000000E7807A
:101B1000007093051008054597000000E780206FCE
:101B20009305D00F094597000000E780406E9305AC
:101B300010080D4597000000E780606D93051008C0
:101B4000114597000000E780806C9305F00B154568
:101B500097000000E780A06B9305100819459700D7
:101B60000000E780C06A9305F00F1D459700000054
:101B7000E780E0691C406FF04FEA9305F00F0145E4
:101B800097000000E780A0689305700E0545970058
:101B90000000E780C0679305700E094597000000BC
:101BA000E780E0669305700E0D4597000000E78022
:101BB00000669305700E114597000000E7802065D0
:101BC0009305700E154597000000E780406493056B
:101BD000700E194597000000E78060639305F00FD1
:101BE0001D4597000000E78080621C406FF06FE2A7
:101BF000397122DC2A84130520604ED606DE26DAEF
:101C00004AD897F0FFFFE78080B19379140013055D
:101C1000006097F0FFFFE78080B0639B0922137993
:101C20002400631B092093744400639B041E2188D5
:101C3000631C041C1305007097F0FFFFE78020AEC3
:101C40003705004097F0FFFFE78020B2080897F0C3
:101C5000FFFFE78060C29307B0063EC89167938795
:101C6000F7E70C08370500403ECC231A0100231E7D
:101C70000100230F010097F0FFFFE78060C14800DB
:101C800097F0FFFFE78000CE85473EC202C402C640
:101C9000639109166314091463970412631A0410FC
:101CA000639C090C631F09088DE425E0370500409B
:101CB00097F0FFFFE78060CA3705004097F0FFFF0D
:101CC000E78000C9F2506254D2544259B25921619E
:101CD00082800D661306F6ED89453705004097F0C2
:101CE000FFFFE78060F513060006894537050040D1
:101CF00097F0FFFFE78060EE014689453705004019
:101D000097F0FFFFE780A0F555D00D661306F6EDBE
:101D10008D453705004097F0FFFFE780E0F113069F
:101D200000068D453705004097F0FFFFE780E0EAA9
:101D300001468D453705004097F0FFFFE78020F210
:101D4000B5B7014685453705004097F0FFFFE780AE
:101D5000A0EE1306000685453705004097F0FFFF0B
:101D6000E780A0E7014685453705004097F0FFFF73
:101D7000E780E0EE9DD8B1BF0146814537050040C0
:101D800097F0FFFFE78040EB13060006814537051B
:101D9000004097F0FFFFE78040E4014681453705AA
:101DA000004097F0FFFFE78080EBE30F09EE51BFA3
:101DB00050008D453705004097F0FFFFE78020BCBD
:101DC000E38209EE55BF500089453705004097F082
:101DD000FFFFE780C0BAE30504ECD9BF500085459A
:101DE0003705004097F0FFFFE78060B9E38804EA19
:101DF000D9BF500081453705004097F0FFFFE780CD
:101E000000B8E30B09E8D9BF37150140A1460D46DC
:101E1000E1451305058097F0FFFFE780C08519BDF8
:101E20003715014091460D46E1451305058097F0B1
:101E3000FFFFE7804084E5BB3715014089460D462A
:101E4000E1451305058097F0FFFFE780C082E1BB05
:101E50003715014085460D46E1451305058097F08D
:101E6000FFFFE780408165BB2A868145370500403A
:101E700017F3FFFF670043DC411106C622C463511C
:101E8000A00697100000E78060ECB707000803A6E3
:101E9000872F83A6C72F97000000E780404CB70725
:101EA000000803A6073083A6473097100000E7809C
:101EB000609F97100000E780A0E32A8685453705DC
:101EC000004097F0FFFFE78020D72244B240014650
:101ED000814537050040410117F3FFFF6700C3D577
:101EE0002A84014685453705004097F0FFFFE780CB
:101EF000A0D43305804097100000E78020E5B707A5
:101F0000000803A6872F83A6C72F97000000E7804D
:101F10000045B707000803A6073083A6473097108F
:101F20000000E780209897100000E78060DC2244E2
:101F3000B2402A86814537050040410117F3FFFF73
:101F4000670083CF000000000000000000000000D8
:101F50000000000000000000000000000000000081
:101F60000000000000000000000000000000000071
:101F70000000000000000000000000000000000061
:101F80005D7106C012C216C41AC61EC82ACA2ECC5B
:101F900032CE36D03AD23ED442D646D872DA76DC49
:101FA0007ADEFEC0F322103496C0F322003096C2CF
:101FB000F322407C96C4732520348A8597F0FFFF76
:101FC000E780E002864273901234964273900230AA
:101FD000A6427390427C82401242A2423243C243E4
:101FE0005245E245724682561257A2573258C2589D
:101FF000525EE25E725F864F6161730020300000C6
:10200000000000005D7106C012C216C41AC61EC8C8
:102010002ACA2ECC32CE36D03AD23ED442D646D878
:1020200072DA76DC7ADEFEC073D0E87E7350F97E19
:1020300073D0B97EF390D07E73700430B642739043
:10204000427CA642739012349642739022348240AE
:102050001242A2423243C2435245E2457246825680
:102060001257A2573258C258525EE25E725F864FD4
:10207000616173002030AA82B68E214363C46E0072
:102080009102E11E8A0E3D433313D3011343F3FF44
:10209000AE83B3E3C300B393D30103AE0200337E38
:1020A0006E00336E7E0023A0C2018280F18D2D8EE2
:1020B0004206D18D0CC982804CC982804CC5828079
:1020C0000C458280B712024003A3C2013363A30010
:1020D00023AE62008280B712024003A38201336301
:1020E000A30023AC62008280711106C041459700B5
:1020F0000000E78060FDB71200401303B00623A480
:1021000062021303703E23A6620223A80200054365
:1021100023A06200824011018280B712004003A513
:10212000020119C123A802008280711106C0214555
:1021300097000000E78060FA37150140130505C0DD
:1021400081450D4681460D4797000000E780E0F28B
:102150008506E39BE6FE82401101828097E2FF172D
:10216000938242EA038502008280711106C037150E
:102170000140130505C097E2FF179382A2E883850B
:102180000200FD1563D305009D452380B2001D4666
:1021900097000000E780C0F1038502008240110132
:1021A0008280711106C0214597000000E780E0F2AF
:1021B00037150140130505C081450D46A14641472D
:1021C00097000000E78060EB8506E39BE6FE824017
:1021D00011018280711106C097E2FF179382C2E25B
:1021E00083A20200AA9237150140130505C083C5DA
:1021F0000200A20537060100130606F09700000052
:10220000E78000EB82401101828097E2FF17938202
:10221000A2DF83A20200AA922380B2008280711101
:1022200006C0114597000000E78020EB37150140FC
:102230001305058081451146954625479700000006
:10224000E780A0E38506E39BE6FE824011018280E1
:10225000711106C07D5E97EEFF17938EBEDB03A360
:102260000E009303F3FF23A07E006397030423A0D3
:102270006E00371501401305058097000000E780C8
:1022800060E49581BD898DC985813335B000330304
:10229000A00085813335B0002A9385813335B000A5
:1022A0002A9397000000E780A0EB0A05336EA30095
:1022B0001303002023A06E007285824011018280EA
:1022C00097E2FF17938252D523900200828097E213
:1022D000FF17938272D403D30200A5430503137E34
:1022E000F30063D8C3031903135E4300137EFE009B
:1022F00063D1C30313030306135E8300137EFE0042
:1023000063D9C30113030360135EC30063D3C30126
:10231000014323906200828097E2FF179382D2CF1D
:1023200003D50200828097E2FF17938212CF03A3A6
:1023300002007D1323A06200635003021303F00820
:1023400023A0620097E2FF17938202CC03A302004E
:102350001343130023A062008280797113D84501D2
:1023600026D24ECE52CC5AC85EC69394C50006D62D
:1023700022D44AD056CA1378F87F2A8BB28B368A79
:10238000B18093D9F501630408089307F07F630EC9
:10239000F80C935AD5018E04B3E49A00B70A800072
:1023A000B3EA540113143500130918C0014B135537
:1023B0004A019314CA001378F57FB180135AFA01C9
:1023C0006308080C9307F07F6301F812139534003B
:1023D00093D7DB015D8DB7048000C98C139F3B0050
:1023E000130518C0814713172B005D8F7D17B94661
:1023F00033C649013308A94063EBE61097E6FFFFB7
:102400009386C6F00A073697184336970287B3EAD1
:10241000A40063860A068DCC268597100000E7800D
:10242000E099930755FF7147634BF702F54A130490
:1024300085FFB38AFA40B3948400B35A5B01B3EAD0
:102440009A0033148B001308D0C03309A840B9BFD9
:1024500097100000E780809613050502D9B7930412
:1024600085FDB31A9B000144F9BFB3EAA400638C55
:102470000A002A84A68A1309F07F0D4B0DBF014480
:102480000149054B2DB701441309F07F094B05B7EE
:1024900033EF740163040F069DC826859710000072
:1024A000E780C091930755FF7147634AF70275476C
:1024B000130F85FF1D8FB394E40133D7EB00D98C44
:1024C000339FEB011306D0C03305A64021BF5E85C4
:1024D00097100000E780808E13050502E1B7930492
:1024E00085FDB3949B00014FF1BF33EF7401630B83
:1024F0000F005E8F1305F07F8D47F5B581440145D0
:102500008547D5B581441305F07F8947E9BD63E66A
:10251000540163939A2A6361E42B9396FA0113574B
:1025200014009317F40193DA1A0033E4E6001395CC
:10253000840093548F01458D135E0501B3D8CA03FF
:1025400013130501135303011357040193158F004F
:10255000B3F4CA03C68FB3061303939A0401336717
:102560005701637CD7002A97938FF8FF6367A70012
:102570006375D700938FE8FF2A97158FB35EC70363
:10258000420441803377C703F686B308D30342077A
:10259000418F637C17012A979386FEFF6367A7002C
:1025A000637517019386EEFF2A97C20FB3EFDF0022
:1025B000C166330417419388F6FF13DF0F0133F729
:1025C0001F0193DE0501B3F81501B3031703B3042C
:1025D0001F033387EE02B302DF03330F970013D7D5
:1025E00003017A9763739700B692135F0701169FF2
:1025F000C162FD12B3765700C206B3F353009E9634
:102600006367E401FE84631EE40363FCD702AE97B4
:1026100033B7B7002A973A949384FFFF6366850027
:102620006311850263EFB7006366E401631B8F00EB
:1026300063F9D700AE9733B7B7002A979384EFFFBB
:102640003A94B386D7403304E441B3B7D7001D8C26
:102650007D5F6305850E335FC40313D706013374B2
:10266000C403B307E3034204598C7A87637CF40004
:102670002A941307FFFF6367A4006375F400130730
:10268000EFFF2A941D8C335FC403C206C1823374EA
:10269000C403FA873303E3034204558C637C64006C
:1026A0002A949307FFFF6367A40063756400930790
:1026B000EFFF2A9442075D8F93170701C18333040C
:1026C000644013530701338E1703B3081303338396
:1026D0006E02B38EFE0293570E01C69EF69763F408
:1026E0001701C166369393D807019A9841637D1309
:1026F000B3F66700C206337E6E00F296636614017D
:10270000631E14193A8F9DCA2A94130FF7FF636151
:10271000A402636614016312141963FDD500939734
:102720001500B3B5B7002E95130FE7FF2A94BE85A9
:10273000631414016384B600136F1F001307F83F7E
:102740006357E00A93777F0081CF9377FF0091462C
:102750006388D70093064F0033BFE601FA94368FA3
:102760009397740063D80700B70700FFFD17FD8C2F
:10277000130708409307E07F63C8E710135F3F002B
:102780009397D401B3E7E70113D5340032051377EB
:10279000F77F5207B25022543181598D7E0633673C
:1027A000C50092540259F249624AD24A424BB24B96
:1027B0003E85BA85456182807D1881478DBB4E86F6
:1027C000D684228FDA8709476380E70C0D4763863A
:1027D000E70A0547E394E7F60145814785A8528655
:1027E000DDB7B7040800014F01468D47E9BF054535
:1027F000198D93078003E3C1A7FEFD4763CAA704B1
:102800001308E841B39704013357AF0033180F01A1
:10281000D98F33380001B3E7070133D5A40013F78C
:10282000770001CF13F7F70091466308D7001387AD
:102830004700B337F7003E95BA8713178500634A00
:1028400007041317D5018D83D98F0D8101473DBF33
:102850008557998F93060002B3D7F40001476306AA
:10286000D5001308E84333970401336FE701333F82
:10287000E001B3E7E70101455DB73705080081478F
:102880001307F07F014619B7014581471307F07F11
:10289000F5BD014581470547D5BD7A873A8F69BDAA
:1028A00079714ECE93D9450122D426D252CC56CA44
:1028B0005AC89394C50006D64AD05EC693F9F97FEC
:1028C0002A84328BB68AB18013DAF5016381090854
:1028D0009307F07F6389F90C9357D5018E04DD8C43
:1028E000B7078000DD8C13193500938919C0814B1F
:1028F00013D54A011394CA001375F57F318093DA1A
:10290000FA0161C59307F07F630DF5109357DB0162
:102910000E045D8CB70780005D8C130515C09317FE
:102920003B00014793962B00D98E4E95FD16B94575
:1029300033465A011308150063E6D51097E5FFFFEB
:10294000938585A08A06AE969442AE96828633E938
:10295000A400630309069DC8268597000000E78050
:10296000E045130755FFF14763C9E702F54713092F
:1029700085FF998FB3942401B357F400DD8C33198C
:1029800024019309D0C0B389A94095B797000000EE
:10299000E780C04213050502E9B7930485FDB3142F
:1029A00094000149F9BF33E9A400630B09002A89A7
:1029B0009309F07F8D4B2DBF81448149854B0DBF1D
:1029C00081449309F07F894B25B7B3676401B5C390
:1029D0001DC8228597000000E780403E930655FF02
:1029E000F14763CAD7027547930785FF158F3314E4
:1029F000F4003357EB00598CB317FB001307D0C01A
:102A00003305A74039BF5A8597000000E780003B97
:102A100013050502E1B7130485FD33148B008147CC
:102A2000F1BFB367640191CBDA871305F07F0D47DF
:102A3000D5BD014401450547F5B501441305F07FB7
:102A40000947CDB5416F930EFFFF1357090193D886
:102A500007013379D901B3F7D701B3852803B386CA
:102A60002703B30FF7023383F50193D506019A9537
:102A7000330E170363F3F5017A9E93D30501B3F583
:102A8000D501B3F6D601135F0401B372D401C205B8
:102A9000B695B30E5702B386220333092F033303CF
:102AA000D90113D906011A993307E7036374D901D1
:102AB00041631A97935E0901C169BA9E1387F9FFB2
:102AC0003379E900F98E13D404014209F98C36995F
:102AD00033879702CA933303F402B3869802B3870D
:102AE0008802B388660093560701C69663F36600B2
:102AF000CE9793D80601C169B38FF8009387F9FF89
:102B0000FD8E7D8FB3889202C206BA96B307540237
:102B1000B3049F0233038F02BE9413D40801A2941E
:102B200063F3F4004E93C167FD1733F7F400B3F875
:102B3000F80042071E9E469733392E0176973304DC
:102B40002701369EB336DE00B308F401338FD80078
:102B50003337D70133342401598CC180B3B8F8011D
:102B6000B336DF002694B3E6D80036941A94935710
:102B70007F0126045D8C93179E00CD8FB337F00044
:102B8000135E7E0113179F00B3E7C701D98F131798
:102B900074006358070A13D71700858BD98F131752
:102BA000F401D98F05809306F83F635ED00813F7D0
:102BB000770001CF13F7F70091456308B70013873B
:102BC0004700B337F7003E94BA8713177400635871
:102BD0000700370700FF7D17798C9306084013071D
:102BE000E07F634CD70E13D737009317D401D98FEA
:102BF0000D80320413F7F67F52073180598C7E0620
:102C00003367C400B250225492540259F249624AC6
:102C1000D24A424BB24B3E85BA854561828052868C
:102C20002684CA875E8789466309D70A8D46630F63
:102C3000D7088546E319D7F6014481479DA05686FB
:102C4000DDB72A888DB78545958D13078003E34549
:102C5000B7FE7D476349B7041308E8413317040101
:102C6000B3D6B700B3970701558FB337F000D98FAC
:102C70003354B40013F7770001CF13F7F7009146F0
:102C80006308D70013874700B337F7003E94BA872D
:102C900013178400634807041317D4018D83D98F59
:102CA0000D808146B9B70557158F130500023357BC
:102CB000E40081466386A5001308E843B3160401C7
:102CC000D58FB337F000D98F01446DB737040800B2
:102CD00081479306F07F014629BF0144814793064F
:102CE000F07F01BF01448147854621B713D74501D5
:102CF000B70610002A869387F6FF1377F77F130530
:102D0000E03FED8FFD81635FE502014591E59305AD
:102D1000E0417D5563D3E5008280D58F9306304333
:102D2000998EFD4563CAD5001307D7BEB397E70058
:102D30003355D6005D8D828013053041198D33D512
:102D4000A700828001458280411106C622C426C2A6
:102D50002DC19357F54133C4A7001D8C9354F50141
:102D6000228597000000E78060051307E041A9472E
:102D7000098F63CAA702AD47898F5505B357F40081
:102D80003314A4002685B2071377F77F5207B18367
:102D90007E05D98F33E7A700B240228522449244B2
:102DA000BA85410182805515B317A40026850144D8
:102DB000D9BF01478147E5BFC1676376F502930735
:102DC000F00FB3B7A7008E07130700021D8FB3578C
:102DD000F50017D5FFFF1305E55AAA9703C50700AD
:102DE0003305A740828037070001C147E36EE5FC49
:102DF000E147D9BFAA858146014601451703000076
:102E0000670043134111814522C406C62A849700F6
:102E10000000E780401997D7FF179387A76388437F
:102E20005C5D91C38297228597E0FFFFE780A0FC5D
:102E3000411122C49707000093874723170400001D
:102E40001304C4221D8C06C626C2098411C893141B
:102E50002400F114BE949C407D14F114829765FC0B
:102E6000B2402244924441018280411122C44AC0AE
:102E7000170400001304441F170900001309C91E9A
:102E80003309894006C626C213592940630909003F
:102E900081441C40850411048297E31C99FE1704A9
:102EA00000001304641C170900001309291C3309CE
:102EB0008940135929406309090081441C40850455
:102EC00011048297E31C99FEB240224492440249C5
:102ED0004101828097D7FF1793874757B2862E8686
:102EE000AA8588431703000067008300AE8741115D
:102EF00022C4B2852A8436863E8506C697D7FF1738
:102F000023AC075497E0FFFFE78020FAFD576306E4
:102F1000F500B24022444101828097D7FF17938782
:102F2000A7539C43FDD71CC0B2402244410182807C
:102F300097D7FF1793870752984383278714A1C316
:102F4000D8437D48634DE804131827001DC133831F
:102F500007012324C30883A8871805463316E60013
:102F6000B3E8C80023A417192324D3108946630D9E
:102F7000D5000507D8C3C2978CC701458280930747
:102F8000C7142324F7146DBF83A6C7180507D8C339
:102F9000558E23A6C718C2978CC7014582807D55E0
:102FA0008280797197D7FF179387C74A62C403ACB1
:102FB00007004ECE52CC56CA5AC806D622D426D2C4
:102FC0004AD05EC6AA8A2E8B054AFD5903298C1465
:102FD00063040902832449001384F4FF634E040050
:102FE0008A04CA9463060B0283A7441063826703B2
:102FF0007D14F114E31834FFB25022549254025954
:10300000F249624AD24A424BB24B224C456182801D
:1030100083274900D440FD176380870423A204005E
:10302000E1DA8327891833178A00832B4900F98F47
:1030300099EB829683274900E39A77F983278C14CA
:10304000E38827FB61B78327C91883A544087D8FD0
:1030500019E756858296F9BF23228900D1B72E85BC
:043060008296C9BFCC
:043064003605000825
:103068000700000008000020000000000000000029
:103078000000020000FFFF8F0000000700000000B2
:10308800000000000C03002074030020DC03002073
:103098000000000000000000000000000000000028
:1030A8000000000000000000000000000000000018
:1030B8000000000000000000000000000000000008
:1030C80000000000000000000000000000000000F8
:1030D80000000000000000000000000000000000E8
:1030E80000000000000000000000000000000000D8
:1030F80000000000000000000000000000000000C8
:1031080000000000000000000000000000000000B7
:1031180000000000000000000000000000000000A7
:103128000000000000000000010000000000000096
:103138000E33CDAB34126DE6ECDE05000B0000005B
:103148000000000000000000000000000000000077
:103158000000000000000000000000000000000067
:103168000000000000000000000000000000000057
:103178000000000000000000000000000000000047
:1034A80000000000000000002000002000000000D4
:0434B80020000020D0
:040000050800015C92
:00000001FF
