:020000040800F2
:10000000B1AA010000000000000000000000000094
:10001000000000000000000000000000F6100008D2
:1000200000000000000000000000000000000000D0
:1000300000000000000000000000000000000000C0
:1000400000000000000000000000000000000000B0
:1000500000000000000000000000000000000000A0
:100060000000000000000000000000000000000090
:100070000000000000000000000000000000000080
:100080000000000000000000000000000000000070
:100090000000000000000000000000000000000060
:1000A0000000000000000000000000000000000050
:1000B0000000000000000000000000000000000040
:1000C0000000000000000000000000000000000030
:1000D0000000000000000000000000000000000020
:1000E00048110008000000000000000000000000AF
:1000F0000000000000000000000000000000000000
:1001000000000000000000000000000000000000EF
:1001100000000000000000000000000000000000DF
:1001200000000000000000000000000000000000CF
:1001300000000000000000000000000000000000BF
:1001400000000000000000000000000000000000AF
:100150000000000000000000000000007370043088
:10016000170500001305C5FF8545F605637BB5003F
:1001700089816378B500170500001305C5002E9529
:1001800002859302002073A0027D970200009382F3
:1001900062E773907230971200009382E20A7390C4
:1001A000C27E73E0C07E971200009382A20173901A
:1001B000523097110018938161A91781001813011B
:1001C00061E4171500001305E56497050018938591
:1001D00065E3170600181306262863FAC500832274
:1001E000050023A0550011059105E3EAC5FE17059A
:1001F000001813056526970500189385A5266377D3
:10020000B500232005001105E36DB5FE73F0023241
:10021000171500001305653C97100000E780203893
:1002200097100000E780003F97100000E780E0D5BE
:100230000145814597000000E78000081713000082
:100240006700E33601A073E00232828073F002326D
:0402500082800000A8
:100280000A50726F6772616D2068617320657869CA
:10029000746564207769746820636F64653A000050
:1002A000307800006E6D690A0000000074726170A1
:1002B0000A0000001D7186CEA6CACAC8CEC6D2C426
:1002C000D6C2DAC062DC66DA6AD86ED6A2CC5EDE4E
:1002D00097100000E780800597100000E780200954
:1002E00097100000E780201097100000E78060174B
:1002F00005453729014097100000E780E0CB814D8C
:10030000014D814C02CE02CC02CA02C802C681490C
:10031000814413090940854A130C0068154B130AE0
:10032000803E97100000E780800365DD9710000095
:10033000E780E00797100000E780000E89454A85B6
:10034000850497000000E7808078630A5511B307A1
:100350007C41B3C76703E5073E94E39444FD638C97
:1003600009186381593789476380F9268D47639C53
:10037000F910334444030145A28597100000E7803B
:10038000000DD245054597100000E780400CC2459E
:10039000094597100000E780800BB2450D45971086
:1003A0000000E780C00AEE85114597100000E78045
:1003B000000AEA85154597100000E7804009E685A8
:1003C000194597100000E7808008F2451D459710F9
:1003D0000000E780C00722CC9D47639CF910B34D15
:1003E000440301458149EE8597100000E78020060F
:1003F000EA85054597100000E7806005E685094518
:1004000097100000E780A004F2450D45971000000A
:10041000E780E003E245114597100000E7802003E4
:10042000D245154597100000E7806002C245194586
:1004300097100000E780A001B2451D45971000000D
:10044000E780E00097100000E780C00485454A85FA
:1004500097000000E780A06101448144D9B591452F
:100460004A8597000000E7808066630955234A8526
:1004700097000000E780A06189454A859700000049
:10048000E7808065E9B59147639AF90CB347440367
:100490000145BE853ECE97100000E78040FBE24557
:1004A000054597100000E78080FAD245094597106E
:1004B0000000E780C0F9C2450D4597100000E780B5
:1004C00000F9B245114597100000E78040F8EE852D
:1004D000154597100000E78080F7EA8519459710C9
:1004E0000000E780C0F6E6851D4597100000E78014
:1004F00000F6850981BF334444030145A285971066
:100500000000E780C0F4EE85054597100000E78005
:1005100000F4EA85094597100000E78040F3E6857E
:100520000D4597100000E78080F2F24511459710C5
:100530000000E780C0F1E245154597100000E78014
:1005400000F1D245194597100000E78040F0C24500
:100550001D4597100000E78080EF22C66399690D62
:10056000B34C440301459949E68597100000E780A4
:1005700000EEF245054597100000E78040EDE245AA
:10058000094597100000E78080ECD2450D45971093
:100590000000E780C0EBC245114597100000E780DE
:1005A00000EBB245154597100000E78040EAEE8564
:1005B000194597100000E78080E9EA851D459710EE
:1005C0000000E780C0E8BDBD334444030145A28577
:1005D00097100000E780A0E7C2450545971000008E
:1005E000E780E0E6B245094597100000E78020E685
:1005F000EE850D4597100000E78060E5EA8511451E
:1006000097100000E780A0E4E685154597100000EC
:10061000E780E0E3F245194597100000E78020E30A
:10062000E2451D4597100000E78060E222CA994725
:10063000E394F9DA334D440301459D49EA85971067
:100640000000E780C0E0E685054597100000E780E0
:1006500000E0F245094597100000E78040DFE245E1
:100660000D4597100000E78080DED24511459710B8
:100670000000E780C0DDC245154597100000E78007
:1006800000DDB245194597100000E78040DCEE859B
:100690001D4597100000E78080DB6DB381454A85DA
:1006A00097000000E780203FAA8B89454A85970084
:1006B0000000E780604291454A8597000000E7808E
:1006C000A04171B1334444030145A2859710000055
:1006D000E780E0D7B245054597100000E78020D7B6
:1006E000EE85094597100000E78060D6EA850D4544
:1006F00097100000E780A0D5E6851145971000000F
:10070000E780E0D4F245154597100000E78020D43B
:10071000E245194597100000E78060D3D2451D459A
:1007200097100000E780A0D222C80DBD970700F8FF
:100730009387478D89CB17150000130505EA17131A
:1007400000006700C3E582804111B727014006C65B
:1007500093870740630BF500B73701409387078005
:100760006303F502B2404101828013059030970087
:100770000000E7802043B240130590304101170389
:1007800000006700A3431305A03097000000E78036
:100790006041B2401305A03041011703000067001B
:1007A000E341B727014003A74740B706F1FFFD1615
:1007B000758F23A2E74003A74740598D23A2A74086
:1007C000828093F705100DC699EF93F7054089C70E
:1007D0005C4193E707405CC1898985CD1C4593E75F
:1007E00027001CC582805C4193E707105CC1F1BF04
:1007F00089C75C4193F7F7EF5CC193F7054089C760
:100800005C4193F7F7BF5CC1898981C51C45F59BA5
:100810001CC582801C4599C5056713070780D98FC1
:100820001CC582807D771307F77FF98F1CC58280F6
:100830001C45858B89E71C4593E717001CC5828002
:100840001C451307850093E787001CC51C43A18B3B
:10085000F5FF1C4593E747001CC51C43918BF5FF32
:1008600082803727014083278740B7068000D58FD5
:100870002324F740828085476385F5028947639189
:10088000F5021C5D3707D0FF7D17F98F1CDD1C5D5D
:100890007D16520637073000798E5D8E10DD82801E
:1008A00082805C55370710FF7D17F98F5CD55C554A
:1008B0007D1652063707F000798E5D8E50D5828006
:1008C000954763E2B70493972500BE955859FD47B5
:1008D000B397B70093C7F7FFF98FB315B600DD8D57
:1008E0004CD9A54763E6C704931716003E961849EE
:1008F0009D47B397C70093C7F7FFF98F3396C6009C
:100900005D8E10C98280AD4763E7B704E915939700
:100910002500BE951859FD47B397B70093C7F7FF59
:10092000F98FB315B600DD8D0CD9A547E3FEC7FAE4
:10093000C54763E1C7025916131716004C453A968E
:100940009D47B397C70093C7F7FFED8F3396C60057
:100950005D8E50C58280BD47E3E5B7F8D11593970A
:100960002500BE955855FD47B397B70093C7F7FFCD
:10097000F98FB315B600DD8D4CD5A5B71C5D185D9C
:10098000D1838D8BB385B74093972500BE95B30572
:10099000B040BD05FD47B397B70093C7F7FFF98F88
:1009A000B315B600DD8D0CDDA54763E1C702131753
:1009B00016000C493A969D47B397C70093C7F7FFB7
:1009C000ED8FB396C600DD8E14C98280C54763E102
:1009D000C7025916131716004C453A969D47B39710
:1009E000C70093C7F7FFED8FB396C600DD8E54C5E1
:1009F00082808547638FF5008947639BF5001C451E
:100A000065777D17F98F1CC51C455D8E10C58280EA
:100A100082801C453707F2FF7D17F98F1CC51C45E6
:100A20005D8E10C5828093F715000DC281EB898918
:100A300089CD1C452167D98F1CC582801C4537078D
:100A400010008989D98F1CC5EDF5828099C71C4596
:100A50003707F0FF7D17F98F1CC58989FDD51C4527
:100A600061777D17F98F1CC5828093F7150091C7B8
:100A70001C4537074000D98F1CC5898991C51C4585
:100A800037072000D98F1CC5828068454205418107
:100A900082808547638FF5008DC58947638FF50098
:100AA0008D476396F50028454205418182800145C6
:100AB000828028414205418182806841420541810E
:100AC0008280485D42054181828008416D8D3335C9
:100AD000A00082801C4193C5F5FFFD8D0CC1828072
:100AE00093F7050193F8F50099C3B3E8C80081476F
:100AF000854E3D4E930F800293028004214313964E
:100B000027003397FE003318CE00758F1348F8FF87
:100B10003396C80001CF032F05003378E801336610
:100B20000601638FF5056389550410C18507E398B5
:100B300067FC854E3D4E930F800293028004414333
:100B40001397270001173396FE003318EE00758EB9
:100B50001348F8FF3397E80001CE032F45003378A0
:100B6000E80133670701638FF5016389550058C1B8
:100B70008507E39767FC828018C945BF10C9C5BFC8
:100B800058C965B750C9E5B7B71702401357650094
:100B90003E9714438547B397A700D58F1CC3828027
:100BA000B7170240135765003E9714438547B39724
:100BB000A700D58F1CC38280B7170240135765006A
:100BC0003E9714438547B397A70093C7F7FFF58F68
:100BD0001CC38280B7170240DC433747FFEF7D1705
:100BE0009546F98F6300D50263EBA6000D47636459
:100BF000A7003A05C98F371702405CC382801D47A2
:100C0000E31BE5FE31773A05798D5D8DB70700105E
:100C1000C98F371702405CC3828093F5F51F4CC122
:100C2000828093D7650093F7F73F3E95084133558F
:100C3000B50005898280B71702409843B706FFE0E8
:100C4000B1061367170098C3D8433706F7EA7D1635
:100C5000758FD8C39843B706F7FEFD16758F98C3F6
:100C60009843B706FCFFFD16758F98C3D843B706A7
:100C700001DFFD16758FD8C323A6070294433707FB
:100C8000FF00C165F18E94C398C798439386F5FF22
:100C9000371602404D8F98C311A099C61C42FD160D
:100CA0001397E700E35B07FEB717024098439316DC
:100CB000E70063D0060AD8433706C4DF7D16D8C3E1
:100CC000D843B7160240D8C3D84313670740D8C3E8
:100CD000D843718FD8C3D84337062920518FD8C342
:100CE000D8573D76718FD8D7D8574166130616F17D
:100CF000518FD8D7984337060004518F98C39C4230
:100D000013974700E35D07FE9C4237060010371734
:100D10000240D18F9CC21C4393962700E3DD06FE60
:100D2000144337060001B7170240D18E14C398430D
:100D300093166700E3DD06FED843B7160240719BA9
:100D4000D8C3D84313672700D8C3DC42A18BF5DF93
:100D5000828001A0B70700089387072803AF070028
:100D600083AE470003AE870003A3C70083A8070133
:100D700003A84701944F03D7C70183C7E7017971DF
:100D8000794622D48A852A84094506D67AC076C255
:100D900072C41AC646C842CA36CC231EE100230FCD
:100DA000F10097100000E780808DA285094597002B
:100DB0000000E780C00AB705000805469385052BAB
:100DC000094597100000E780808B01A0411122C4E3
:100DD0003744014026C29375F50FAA841305048099
:100DE00006C61304048097000000E78040E39D4599
:100DF000228597000000E78000E375D9B2402244C5
:100E0000268592444101828001114EC606CE22CC35
:100E100026CA4AC8B28915C22E843389C500A9449E
:100E200003450400050497000000E78060FA83474B
:100E3000F4FF638C9700E31524FFF24062444E8573
:100E4000D2444249B249056182803545970000008D
:100E5000E78000F8E31624FDCDB7797156CAAE8A53
:100E6000B705000809469385052A22D426D24AD020
:100E70004ECE52CC06D62A8A714497100000E780E5
:100E80000080BD492549F15405A093F7F60F711470
:100E900005469305F1005285A307F1009700000075
:100EA000E780E07D630F9402B3978900B3F75701A1
:100EB000B3D7870093F7F70F93860703138777035A
:100EC000E375F9FC9377F70F711405469305F1006C
:100ED0005285A307F10097000000E780407AE315F0
:100EE00094FCB250225492540259F249624AD24AB6
:100EF00045618280370700D2230007001205B7172B
:100F000000D2A30507003E9563F7A70023A00700C2
:100F1000C107E3EDA7FE8280F327503093F707FC6B
:100F200093E73700739057308280B705000841116E
:100F300015469385452A054506C697000000E780BB
:100F40000074054597000000E78000E141119347D8
:100F5000F5FF22C406C6139747012A8405C3B705C7
:100F6000000815469385C52A054597000000E780CF
:100F70000071228597000000E78000DE97000000E6
:100F8000E780E0FAE9BF411106C697000000E7805C
:100F9000C0CA1305700597000000E780E0F59700D0
:100FA0000000E780A0F7B240410117F3FFFF6700A0
:100FB000C3298280411126C2AA841305206006C677
:100FC00022C497000000E78060BC13059060970082
:100FD0000000E780A0BB0D4597000000E780C0BF80
:100FE00037150140A146414681451305058097000C
:100FF0000000E78020AF372401401305044097F03C
:10100000FFFFE780A074014597F0FFFFE780A0791C
:10101000014689451305044097F0FFFFE780A07A59
:101020000146930500101305044097F0FFFFE78089
:10103000807981451305044097F0FFFFE780C07D6C
:10104000054685451305044097000000E780E082CF
:1010500089460D4681451305044097000000E7804E
:10106000608637060E008545130504409700000092
:10107000E780609805468545130504409700000009
:10108000E780A09A95E8372401401305044097F0C3
:10109000FFFFE780207A1305044097F0FFFFE78009
:1010A000607A130504402244B240924485454101D0
:1010B000170300006700A39B130504400546930532
:1010C000004097F0FFFFE7800070130504400546DD
:1010D000894597F0FFFFE780407A97F0FFFFE780B0
:1010E00080789D46414681451305044097000000E5
:1010F000E780008949BF39713ECCB707002083A73C
:10110000474506DE16DC1ADA1ED82AD62ED432D28D
:1011100036D03ACE42CA46C872C676C47AC27EC0BB
:101120008297F250E2525253C2533255A255125690
:1011300082567247E2475248C248324EA24E124F80
:10114000824F21617300203039713ECCB7070020F7
:1011500083A7874506DE16DC1ADA1ED82AD62ED4D7
:1011600032D236D03ACE42CA46C872C676C47AC2A5
:101170007EC08297F250E2525253C2533255A2556A
:10118000125682567247E2475248C248324EA24E29
:10119000124F824F216173002030000000000000D8
:1011A000000000000000000000000000000000003F
:1011B000000000000000000000000000000000002F
:1011C0005D7106C012C216C41AC61EC82ACA2ECC29
:1011D00032CE36D03AD23ED442D646D872DA76DC17
:1011E0007ADEFEC0F322103496C0F322003096C29D
:1011F000F322407C96C4732520348A859700000032
:10120000E78000D586427390123496427390023084
:10121000A6427390427C82401242A2423243C243B1
:101220005245E245724682561257A2573258C2586A
:10123000525EE25E725F864F616173002030000093
:10124000000000005D7106C012C216C41AC61EC896
:101250002ACA2ECC32CE36D03AD23ED442D646D846
:1012600072DA76DC7ADEFEC073D0E87E7350F97EE7
:1012700073D0B97EF390D07E73700430B642739011
:10128000427CA6427390123496427390223482407C
:101290001242A2423243C2435245E245724682564E
:1012A0001257A2573258C258525EE25E725F864FA2
:1012B000616173002030AA82B68E214363C46E0040
:1012C0009102E11E8A0E3D433313D3011343F3FF12
:1012D000AE83B3E3C300B393D30103AE0200337E06
:1012E0006E00336E7E0023A0C2018280F18D2D8EB0
:1012F0004206D18D0CC982804CC982804CC5828047
:101300000C458280B712024003A3C2013363A300DD
:1013100023AE62008280B712024003A382013363CE
:10132000A30023AC62008280711106C04145970082
:101330000000E78060FDB71200401303B00623A44D
:1013400062021303703E23A6620223A80200054333
:1013500023A06200824011018280B712004003A5E1
:10136000020119C123A802008280711106C0214523
:1013700097000000E78060FA37150140130505C0AB
:1013800081450D4681460D4797000000E780E0F259
:101390008506E39BE6FE82401101828097F2FF17EB
:1013A000938242C6038502008280711106C0371500
:1013B0000140130505C097F2FF179382A2C48385ED
:1013C0000200FD1563D305009D452380B2001D4634
:1013D00097000000E780C0F1038502008240110100
:1013E0008280711106C0214597000000E780E0F27D
:1013F00037150140130505C081450D46A1464147FB
:1014000097000000E78060EB8506E39BE6FE8240E4
:1014100011018280711106C097F2FF179382C2BE3C
:1014200083A20200AA9237150140130505C083C5A7
:101430000200A20537060100130606F0970000001F
:10144000E78000EB82401101828097F2FF179382C0
:10145000A2BB83A20200AA922380B20082807111F3
:1014600006C0114597000000E78020EB37150140CA
:1014700013050580814511469546254797000000D4
:10148000E780A0E38506E39BE6FE824011018280AF
:10149000711106C07D5E97FEFF17938EBEB703A342
:1014A0000E009303F3FF23A07E006397030423A0A1
:1014B0006E00371501401305058097000000E78096
:1014C00060E49581BD898DC985813335B0003303D2
:1014D000A00085813335B0002A9385813335B00073
:1014E0002A9397000000E780A0EB0A05336EA30063
:1014F0001303002023A06E007285824011018280B8
:1015000097F2FF17938252B123900200828097F2E4
:10151000FF17938272B003D30200A5430503137E25
:10152000F30063D8C3031903135E4300137EFE0068
:1015300063D1C30313030306135E8300137EFE000F
:1015400063D9C30113030360135EC30063D3C301F4
:10155000014323906200828097F2FF179382D2ABFF
:1015600003D50200828097F2FF17938212AB03A388
:1015700002007D1323A06200635003021303F008EE
:1015800023A0620097F2FF17938202A803A3020030
:101590001343130023A062008280AA85814601467E
:1015A000014517030000670043134111814522C420
:1015B00006C62A8497000000E780401997F7FF17B6
:1015C000938747E988435C5D91C38297228597F0B2
:1015D000FFFFE7806078411122C4970700009387DE
:1015E0006723170400001304E4221D8C06C626C2DC
:1015F000098411C893142400F114BE949C407D14F6
:10160000F114829765FCB2402244924441018280E9
:10161000411122C44AC0170400001304441F1709D3
:1016200000001309C91E3309894006C626C2135992
:1016300029406309090081441C40850411048297F4
:10164000E31C99FE170400001304841C1709000012
:101650001309491C330989401359294063090900BA
:1016600081441C40850411048297E31C99FEB2401A
:101670002244924402494101828097F7FF179387E1
:10168000E7DCB2862E86AA85884317030000670030
:101690008300AE87411122C4B2852A8436863E85F6
:1016A00006C697F7FF1723AD07DA97F0FFFFE7802D
:1016B000E075FD576306F500B24022444101828087
:1016C00097F7FF179387C7D99C43FDD71CC0B2403B
:1016D00022444101828097F7FF179387A7D7984349
:1016E00083278714A1C3D8437D48634DE8041318AA
:1016F00027001DC1338307012324C30883A887184B
:1017000005463316E600B3E8C80023A417192324BE
:10171000D3108946630DD5000507D8C3C2978CC77F
:10172000014582809307C7142324F7146DBF83A655
:10173000C7180507D8C3558E23A6C718C2978CC7EC
:10174000014582807D558280797197F7FF179387D5
:1017500067D062C403AC07004ECE52CC56CA5AC8FA
:1017600006D622D426D24AD05EC6AA8A2E8B054A35
:10177000FD5903298C14630409028324490013844E
:10178000F4FF634E04008A04CA9463060B0283A725
:101790004410638267037D14F114E31834FFB250E0
:1017A000225492540259F249624AD24A424BB24BF5
:1017B000224C4561828083274900D440FD17638015
:1017C000870423A20400E1DA8327891833178A00EB
:1017D000832B4900F98F99EB829683274900E39A7E
:1017E00077F983278C14E38827FB61B78327C9180F
:1017F00083A544087D8F19E756858296F9BF232279
:0A1800008900D1B72E858296C9BF7A
:04180C002C0700089D
:101810000700000008000020000000000000000099
:10182000AA00020000FFFF8F000000070000000078
:10183000000000000C03002074030020DC030020E3
:101840000000000000000000000000000000000098
:101850000000000000000000000000000000000088
:101860000000000000000000000000000000000078
:101870000000000000000000000000000000000068
:101880000000000000000000000000000000000058
:101890000000000000000000000000000000000048
:1018A0000000000000000000000000000000000038
:1018B0000000000000000000000000000000000028
:1018C0000000000000000000000000000000000018
:1018D0000000000000000000010000000000000007
:1018E0000E33CDAB34126DE6ECDE05000B000000CC
:1018F00000000000000000000000000000000000E8
:1019000000000000000000000000000000000000D7
:1019100000000000000000000000000000000000C7
:1019200000000000000000000000000000000000B7
:101C50000000000000000000200000200000000044
:041C60002000002040
:040000050800015C92
:00000001FF
