:020000040800F2
:10000000B1AA010000000000000000000000000094
:1000100000000000000000000000000000000000E0
:1000200000000000000000000000000000000000D0
:1000300000000000000000000000000000000000C0
:1000400000000000000000000000000000000000B0
:1000500000000000000000000000000000000000A0
:100060000000000000000000000000000000000090
:100070000000000000000000000000000000000080
:100080000000000000000000000000000000000070
:100090000000000000000000000000000000000060
:1000A0000000000000000000000000000000000050
:1000B0000000000000000000000000000000000040
:1000C0000000000000000000000000000000000030
:1000D0000000000000000000000000000000000020
:1000E0000000000000000000000000000000000010
:1000F0000000000000000000000000000000000000
:1001000000000000000000000000000000000000EF
:1001100000000000000000000000000000000000DF
:1001200000000000000000000000000000000000CF
:1001300000000000000000000000000000000000BF
:1001400000000000000000000000000000000000AF
:100150000000000000000000000000007370043088
:10016000170500001305C5FF8545F605637BB5003F
:1001700089816378B500170500001305C5002E9529
:1001800002859302002073A0027D970200009382F3
:1001900062E773907230973200009382E2027390AC
:1001A000C27E73E0C07E973200009382A2F9739002
:1001B000523097110018938161A91781001813011B
:1001C00061E4174500001305E524970500189385A1
:1001D00065E3170600181306262863FAC500832274
:1001E000050023A0550011059105E3EAC5FE17059A
:1001F0000018130565269705001893852567637712
:10020000B500232005001105E36DB5FE73F0023241
:1002100017450000130585FC97400000E78040F873
:1002200097400000E78020FF97100000E780A0F7CC
:100230000145814597100000E780C08F17430000FB
:10024000670003F701A073E00232828073F002328C
:0402500082800000A8
:100280000A50726F6772616D2068617320657869CA
:10029000746564207769746820636F64653A000050
:1002A000307800006E6D690A0000000074726170A1
:1002B0000A00000000000000000000000000000034
:1002C00000000000000000080808080808080000F6
:1002D0001818000000486C24120000000000000004
:1002E000000000000000002424247F1212127F125C
:1002F000121200000000081C2A2A0A0C1828282ABA
:100300002A1C080800000022251515152A585454E7
:10031000542200000000000C1212120A7625291146
:10032000916E0000000606040300000000000000BB
:1003300000000000004020101008080808080810FD
:1003400010204000000204080810101010101008BF
:10035000080402000000000008086B1C1C6B080861
:100360000000000000000000080808087F080808D6
:100370000800000000000000000000000000000075
:10038000060604030000000000000000FE0000005C
:10039000000000000000000000000000000000005D
:1003A00006060000000080404020201010080804CD
:1003B000040202000000001824424242424242422B
:1003C00024180000000000080E08080808080808A3
:1003D000083E00000000003C424242202010080479
:1003E000427E00000000003C424220182040404273
:1003F000221C0000000000203028242422227E201D
:10040000207800000000007E0202021A26404042CE
:10041000221C0000000000382402021A2642424238
:10042000241800000000007E22221010080808088E
:10043000080800000000003C4242422418244242C6
:10044000423C0000000000182442424264584040F0
:10045000241C00000000000000001818000000002C
:100460001818000000000000000000080000000054
:1004700000080804000000402010080402040810CE
:10048000204000000000000000007F0000007F000E
:1004900000000000000000020408102040201008A6
:1004A000040200000000003C4242464020101000C0
:1004B000181800000000001C225A555555552D42B1
:1004C000221C00000000000808181414243C2242DA
:1004D00042E700000000001F2222221E2242424268
:1004E000221F00000000007C424201010101014284
:1004F000221C00000000001F2242424242424242AF
:10050000221F00000000003F4212121E121202427F
:10051000423F00000000003F4212121E121202026F
:10052000020700000000003C22220101017121228B
:10053000221C0000000000E7424242427E4242424A
:1005400042E700000000003E080808080808080804
:10055000083E00000000007C101010101010101059
:100560001010110F0000007722120A0E0A12122238
:1005700022770000000000070202020202020202CB
:10058000427F000000000077363636362A2A2A2AB3
:100590002A6B0000000000E346464A4A525252626B
:1005A000624700000000001C22414141414141419D
:1005B000221C00000000003F424242423E02020272
:1005C000020700000000001C2241414141414D53FF
:1005D000321C60000000003F4242423E12122222C2
:1005E00042C700000000007C424202041820404242
:1005F000423E00000000007F49080808080808087B
:10060000081C0000000000E74242424242424242CF
:10061000423C0000000000E7424222242414141847
:10062000080800000000006B494949495555362229
:1006300022220000000000E7422424181818242475
:1006400042E700000000007722221414080808087E
:10065000081C00000000007E212010100804044245
:10066000423F000000780808080808080808080841
:10067000080878000000020204040808081010208E
:1006800020204040001E10101010101010101010EC
:1006900010101E00003844000000000000000000A0
:1006A000000000000000000000000000000000004A
:1006B000000000FF0006080000000000000000002D
:1006C00000000000000000000000003C42784442AE
:1006D00042FC0000000000030202021A26424242CD
:1006E000261A000000000000000000384402020248
:1006F00044380000000000604040407844424242DC
:1007000064D80000000000000000003C427E0202AD
:10071000423C0000000000F08808087E0808080835
:10072000083E0000000000000000007C22221C02A5
:100730003C42423C000000030202023A464242426E
:1007400042E700000000000C0C00000E080808083A
:10075000083E00000000003030000038202020203B
:100760002020221E0000000302020272120A16124A
:10077000227700000000000E080808080808080892
:10078000083E0000000000000000007F929292925C
:1007900092B70000000000000000003B46424242C9
:1007A00042E70000000000000000003C42424242DC
:1007B000423C0000000000000000001B26424242B4
:1007C000221E02070000000000000078444242425E
:1007D000447840E000000000000000774C0404046E
:1007E000041F0000000000000000007C42023C40AA
:1007F000423E0000000000000008083E080808080B
:100800000830000000000000000000634242424245
:1008100062DC000000000000000000E74224241415
:100820000808000000000000000000EB4949555591
:100830002222000000000000000000762418181892
:10084000246E000000000000000000E74224241491
:1008500018080807000000000000007E22100808A9
:10086000447E000000C020202020201020202020D6
:100870002020C000101010101010101010101010B8
:1008800010101010000608080808081008080808CA
:10089000080806003CFF81818181818181818181FD
:1008A000818181FF3CFF8181818181818181818181
:1008B000FFFFFFFF3CFF81818181818181FFFFFF7D
:1008C000FFFFFFFF3CFF81818181FFFFFFFFFFFFF3
:1008D000FFFFFFFF3CFFFFFFFFFFFFFFFFFFFFFFEB
:1008E000FFFFFFFF00000000000000000040AF40DD
:1008F000A4300008C6300008E83000086030000866
:100900008230000801000000040000000700000021
:100910000E000000020000000500000008000000BA
:1009200000000000030000000600000009000000B5
:100930000F0000000A0000000B0000000C00000087
:100940000D0000005A65726F2000000000004F6E1D
:10095000652020000000000054776F202000000078
:10096000000054687265650000000000466F7572F3
:1009700020000000000046697665200000000000AD
:1009800053697820200000000000536576656E00F2
:1009900000000000456967687400000000004E69AF
:1009A0006E65200000000000504F4C4C2056455210
:1009B00053494F4E0000000090300000E02F00002F
:1009C000E62F0000E02F000082300000E02F000042
:1009D000E62F0000903000009030000082300000D0
:1009E000E62F0000C62F0000C62F0000C62F000013
:1009F000EA2F00009634000096340000AE34000068
:100A000090340000903400003C350000AE3400000B
:100A1000903400003C35000090340000AE340000FB
:100A20008E3400008E3400008E3400003C3500000F
:100A30000001020203030303040404040404040485
:100A40000505050505050505050505050505050556
:100A50000606060606060606060606060606060636
:100A60000606060606060606060606060606060626
:100A70000707070707070707070707070707070706
:100A800007070707070707070707070707070707F6
:100A900007070707070707070707070707070707E6
:100AA00007070707070707070707070707070707D6
:100AB00008080808080808080808080808080808B6
:100AC00008080808080808080808080808080808A6
:100AD0000808080808080808080808080808080896
:100AE0000808080808080808080808080808080886
:100AF0000808080808080808080808080808080876
:100B00000808080808080808080808080808080865
:100B10000808080808080808080808080808080855
:100B20000808080808080808080808080808080845
:100B3000B717000815719386479086CFA2CDA6CB34
:100B4000CAC9CEC7D2C5D6C3DAC15EDF62DD93871C
:100B5000479078001386060483A8070003A847007F
:100B60008847CC47232017012322070108C74CC719
:100B7000C1074107E392C7FEF8009386460A83A89F
:100B8000070003A847008847CC47904B2320170154
:100B90002322070108C74CC710CBD1075107E390A8
:100BA000D7FE97200000E780607097200000E78064
:100BB000007497200000E780007B97300000E780FA
:100BC0004082014597100000E78080B5C16B971007
:100BD0000000E78080B713850B8097200000E78036
:100BE0008033371600089386FBFF05471306869A65
:100BF000A945294597200000E780403D014AFD595D
:100C0000814A8144130B803E294CFD1B014405049D
:100C100097000000E780E06897200000E780206CE4
:100C20007DD5850497200000E78060709720000044
:100C3000E78080766380640797200000E780807DEE
:100C4000AA87634B0502050A93154A006384A9002D
:100C50008145014A13972700141936970329C7F5D0
:100C60000545BE89CA9597200000E78040764A85F1
:100C700097200000E780403C935584400945972029
:100C80000000E780C074A2850D4597200000E78032
:100C90000074ADBFD685014597200000E780207322
:100CA000850AB3E78A030147DE86F9452945814471
:100CB000139627003E960606FC003E9697200000FD
:100CC000E780C03095BF97F7FFF79387A73389CBAD
:100CD0001735000013058550173300006700434C9B
:100CE000828093F7050193F8F50099C3B3E8C80033
:100CF0008147854E3D4E930F80029302800421432D
:100D0000139627003397FE003318CE00758F1348D3
:100D1000F8FF3396C80001CF032F05003378E801B0
:100D200033660601638FF5056389550410C1850795
:100D3000E39867FC854E3D4E930F8002930280043A
:100D400041431397270001173396FE003318EE0036
:100D5000758E1348F8FF3397E80001CE032F450046
:100D60003378E80133670701638FF5016389550024
:100D700058C18507E39767FC828018C945BF10C931
:100D8000C5BF58C965B750C9E5B70CC982804CC901
:100D90008280B7170240135765003E97144385477A
:100DA000B397A700D58F1CC3828023200500232280
:100DB00005002324050023260500232A0500232CF3
:100DC00005008280D4419C41984583A8C50003A8B2
:100DD0000501D58FD98FD449B3E717011841904D3C
:100DE000B3E70701D58F8D6693860604758FD18F83
:100DF000D98F1CC15C4D7D771307F77FF98F5CCDD0
:100E000082801C4193E707041CC182804CC582800C
:100E10001C410967D98F1CC10CC9828008456D8DA2
:100E20003335A000828093F5F51F4CC1828093D7A3
:100E3000650093F7F73F3E9508413355B5000589A6
:100E40008280B71702409843B706FFE0B1061367E8
:100E5000170098C3D8433706F7EA7D16758FD8C3B5
:100E60009843B706F7FEFD16758F98C39843B706EB
:100E7000FCFFFD16758F98C3D843B70601DFFD163A
:100E8000758FD8C323A6070294433707FF00C165B7
:100E9000F18E94C398C798439386F5FF37160240A6
:100EA0004D8F98C311A099C61C42FD161397E700F9
:100EB000E35B07FEB717024098439316E70063D041
:100EC000060AD8433706C4DF7D16D8C3D843B71601
:100ED0000240D8C3D84313670740D8C3D843718FA3
:100EE000D8C3D84337062920518FD8C3D8573D7669
:100EF000718FD8D7D8574166130616F1518FD8D7BE
:100F0000984337060004518F98C39C4213974700BB
:100F1000E35D07FE9C423706001037170240D18F71
:100F20009CC21C4393962700E3DD06FE144337065C
:100F30000001B7170240D18E14C39843931667007F
:100F4000E3DD06FED843B7160240719BD8C3D843F1
:100F500013672700D8C3DC42A18BF5DF828001A094
:100F6000B70700089387072803AF070083AE470041
:100F700003AE870003A3C70083A8070103A84701A6
:100F8000944F03D7C70183C7E7017971794622D40B
:100F90008A852A84094506D67AC076C272C41AC6E2
:100FA00046C842CA36CC231EE100230FF100973019
:100FB0000000E780E02CA285094597000000E7804B
:100FC000C00AB705000805469385052B09459730EB
:100FD0000000E780E02A01A0411122C4374401400B
:100FE00026C29375F50FAA841305048006C6130460
:100FF000048097000000E78040E39D45228597002C
:101000000000E78000E375D9B2402244268592446F
:101010004101828001114EC606CE22CC26CA4AC8A2
:10102000B28915C22E843389C500A9440345040042
:10103000050497000000E78060FA8347F4FF638CA3
:101040009700E31524FFF24062444E85D2444249A2
:10105000B24905618280354597000000E78000F8BD
:10106000E31624FDCDB7797156CAAE8AB7050008DC
:1010700009469385052A22D426D24AD04ECE52CC98
:1010800006D62A8A714497300000E780601FBD4968
:101090002549F15405A093F7F60F71140546930501
:1010A000F1005285A307F10097300000E780401D52
:1010B000630F9402B3978900B3F75701B3D7870042
:1010C00093F7F70F9386070313877703E375F9FC0C
:1010D0009377F70F711405469305F1005285A30726
:1010E000F10097300000E780A019E31594FCB2509E
:1010F000225492540259F249624AD24A456182808E
:10110000B70700D1D8438843CC43E39DE5FE8280F6
:10111000370700D2230007001205B71700D2A30536
:1011200007003E9563F7A70023A00700C107E3ED82
:10113000A7FE8280F327503093F707FC93E7370030
:10114000739057308280B70500084111154693858A
:10115000452A054506C697300000E7806012054520
:1011600097000000E78000E041119347F5FF22C49B
:1011700006C6139747012A8405C3B705000815461C
:101180009385C52A054597300000E780600F2285CA
:1011900097000000E78000DD97000000E780E0FA9C
:1011A000E9BF411106C697000000E780C0C91305DA
:1011B000700597000000E780E0F597000000E780E9
:1011C000A0F7B240410117F3FFFF670003088280D8
:1011D00079714AD04ECE5EC606D622D426D252CCE3
:1011E00056CA5AC862C466C2AA8B97000000E7803C
:1011F00060F12A89AE8997000000E780A0F02A8478
:10120000AE846314A900E388B9FEB717000803A9E8
:10121000878E83A9C78E370B002097000000E780D8
:1012200060EEAA87018DB3B7A700858D9D8D97309D
:101230000000E78080D72A8A03258B44AE8A973046
:101240000000E78020D14A86CE8697200000E78004
:10125000002D2A8C5E85AE8C97300000E78080CF11
:101260002A86AE866285E68597300000E780C089D1
:101270002A86AE865285D68597200000E780807E3C
:10128000E34D05F8B250225492540259F249624A91
:10129000D24A424BB24B224C924C45618280411162
:1012A00022C43704002013048445B70700201840E7
:1012B00083A7C74506C626C26309F708374500401D
:1012C00089451305058097000000E78060B511E5AA
:1012D000B240224492444101828089653715014021
:1012E00097000000E780E0AA1C40B7040020938428
:1012F00004468A07A69798439307F00FA165371510
:10130000014063CFE70497000000E78080A81C40FD
:10131000374500401305058013972700BA9483C50D
:10132000040085071CC097000000E78060AE1C40E9
:10133000B240924413D7F7416183BA9793F7F70FFE
:10134000998F1CC02244410182802244B2409244C1
:10135000896537150140410117030000670023A389
:1013600097000000E780A0A25DB7011122CC3704EE
:1013700000201304C445104026CAB70400201307F8
:1013800016009357F741E183938484453E978C4040
:101390001377F70F4EC652C406CE135A85404AC87B
:1013A000B307F740AA89130A0A106395B70297009A
:1013B0000000E78000EF10408C40130716009357A1
:1013C000F74193D68701B307D70093F7F70F958FAF
:1013D000E38FB7FC9386170013D7F64113558701A7
:1013E00037090020130909460A063387A6004A96E2
:1013F0001377F70F93F9F90F232046011CC0098FCB
:10140000938909106393E50297000000E78060E983
:101410001C409040138717009356F741E18236979E
:101420001377F70F158FE301C7FE18C0F24062442F
:101430008A07CA9723A03701D2444249B249224AB7
:1014400005618280797122D4370400201304C445D9
:101450000328040056CAB70A002013071800935740
:10146000F74193D88701938A8A45B307170103A7E9
:101470000A0093F7F70F4AD04ECE5AC85EC606D67A
:1014800026D252CCB3871741AA8BAE89328B3689CC
:101490006395E70297000000E780A0E003280400BE
:1014A00083A60A009307180013D7F7416183BA9700
:1014B00093F7F70F998FE38FD7FC370A0020130AB1
:1014C0004A4503452A00B7040020938404460A08CD
:1014D0001307A00226985E952320E8001CC0970001
:1014E0000000E780C0E803452A005A9597000000F5
:1014F000E780E0E7144083A50A001387160093579E
:10150000F74113D68701B307C70093F7F70F918F01
:101510006394B70297000000E780A0D8144003A6A8
:101520000A009387160013D7F7416183BA9793F7A0
:10153000F70F998FE380C7FE03453A008A06A69607
:101540001307B0024E9598C21CC097000000E780B8
:1015500000E203453A004A9597000000E78020E149
:10156000144083A50A00138716009357F74113D63A
:101570008701B307C70093F7F70F918F6394B70202
:1015800097000000E780E0D1144003A60A0093878B
:10159000160013D7F7416183BA9793F7F70F998F26
:1015A000E380C7FE1CC0B25022548A06A6961307D9
:1015B000C00298C292540259F249624AD24A424B3E
:1015C000B24B45618280797156CAB28A811A26D29D
:1015D00013067500B68493FAFA0F9386F5004AD085
:1015E0005AC85EC606D622D44ECE52CC62C4AA8B4E
:1015F0002E8B3A89920A97000000E780E0E4A1EC84
:10160000B70900089389492B93870901371A0020ED
:10161000D699BE9A83C40900214493F714004A85E1
:1016200099E303250A867D141374F40F97000000D4
:10163000E780E0D3858075F08509E39D3AFDB250DF
:10164000225492540259F249624AD24A424BB24B56
:10165000224C45618280DA89370C0008410B130C5B
:101660004C2BB38A3A41138A8B00B3873A01E29735
:1016700083C407005E8429A00504858063068A026E
:1016800093F71400F5DB22862285CE86CE8597005F
:101690000000E78060DB4A85050497000000E780D2
:1016A00000CD8580E31E8AFC8509E39069FD41BF7A
:1016B000797189653715014006D622D497F0FFFF6E
:1016C000E780E06C480097F0FFFFE780406E9307EB
:1016D00040103EC28D47374400403ECC9307002067
:1016E0004C00130504803EC8A1473ECE02C402C68A
:1016F00002CA97F0FFFFE780206D130504809D4527
:1017000097F0FFFFE78000711305048097F0FFFF5B
:10171000E780606FB25022544561828009E9B707C3
:10172000011A370700208507232AF744828085475E
:10173000631AF500B70700183707002093871710C2
:10174000232AF744828001114EC6B70900209389ED
:10175000494583C7090006CE22CC26CA4AC891E76C
:10176000B707011A850723A0F9001305306097F029
:10177000FFFFE78040621305406097F0FFFFE780BE
:1017800080611305006097F0FFFFE780C0601305DC
:10179000E07097F0FFFFE780006037150140B96601
:1017A0000D46E145130505C097F0FFFFE780A05304
:1017B000A9660D46C1453715014097F0FFFFE78048
:1017C000805297000000E780E0EEA96537150140E0
:1017D000B70400203704002097F0FFFFE780605B2C
:1017E000938484451304C44598401C40630AF70061
:1017F00097000000E780E0AA98401C40E31AF7FE3B
:101800001305400697000000E780C09C14408C4000
:10181000138716009357F74113D68701B307C70004
:1018200093F7F70F918F6393B70297000000E7805B
:1018300040A7144090409387160013D7F741618367
:10184000BA9793F7F70F998FE381C7FE3707002008
:10185000130907468A06CA96054798C21CC0970016
:101860000000E78000A498401C40E31AF7FE13052F
:10187000800797000000E780E09514408C401387B4
:1018800016009357F74113D68701B307C70093F7A4
:10189000F70F918F6393B70297000000E78060A075
:1018A000144090409387160013D7F7416183BA978D
:1018B00093F7F70F998FE381C7FE8A06CA964547CB
:1018C00098C21CC097000000E780A09D98401C4073
:1018D000E31AF7FE1305400697000000E780808FAB
:1018E00083C7190099E76F10605D97000000E780DB
:1018F000409B0C409C40138715009356F74113D62C
:101900008601B306C70093F6F60F918EE38FF6FCBF
:101910008A05CA951307200298C1138716009355AC
:10192000F74113D68501B305C70093F5F50F14C031
:10193000918D6394F5006F10205B1387150013568B
:10194000F741135586013306A7008A06CA96137617
:10195000F60F1307100B98C20CC0098E6395C702CF
:1019600097000000E780E0930C409C40138715002F
:101970001356F741935686013306D7001376F60FB8
:10198000158EE30FF6FC130716009356F74113D597
:101990008601B306A7008A05CA9593F6F60F1307CA
:1019A000501098C110C0898E6395D702970000002F
:1019B000E780208F10409C40130716009356F74194
:1019C00093D58601B306B70093F6F60F8D8EE38F9D
:1019D000F6FC138716009355F74113D58501B3051F
:1019E000A7000A064A9693F5F50F1307A01318C22D
:1019F00014C0898D6395B70297000000E780608A64
:101A000014409C40138716009355F74113D6850167
:101A1000B305C70093F5F50F918DE38FF5FC1387A0
:101A200015001356F741135586013306A7008A06A1
:101A3000CA961376F60F1307A01398C20CC0098E2E
:101A40006395C70297000000E780A0850C409C408A
:101A5000138715001356F741935686013306D700B6
:101A60001376F60F158EE30FF6FC13071600935648
:101A7000F74113D58601B306A7008A05CA9593F6E8
:101A8000F60F1307200B98C110C0898E6395D702FB
:101A900097000000E780E08010409C40130716008C
:101AA0009356F74193D58601B306B70093F6F60F28
:101AB0008D8EE38FF6FC138716009355F74113D5EF
:101AC0008501B305A7000A064A9693F5F50F13079B
:101AD000501018C214C0898D6395B70297F0FFFFAC
:101AE000E780207C14409C40138716009355F741F3
:101AF00013D68501B305C70093F5F50F918DE38FDC
:101B0000F5FC138715001356F7411355860133066C
:101B1000A7008A06CA961376F60F1307A01398C279
:101B20000CC0098E6395C70297F0FFFFE7806077CE
:101B30000C409C40138715001356F74193568601BD
:101B40003306D7001376F60F158EE30FF6FC130756
:101B500016009356F74113D58601B306A7008A05F0
:101B6000CA9593F6F60F1307A01398C110C0898E7B
:101B70006395D70297F0FFFFE780A07210409C406A
:101B8000130716009356F74193D58601B306B700A5
:101B900093F6F60F8D8EE38FF6FC138716009355A0
:101BA000F74113D58501B305A7000A064A9693F5B8
:101BB000F50F1307300B18C214C0898D6395B70257
:101BC00097F0FFFFE780E06D14409C4013871600FC
:101BD0009355F74113D68501B305C70093F5F50F6B
:101BE000918DE38FF5FC138715001356F7411355BC
:101BF00086013306A7008A06CA961376F60F1307E6
:101C0000501098C20CC0098E6395C70297F0FFFF71
:101C1000E78020690C409C40138715001356F7415C
:101C2000935686013306D7001376F60F158EE30F11
:101C3000F6FC130716009356F74113D58601B30639
:101C4000A7008A05CA9593F6F60F1307A01398C14B
:101C500010C0898E6395D70297F0FFFFE78060641C
:101C600010409C40130716009356F74193D5860108
:101C7000B306B70093F6F60F8D8EE38FF6FC13874D
:101C800016009355F74113D58501B305A7000A0641
:101C90004A9693F5F50F1307A01318C214C0898D47
:101CA0006395B70297F0FFFFE780A05F14409C4068
:101CB000138716009355F74113D68501B305C70066
:101CC00093F5F50F918DE38FF5FC138715001356EF
:101CD000F741135586013306A7008A06CA96137684
:101CE000F60F1307501098C20CC0098E6395C702F7
:101CF00097F0FFFFE780E05A0C409C4013871500E7
:101D00001356F741935686013306D7001376F60F24
:101D1000158EE30FF6FC130716009356F74113D503
:101D20008601B306A7008A05CA9593F6F60F130736
:101D3000A01398C110C0898E6395D70297F0FFFF5A
:101D4000E780205610409C40130716009356F74139
:101D500093D58601B306B70093F6F60F8D8EE38F09
:101D6000F6FC138716009355F74113D58501B3058B
:101D7000A7000A064A9693F5F50F1307A01318C299
:101D800014C0898D6395B70297F0FFFFE78060511B
:101D900014409C40138716009355F74113D68501D4
:101DA000B305C70093F5F50F918DE38FF5FC13870D
:101DB00015001356F741135586013306A7008A060E
:101DC000CA961376F60F1307400B98C20CC0098E03
:101DD0006395C70297F0FFFFE780A04C0C409C4042
:101DE000138715001356F741935686013306D70023
:101DF0001376F60F158EE30FF6FC130716009356B5
:101E0000F74113D58601B306A7008A05CA9593F654
:101E1000F60F1307301098C110C0898E6395D70252
:101E200097F0FFFFE780E04710409C401307160043
:101E30009356F74193D58601B306B70093F6F60F94
:101E40008D8EE38FF6FC138716009355F74113D55B
:101E50008501B305A7000A064A9693F5F50F130707
:101E6000000C18C214C0898D6395B70297F0FFFF6C
:101E7000E780204314409C40138716009355F74198
:101E800013D68501B305C70093F5F50F918DE38F48
:101E9000F5FC138715001356F741135586013306D9
:101EA000A7008A06CA961376F60F1307201698C263
:101EB0000CC0098E6395C70297F0FFFFE780603E74
:101EC0000C409C40138715001356F741935686012A
:101ED0003306D7001376F60F158EE30FF6FC1307C3
:101EE00016009356F74113D58601B306A7008A055D
:101EF000CA9593F6F60F1307201098C110C0898E6B
:101F00006395D70297F0FFFFE780A03910409C400F
:101F1000130716009356F74193D58601B306B70011
:101F200093F6F60F8D8EE38FF6FC1387160093550C
:101F3000F74113D58501B305A7000A064A9693F524
:101F4000F50F1307401018C214C0898D6395B702AE
:101F500097F0FFFFE780E03414409C4013871600A1
:101F60009355F74113D68501B305C70093F5F50FD7
:101F7000918DE38FF5FC138715001356F741135528
:101F800086013306A7008A06CA961376F60F130752
:101F9000100C98C20CC0098E6395C70297F0FFFF22
:101FA000E78020300C409C40138715001356F74102
:101FB000935686013306D7001376F60F158EE30F7E
:101FC000F6FC130716009356F74113D58601B306A6
:101FD000A7008A05CA9593F6F60F1307001C98C14F
:101FE00010C0898E6395D70297F0FFFFE780602BC2
:101FF00010409C40130716009356F74193D5860175
:10200000B306B70093F6F60F8D8EE38FF6FC1387B9
:1020100016009355F74113D58501B305A7000A06AD
:102020004A9693F5F50F1307200C18C214C0898D3A
:102030006395F50297F0FFFFE780A02614409C40CF
:10204000138716009355F74113D68501B305C700D2
:1020500093F5F50F918DE38FF5FC1387150013565B
:10206000F741135586013306A7008A06CA961376F0
:10207000F60F1307D01098C20CC0098E6395C702E3
:1020800097F0FFFFE780E0210C409C40138715008C
:102090001356F741935686013306D7001376F60F91
:1020A000158EE30FF6FC130716009356F74113D570
:1020B0008601B306A7008A05CA9593F6F60F1307A3
:1020C000001098C110C0898E6395F60297F0FFFF4B
:1020D000E780201D10409C40130716009356F741DF
:1020E00093D58601B306B70093F6F60F8D8EE38F76
:1020F000F6FC138716009355F74113D58501B305F8
:10210000A7000A064A9693F5F50F1307300C18C27C
:1021100014C0898D6395B70297F0FFFFE7806018C0
:1021200014409C40138716009355F74113D6850140
:10213000B305C70093F5F50F918DE38FF5FC138779
:1021400015001356F741135586013306A7008A067A
:10215000CA961376F60F1307D01898C20CC0098ED2
:102160006315F60297F0FFFFE780A0130C409C4038
:10217000138715001356F741935686013306D7008F
:102180001376F60F158EE30FF6FC13071600935621
:10219000F74113D58601B306A7008A05CA9593F6C1
:1021A000F60F1307A01698C110C0898E6395D70249
:1021B00097F0FFFFE780E00E10409C4013071600E9
:1021C0009356F74193D58601B306B70093F6F60F01
:1021D0008D8EE38FF6FC138716009355F74113D5C8
:1021E0008501B305A7000A064A9693F5F50F130774
:1021F000400C18C214C0898D6395F50297F0FFFF5B
:10220000E780200A14409C40138716009355F7413D
:1022100013D68501B305C70093F5F50F918DE38FB4
:10222000F5FC138715001356F74113558601330645
:10223000A7008A06CA961376F60F1307D01898C21D
:102240000CC0098E6395C70297F0FFFFE780600519
:102250000C409C40138715001356F7419356860196
:102260003306D7001376F60F158EE30FF6FC13072F
:1022700016009356F74113D58601B306A7008A05C9
:10228000CA9593F6F60F1307E01E98C110C0898E09
:102290006395F60297F0FFFFE780A00010409C4096
:1022A000130716009356F74193D58601B306B7007E
:1022B00093F6F60F8D8EE38FF6FC13871600935579
:1022C000F74113D58501B305A7000A064A9693F591
:1022D000F50F1307500C18C214C0898D6395B7020F
:1022E00097F0FFFFE780E0FB14409C401387160047
:1022F0009355F74113D68501B305C70093F5F50F44
:10230000918DE38FF5FC138715001356F741135594
:1023100086013306A7008A06CA961376F60F1307BE
:10232000E01098C20CC0098E6315F60297F0FFFF0B
:10233000E78020F70C409C40138715001356F741A7
:10234000935686013306D7001376F60F158EE30FEA
:10235000F6FC130716009356F74113D58601B30612
:10236000A7008A05CA9593F6F60F1307000E98C1C9
:1023700010C0898E6395D70297F0FFFFE78060F267
:1023800010409C40130716009356F74193D58601E1
:10239000B306B70093F6F60F8D8EE38FF6FC138726
:1023A00016009355F74113D58501B305A7000A061A
:1023B0004A9693F5F50F1307001118C214C0898DC2
:1023C0006395F50297F0FFFFE780A0ED14409C4075
:1023D000138716009355F74113D68501B305C7003F
:1023E00093F5F50F918DE38FF5FC138715001356C8
:1023F000F741135586013306A7008A06CA9613765D
:10240000F60F1307E01098C20CC0098E6395C7023F
:1024100097F0FFFFE780E0E80C409C401387150031
:102420001356F741935686013306D7001376F60FFD
:10243000158EE30FF6FC130716009356F74113D5DC
:102440008601B306A7008A05CA9593F6F60F13070F
:10245000201098C110C0898E6395F60297F0FFFF97
:10246000E78020E410409C40130716009356F74184
:1024700093D58601B306B70093F6F60F8D8EE38FE2
:10248000F6FC138716009355F74113D58501B30564
:10249000A7000A064A9693F5F50F1307301018C2E5
:1024A00014C0898D6395B70297F0FFFFE78060DF66
:1024B00014409C40138716009355F74113D68501AD
:1024C000B305C70093F5F50F918DE38FF5FC1387E6
:1024D00015001356F741135586013306A7008A06E7
:1024E000CA961376F60F1307E01098C20CC0098E37
:1024F0006315F60297F0FFFFE780A0DA0C409C40DE
:10250000138715001356F741935686013306D700FB
:102510001376F60F158EE30FF6FC1307160093568D
:10252000F74113D58601B306A7008A05CA9593F62D
:10253000F60F1307701098C110C0898E6395D702EB
:1025400097F0FFFFE780E0D510409C40130716008E
:102550009356F74193D58601B306B70093F6F60F6D
:102560008D8EE38FF6FC138716009355F74113D534
:102570008501B305A7000A064A9693F5F50F1307E0
:10258000201018C214C0898D6395F50297F0FFFFE3
:10259000E78020D114409C40138716009355F741E3
:1025A00013D68501B305C70093F5F50F918DE38F21
:1025B000F5FC138715001356F741135586013306B2
:1025C000A7008A06CA961376F60F1307701098C2F2
:1025D0000CC0098E6315F60297F0FFFFE78060CC10
:1025E0000C409C40138715001356F7419356860103
:1025F0003306D7001376F60F158EE30FF6FC13079C
:1026000016009356F74113D58601B306A7008A0535
:10261000CA9593F6F60F1307A01098C110C0898EC3
:102620006395F60297F0FFFFE780A0C710409C403B
:10263000130716009356F74193D58601B306B700EA
:1026400093F6F60F8D8EE38FF6FC138716009355E5
:10265000F74113D58501B305A7000A064A9693F5FD
:10266000F50F1307201118C214C0898D6395F50268
:1026700097F0FFFFE780E0C214409C4013871600EC
:102680009355F74113D68501B305C70093F5F50FB0
:10269000918DE38FF5FC138715001356F741135501
:1026A00086013306A7008A06CA961376F60F13072B
:1026B000701298C20CC0098E6315F60297F0FFFFE6
:1026C000E78020BE0C409C40138715001356F7414D
:1026D000935686013306D7001376F60F158EE30F57
:1026E000F6FC130716009356F74113D58601B3067F
:1026F000A7008A05CA9593F6F60F1307701398C1C1
:1027000010C0898E6395F60297F0FFFFE78060B9ED
:1027100010409C40130716009356F74193D586014D
:10272000B306B70093F6F60F8D8EE38FF6FC138792
:1027300016009355F74113D58501B305A7000A0686
:102740004A9693F5F50F1307001018C214C0898D2F
:102750006395F50297F0FFFFE780A0B414409C401A
:10276000138716009355F74113D68501B305C700AB
:1027700093F5F50F918DE38FF5FC13871500135634
:10278000F741135586013306A7008A06CA961376C9
:10279000F60F1307D01098C20CC0098E6315F6020D
:1027A00097F0FFFFE780E0AF0C409C4013871500D7
:1027B0001356F741935686013306D7001376F60F6A
:1027C000158EE30FF6FC130716009356F74113D549
:1027D0008601B306A7008A05CA9593F6F60F13077C
:1027E000E01098C110C0898E6395F60297F0FFFF44
:1027F000E78020AB10409C40130716009356F7412A
:1028000093D58601B306B70093F6F60F8D8EE38F4E
:10281000F6FC138716009355F74113D58501B305D0
:10282000A7000A064A9693F5F50F1307001118C280
:1028300014C0898D6395F50297F0FFFFE78060A6CD
:1028400014409C40138716009355F74113D6850119
:10285000B305C70093F5F50F918DE38FF5FC138752
:1028600015001356F741135586013306A7008A0653
:10287000CA961376F60F1307100E98C20CC0098E75
:102880006315F60297F0FFFFE780A0A10C409C4083
:10289000138715001356F741935686013306D70068
:1028A0001376F60F158EE30FF6FC130716009356FA
:1028B000F74113D58601B306A7008A05CA9593F69A
:1028C000F60F1307001198C110C0898E6395F602A8
:1028D00097F0FFFFE780E09C10409C401307160034
:1028E0009356F74193D58601B306B70093F6F60FDA
:1028F0008D8EE38FF6FC138716009355F74113D5A1
:102900008501B305A7000A064A9693F5F50F13074C
:10291000E01018C214C0898D6395F50297F0FFFF8F
:10292000E780209814409C40138716009355F74188
:1029300013D68501B305C70093F5F50F918DE38F8D
:10294000F5FC138715001356F7411355860133061E
:10295000A7008A06CA961376F60F1307301098C29E
:102960000CC0098E6315F60297F0FFFFE7806093B5
:102970000C409C40138715001356F741935686016F
:102980003306D7001376F60F158EE30FF6FC130708
:1029900016009356F74113D58601B306A7008A05A2
:1029A000CA9593F6F60F1307301098C110C0898EA0
:1029B0006395F60297F0FFFFE780A08E10409C40E1
:1029C000130716009356F74193D58601B306B70057
:1029D00093F6F60F8D8EE38FF6FC13871600935552
:1029E000F74113D58501B305A7000A064A9693F56A
:1029F000F50F1307F01018C214C0898D6395F50206
:102A000097F0FFFFE780E08914409C401387160091
:102A10009355F74113D68501B305C70093F5F50F1C
:102A2000918DE38FF5FC138715001356F74113556D
:102A300086013306A7008A06CA961376F60F130797
:102A4000601098C20CC0098E6315F60297F0FFFF64
:102A5000E78020850C409C40138715001356F741F2
:102A6000935686013306D7001376F60F158EE30FC3
:102A7000F6FC130716009356F74113D58601B306EB
:102A8000A7008A05CA9593F6F60F1307201098C180
:102A900010C0898E6395F60297F0FFFFE780608093
:102AA00010409C40130716009356F74193D58601BA
:102AB000B306B70093F6F60F8D8EE38FF6FC1387FF
:102AC00016009355F74113D58501B305A7000A06F3
:102AD0004A9693F5F50F1307801018C214C0898D1C
:102AE0006395F50297E0FFFFE780A07B14409C40D0
:102AF000138716009355F74113D68501B305C70018
:102B000093F5F50F918DE38FF5FC138715001356A0
:102B1000F741135586013306A7008A06CA96137635
:102B2000F60F1307A01098C20CC0098E6315F602A9
:102B300097E0FFFFE780E0760C409C40138715008C
:102B40001356F741935686013306D7001376F60FD6
:102B5000158EE30FF6FC130716009356F74113D5B5
:102B60008601B306A7008A05CA9593F6F60F1307E8
:102B7000301198C110C0898E6395F60297E0FFFF6F
:102B8000E780207210409C40130716009356F741CF
:102B900093D58601B306B70093F6F60F8D8EE38FBB
:102BA000F6FC138716009355F74113D58501B3053D
:102BB000A7000A064A9693F5F50F1307601218C28C
:102BC00014C0898D6395F50297E0FFFFE780606D83
:102BD00014409C40138716009355F74113D6850186
:102BE000B305C70093F5F50F918DE38FF5FC1387BF
:102BF00015001356F741135586013306A7008A06C0
:102C0000CA961376F60F1307601398C20CC0098E8C
:102C10006315F60297E0FFFFE780A0680C409C4038
:102C2000138715001356F741935686013306D700D4
:102C30001376F60F158EE30FF6FC13071600935666
:102C4000F74113D58601B306A7008A05CA9593F606
:102C5000F60F1307001098C110C0898E6395F60215
:102C600097E0FFFFE780E06310409C4013071600E9
:102C70009356F74193D58601B306B70093F6F60F46
:102C80008D8EE38FF6FC138716009355F74113D50D
:102C90008501B305A7000A064A9693F5F50F1307B9
:102CA000D01018C214C0898D6395F50297E0FFFF1C
:102CB000E780205F14409C40138716009355F7412E
:102CC00013D68501B305C70093F5F50F918DE38FFA
:102CD000F5FC138715001356F7411355860133068B
:102CE000A7008A06CA961376F60F1307E01098C25B
:102CF0000CC0098E6315F60297E0FFFFE780605A6B
:102D00000C409C40138715001356F74193568601DB
:102D10003306D7001376F60F158EE30FF6FC130774
:102D200016009356F74113D58601B306A7008A050E
:102D3000CA9593F6F60F1307001198C110C0898E3B
:102D40006395F60297E0FFFFE780A05510409C4096
:102D5000130716009356F74193D58601B306B700C3
:102D600093F6F60F8D8EE38FF6FC138716009355BE
:102D7000F74113D58501B305A7000A064A9693F5D6
:102D8000F50F1307A00318C214C0898D6395F502CF
:102D900097E0FFFFE780E05014409C401387160047
:102DA0009355F74113D68501B305C70093F5F50F89
:102DB000918DE38FF5FC138715001356F7411355DA
:102DC00086013306A7008A06CA961376F60F130704
:102DD000501098C20CC0098E6315F60297E0FFFFF1
:102DE000E780204C0C409C40138715001356F74198
:102DF000935686013306D7001376F60F158EE30F30
:102E0000F6FC9306160013D7F64113558701338756
:102E1000A6008A05CA951377F70F9306600394C13D
:102E200010C0098F6315F70297E0FFFFE780604746
:102E300010409C409306160013D7F6419355870126
:102E40003387B6001377F70F0D8FE30FF7FC930569
:102E5000170093D6F54113D58601B386A5000A065F
:102E60004A9693F6F60F930580170CC218C0898E08
:102E70006395F60297E0FFFFE780A04218408C4080
:102E80009307170093D6F74113D68601B386C70080
:102E900093F6F60F918EE38FB6FC14C0F2406244B5
:102EA0000A074A97930790021CC3D2444249B24989
:102EB0000561828097E0FFFFE780A03E0C409C40C8
:102EC000138715009356F74113D68601B306C70042
:102ED00093F6F60F918EE38FF6FC8A05CA951307D9
:102EE000100298C114C039A097E0FFFFE780603B53
:102EF00014409C40138716009355F74113D6850163
:102F0000B305C70093F5F50F918DE38FF5FC6FE0E6
:102F1000DFA2411126C29306F004AA841306F00929
:102F2000814501454AC006C622C41309000A97E03C
:102F3000FFFFE7806051130400057D14268597E0AC
:102F4000FFFFE780C04275F87D19E31609FEB24025
:102F50002244924402494101828001114EC656C268
:102F6000AE89B68A26CA4AC852C406CE22CC2A8A5C
:102F7000B2843A8997E0FFFFE780004D63E03A03AF
:102F8000528463EA440105044A8597E0FFFFE78025
:102F9000003EE3FA84FE8509E3F43AFFF24062441E
:102FA000D2444249B249224A924A0561828093073B
:102FB000800963E6A7009307000463F3B7008280EB
:102FC00017E3FFFF67006360011122CC06CE26CA1B
:102FD0004AC84EC652C456C25AC03284034606007E
:102FE0001DCA2A89AE84368BBA8A93098009130ACE
:102FF000000463FC2903C104636F9A002149014561
:103000005A87D686A685050497E0FFFFE780E05B38
:103010000346040079FEF2406244D2444249B24978
:10302000224A924A024B05618280E3669AFE4A85F3
:103030002109F9B7914763EAA70CB71700089387EE
:10304000078F0A053E951C414111416706C61307CB
:103050000780930660045146930520032945828723
:1030600097000000E780A0EFB240014785461306B5
:10307000100893052003294541011703000067004C
:1030800043F397000000E78080EDB240014785469A
:10309000130620089305200329454101170300006A
:1030A000670023F197000000E78060EBB240014722
:1030B00085461306E00793052003294541011703C0
:1030C0000000670003EF97000000E78040E9B2408E
:1030D000014785461306F007930520032945410162
:1030E000170300006700E3EC97000000E78020E78B
:1030F000B240014785461306000893052003294581
:103100004101170300006700C3EA8280000000004D
:1031100000000000000000000000000000000000AF
:10312000000000000000000000000000000000009F
:10313000000000000000000000000000000000008F
:103140005D7106C012C216C41AC61EC82ACA2ECC89
:1031500032CE36D03AD23ED442D646D872DA76DC77
:103160007ADEFEC0F322103496C0F322003096C2FD
:10317000F322407C96C4732520348A8597E0FFFFB4
:10318000E780C0FE864273901234964273900230FC
:10319000A6427390427C82401242A2423243C24312
:1031A0005245E245724682561257A2573258C258CB
:1031B000525EE25E725F864F6161730020300000F4
:1031C000000000005D7106C012C216C41AC61EC8F7
:1031D0002ACA2ECC32CE36D03AD23ED442D646D8A7
:1031E00072DA76DC7ADEFEC073D0E87E7350F97E48
:1031F00073D0B97EF390D07E73700430B642739072
:10320000427CA642739012349642739022348240DC
:103210001242A2423243C2435245E24572468256AE
:103220001257A2573258C258525EE25E725F864F02
:10323000616173002030AA82B68E214363C46E00A0
:103240009102E11E8A0E3D433313D3011343F3FF72
:10325000AE83B3E3C300B393D30103AE0200337E66
:103260006E00336E7E0023A0C2018280F18D2D8E10
:103270004206D18D0CC982804CC982804CC58280A7
:103280000C458280B712024003A3C2013363A3003E
:1032900023AE62008280B712024003A3820133632F
:1032A000A30023AC62008280711106C041459700E3
:1032B0000000E78060FDB71200401303B00623A4AE
:1032C00062021303703E23A6620223A80200054394
:1032D00023A06200824011018280B712004003A542
:1032E000020119C123A802008280711106C0214584
:1032F00097000000E78060FA37150140130505C00C
:1033000081450D4681460D4797000000E780E0F2B9
:103310008506E39BE6FE82401101828097D2FF176B
:10332000938242CE038502008280711106C0371558
:103330000140130505C097D2FF179382A2CC838565
:103340000200FD1563D305009D452380B2001D4694
:1033500097000000E780C0F1038502008240110160
:103360008280711106C0214597000000E780E0F2DD
:1033700037150140130505C081450D46A14641475B
:1033800097000000E78060EB8506E39BE6FE824045
:1033900011018280711106C097D2FF179382C2C6B5
:1033A00083A20200AA9237150140130505C083C508
:1033B0000200A20537060100130606F09700000080
:1033C000E78000EB82401101828097D2FF17938241
:1033D000A2C383A20200AA922380B200828071114C
:1033E00006C0114597000000E78020EB371501402B
:1033F0001305058081451146954625479700000035
:10340000E780A0E38506E39BE6FE8240110182800F
:10341000711106C07D5E97DEFF17938EBEBF03A3BA
:103420000E009303F3FF23A07E006397030423A001
:103430006E00371501401305058097000000E780F6
:1034400060E49581BD898DC985813335B000330332
:10345000A00085813335B0002A9385813335B000D3
:103460002A9397000000E780A0EB0A05336EA300C3
:103470001303002023A06E00728582401101828018
:1034800097D2FF17938252B923900200828097D27D
:10349000FF17938272B803D30200A5430503137E7E
:1034A000F30063D8C3031903135E4300137EFE00C9
:1034B00063D1C30313030306135E8300137EFE0070
:1034C00063D9C30113030360135EC30063D3C30155
:1034D000014323906200828097D2FF179382D2B378
:1034E00003D50200828097D2FF17938212B303A301
:1034F00002007D1323A06200635003021303F0084F
:1035000023A0620097D2FF17938202B003A30200A8
:103510001343130023A062008280797113D8450100
:1035200026D24ECE52CC5AC85EC69394C50006D65B
:1035300022D44AD056CA1378F87F2A8BB28B368AA7
:10354000B18093D9F501630408089307F07F630EF7
:10355000F80C935AD5018E04B3E49A00B70A8000A0
:10356000B3EA540113143500130918C0014B135565
:103570004A019314CA001378F57FB180135AFA01F7
:103580006308080C9307F07F6301F8121395340069
:1035900093D7DB015D8DB7048000C98C139F3B007E
:1035A000130518C0814713172B005D8F7D17B9468F
:1035B00033C649013308A94063EBE61097D6FFFFF5
:1035C0009386C63F0A073697184336970287B3EAB1
:1035D000A40063860A068DCC268597100000E7803C
:1035E00060B8930755FF7147634BF702F54A130420
:1035F00085FFB38AFA40B3948400B35A5B01B3EAFF
:103600009A0033148B001308D0C03309A840B9BF07
:1036100097100000E78000B513050502D9B79304A1
:1036200085FDB31A9B000144F9BFB3EAA400638C83
:103630000A002A84A68A1309F07F0D4B0DBF0144AE
:103640000149054B2DB701441309F07F094B05B71C
:1036500033EF740163040F069DC8268597100000A0
:10366000E78040B0930755FF7147634AF7027547FB
:10367000130F85FF1D8FB394E40133D7EB00D98C72
:10368000339FEB011306D0C03305A64021BF5E85F2
:1036900097100000E78000AD13050502E1B7930421
:1036A00085FDB3949B00014FF1BF33EF7401630BB1
:1036B0000F005E8F1305F07F8D47F5B581440145FE
:1036C0008547D5B581441305F07F8947E9BD63E699
:1036D000540163939A2A6361E42B9396FA0113577A
:1036E00014009317F40193DA1A0033E4E6001395FB
:1036F000840093548F01458D135E0501B3D8CA032E
:1037000013130501135303011357040193158F007D
:10371000B3F4CA03C68FB3061303939A0401336745
:103720005701637CD7002A97938FF8FF6367A70040
:103730006375D700938FE8FF2A97158FB35EC70391
:10374000420441803377C703F686B308D3034207A8
:10375000418F637C17012A979386FEFF6367A7005A
:10376000637517019386EEFF2A97C20FB3EFDF0050
:10377000C166330417419388F6FF13DF0F0133F757
:103780001F0193DE0501B3F81501B3031703B3045A
:103790001F033387EE02B302DF03330F970013D703
:1037A00003017A9763739700B692135F0701169F20
:1037B000C162FD12B3765700C206B3F353009E9662
:1037C0006367E401FE84631EE40363FCD702AE97E3
:1037D00033B7B7002A973A949384FFFF6366850056
:1037E0006311850263EFB7006366E401631B8F001A
:1037F00063F9D700AE9733B7B7002A979384EFFFEA
:103800003A94B386D7403304E441B3B7D7001D8C54
:103810007D5F6305850E335FC40313D706013374E0
:10382000C403B307E3034204598C7A87637CF40032
:103830002A941307FFFF6367A4006375F40013075E
:10384000EFFF2A941D8C335FC403C206C182337418
:10385000C403FA873303E3034204558C637C64009A
:103860002A949307FFFF6367A400637564009307BE
:10387000EFFF2A9442075D8F93170701C18333043A
:10388000644013530701338E1703B30813033383C4
:103890006E02B38EFE0293570E01C69EF69763F436
:1038A0001701C166369393D807019A9841637D1337
:1038B000B3F66700C206337E6E00F29663661401AB
:1038C000631E14193A8F9DCA2A94130FF7FF636180
:1038D000A402636614016312141963FDD500939763
:1038E0001500B3B5B7002E95130FE7FF2A94BE85D8
:1038F000631414016384B600136F1F001307F83FAD
:103900006357E00A93777F0081CF9377FF0091465A
:103910006388D70093064F0033BFE601FA94368FD1
:103920009397740063D80700B70700FFFD17FD8C5D
:10393000130708409307E07F63C8E710135F3F0059
:103940009397D401B3E7E70113D534003205137719
:10395000F77F5207B25022543181598D7E0633676A
:10396000C50092540259F249624AD24A424BB24BC4
:103970003E85BA85456182807D1881478DBB4E8624
:10398000D684228FDA8709476380E70C0D47638668
:10399000E70A0547E394E7F60145814785A8528683
:1039A000DDB7B7040800014F01468D47E9BF054563
:1039B000198D93078003E3C1A7FEFD4763CAA704DF
:1039C0001308E841B39704013357AF0033180F01D0
:1039D000D98F33380001B3E7070133D5A40013F7BB
:1039E000770001CF13F7F70091466308D7001387DC
:1039F0004700B337F7003E95BA8713178500634A2F
:103A000007041317D5018D83D98F0D8101473DBF61
:103A10008557998F93060002B3D7F40001476306D8
:103A2000D5001308E84333970401336FE701333FB0
:103A3000E001B3E7E70101455DB7370508008147BD
:103A40001307F07F014619B7014581471307F07F3F
:103A5000F5BD014581470547D5BD7A873A8F69BDD8
:103A600013D84501B7071000FD1713D74601137887
:103A7000F87F930EF07FB3F8B7002A83F58FFD81AE
:103A8000328E1377F77FFD826318D801B3EEA8005A
:103A900063850E0689450DA86316D701B3EEC700EE
:103AA000E39A0EFE631D080433E5A80013351500E4
:103AB00019E35D8E15CE11E5638AD50085C9FD55E4
:103AC00021A0FD5591C2B6852E858280E34807FF6F
:103AD0006354E800F5F9E5B7E3E217FF639CF800EB
:103AE000E36E6EFCE368C3FF8145F9BF8545E9BF1E
:103AF00065FDE9B7E3E0F8FEC5BFE30107FB4DFF55
:103B0000014545BF79714ECE93D9450122D426D2C5
:103B100052CC56CA5AC89394C50006D64AD05EC63F
:103B200093F9F97F2A84328BB68AB18013DAF501D2
:103B3000638109089307F07F6389F90C9357D501D6
:103B40008E04DD8CB7078000DD8C13193500938956
:103B500019C0814B13D54A011394CA001375F57F20
:103B6000318093DAFA0161C59307F07F630DF51098
:103B70009357DB010E045D8CB70780005D8C130545
:103B800015C093173B00014793962B00D98E4E9595
:103B9000FD16B94533465A011308150063E6D510E2
:103BA00097D5FFFF938545E58A06AE969442AE967B
:103BB000828633E9A400630309069DC82685970021
:103BC0000000E780205A130755FFF14763C9E70259
:103BD000F547130985FF998FB3942401B357F40077
:103BE000DD8C331924019309D0C0B389A94095B75E
:103BF00097000000E780005713050502E9B793041A
:103C000085FDB31494000149F9BF33E9A400630BA7
:103C100009002A899309F07F8D4B2DBF814481498A
:103C2000854B0DBF81449309F07F894B25B7B3675E
:103C30006401B5C31DC8228597000000E78080524B
:103C4000930655FFF14763CAD7027547930785FF6F
:103C5000158F3314F4003357EB00598CB317FB0066
:103C60001307D0C03305A74039BF5A85970000001D
:103C7000E780404F13050502E1B7130485FD3314B7
:103C80008B008147F1BFB367640191CBDA871305DD
:103C9000F07F0D47D5BD014401450547F5B5014409
:103CA0001305F07F0947CDB5416F930EFFFF135702
:103CB000090193D807013379D901B3F7D701B38547
:103CC0002803B3862703B30FF7023383F50193D597
:103CD00006019A95330E170363F3F5017A9E93D389
:103CE0000501B3F5D501B3F6D601135F0401B37234
:103CF000D401C205B695B30E5702B3862203330929
:103D00002F033303D90113D906011A993307E703A7
:103D10006374D90141631A97935E0901C169BA9E20
:103D20001387F9FF3379E900F98E13D404014209AE
:103D3000F98C369933879702CA933303F402B3861A
:103D40009802B3878802B388660093560701C69627
:103D500063F36600CE9793D80601C169B38FF8006C
:103D60009387F9FFFD8E7D8FB3889202C206BA96C3
:103D7000B3075402B3049F0233038F02BE9413D4DB
:103D80000801A29463F3F4004E93C167FD1733F763
:103D9000F400B3F8F80042071E9E469733392E010F
:103DA000769733042701369EB336DE00B308F4015C
:103DB000338FD8003337D70133342401598CC18075
:103DC000B3B8F801B336DF002694B3E6D8003694D2
:103DD0001A9493577F0126045D8C93179E00CD8F14
:103DE000B337F000135E7E0113179F00B3E7C701DE
:103DF000D98F131774006358070A13D71700858BE0
:103E0000D98F1317F401D98F05809306F83F635EAD
:103E1000D00813F7770001CF13F7F7009145630837
:103E2000B70013874700B337F7003E94BA871317DC
:103E3000740063580700370700FF7D17798C9306DD
:103E400008401307E07F634CD70E13D73700931752
:103E5000D401D98F0D80320413F7F67F52073180D9
:103E6000598C7E063367C400B250225492540259D2
:103E7000F249624AD24A424BB24B3E85BA8545610D
:103E8000828052862684CA875E8789466309D70A5C
:103E90008D46630FD7088546E319D7F6014481475D
:103EA0009DA05686DDB72A888DB78545958D130769
:103EB0008003E345B7FE7D476349B7041308E84133
:103EC00033170401B3D6B700B3970701558FB33743
:103ED000F000D98F3354B40013F7770001CF13F7F4
:103EE000F70091466308D70013874700B337F70000
:103EF0003E94BA8713178400634807041317D4014C
:103F00008D83D98F0D808146B9B70557158F13055D
:103F100000023357E40081466386A5001308E84396
:103F2000B3160401D58FB337F000D98F01446DB7B4
:103F30003704080081479306F07F014629BF0144FA
:103F400081479306F07F01BF01448147854621B731
:103F5000411122C406C62A8421C597000000E780CB
:103F600060201307E041A947098F63C6A702AD4748
:103F7000898F5505B357F4003314A4002285B2404D
:103F80002244B2071377F77F5207B183B3E6E70005
:103F9000B685410182805515B317A4000144F9BFCD
:103FA00081470147E1BF011106CE22CC26CA4AC88B
:103FB0004EC652C4B367B500638607142A842E899F
:103FC000AE84BDC52E8597000000E780A019AA89A0
:103FD000130AE043330A3A419307304363C7470764
:103FE000AD47228563D337039307A00263C9370522
:103FF0009305B002938759FFB3853541B355B4009B
:10400000B314F900CD8C3315F4009395C400F2403D
:104010006244137AFA7F520AB181B3E745012A87D5
:10402000D2444249B249224A3A85BE85056182801E
:1040300097000000E78000139309050251BF9385A4
:1040400059FDB314B4000145C9B79307604363D960
:104050004703138689032285CA8597000000E780FD
:10406000C00DC98D2146B334B0002285CA85330600
:10407000364197000000E780A00933E4A4002E89B0
:10408000A147228563D437039307700263C63707BD
:1040900093058002938789FFB38535413319F90071
:1040A000B355B40033E925013315F400B70780FF99
:1040B000FD17B375F9009377750081CF9377F500FD
:1040C00011476388E7009307450033B5A700AA9519
:1040D0003E859397850063DA0700B70780FFFD17D9
:1040E000130AF043FD8D330A3A410D819397D501B0
:1040F0005D8D93D4350011BF138989FD33192401D7
:1041000001456DB781440145014A01B701CE9307CE
:104110000002918F6349F000130506FE014733D575
:10412000A500BA85828033D7C5003355C500B39545
:10413000F5004D8DFDB701CE93070002918F6349C5
:10414000F000930506FE0147B315B5003A8582805D
:104150003317C500B395C5003355F500C98DFDB7BC
:10416000C1676376F5029307F00FB3B7A7008E0718
:10417000130700021D8FB357F50017D5FFFF130576
:10418000658BAA9703C507003305A74082803707D0
:104190000001C147E36EE5FCE147D9BFAA8581462E
:1041A0000146014517030000670043134111814593
:1041B00022C406C62A8497000000E780401997C7EA
:1041C000FF179387272988435C5D91C382972285D7
:1041D00097D0FFFFE78000D9411122C49707000064
:1041E00093874723170400001304C4221D8C06C6BE
:1041F00026C2098411C893142400F114BE949C4073
:104200007D14F114829765FCB2402244924441012E
:104210008280411122C44AC0170400001304441FC5
:10422000170900001309C91E3309894006C626C2B2
:10423000135929406309090081441C408504110475
:104240008297E31C99FE170400001304641C1709ED
:1042500000001309291C33098940135929406309B7
:10426000090081441C40850411048297E31C99FED7
:10427000B2402244924402494101828097C7FF170D
:104280009387071DB2862E86AA85884317030000F0
:1042900067008300AE87411122C4B2852A84368626
:1042A0003E8506C697C7FF1723A0075C97D0FFFF80
:1042B000E78080D6FD576306F500B24022444101F5
:1042C000828097C7FF179387275A9C43FDD71CC04E
:1042D000B24022444101828097C7FF179387871716
:1042E000984383278714A1C3D8437D48634DE804CE
:1042F000131827001DC1338307012324C30883A893
:10430000871805463316E600B3E8C80023A417193A
:104310002324D3108946630DD5000507D8C3C2975F
:104320008CC7014582809307C7142324F7146DBFFF
:1043300083A6C7180507D8C3558E23A6C718C297EA
:104340008CC7014582807D558280797197C7FF17A0
:104350009387471062C403AC07004ECE52CC56CAB6
:104360005AC806D622D426D24AD05EC6AA8A2E8B36
:10437000054AFD5903298C1463040902832449006A
:104380001384F4FF634E04008A04CA9463060B028C
:1043900083A74410638267037D14F114E31834FF8C
:1043A000B250225492540259F249624AD24A424BC4
:1043B000B24B224C4561828083274900D440FD17CF
:1043C0006380870423A20400E1DA83278918331766
:1043D0008A00832B4900F98F99EB82968327490045
:1043E000E39A77F983278C14E38827FB61B7832747
:1043F000C91883A544087D8F19E756858296F9BFB1
:0C44000023228900D1B72E858296C9BF07
:04440C00C60C0008D2
:104410000700000008000020AA55AA55AA55AA5571
:10442000AA00020000FFFF8F00000007000000004C
:10443000000000000C03002074030020DC030020B7
:10444000000000000000000000000000000000006C
:10445000000000000000000000000000000000005C
:10446000000000000000000000000000000000004C
:10447000000000000000000000000000000000003C
:10448000000000000000000000000000000000002C
:10449000000000000000000000000000000000001C
:1044A000000000000000000000000000000000000C
:1044B00000000000000000000000000000000000FC
:1044C00000000000000000000000000000000000EC
:1044D00000000000000000000100000000000000DB
:1044E0000E33CDAB34126DE6ECDE05000B000000A0
:1044F00000000000000000000000000000000000BC
:1045000000000000000000000000000000000000AB
:10451000000000000000000000000000000000009B
:10452000000000000000000000000000000000008B
:10485000000000000000000000F36F0620000020B0
:044860002000002014
:040000050800015C92
:00000001FF
