:020000040800F2
:10000000B1AA010000000000000000000000000094
:1000100000000000000000000000000000000000E0
:1000200000000000000000000000000000000000D0
:1000300000000000000000000000000000000000C0
:1000400000000000000000000000000000000000B0
:1000500000000000000000000000000000000000A0
:100060000000000000000000000000000000000090
:100070000000000000000000000000000000000080
:100080000000000000000000000000000000000070
:100090000000000000000000000000000000000060
:1000A0000000000000000000000000000000000050
:1000B0000000000000000000000000000000000040
:1000C0000000000000000000000000000000000030
:1000D0000000000000000000000000000000000020
:1000E0000000000000000000000000000000000010
:1000F0000000000000000000000000000000000000
:1001000000000000000000000000000000000000EF
:1001100000000000000000000000000000000000DF
:1001200000000000000000000000000000000000CF
:1001300000000000000000000000000000000000BF
:1001400000000000000000000000000000000000AF
:100150000000000000000000000000007370043088
:10016000170500001305C5FF8545F605637BB5003F
:1001700089816378B500170500001305C5002E9529
:1001800002859302002073A0027D970200009382F3
:1001900062E773907230973200009382E21E739090
:1001A000C27E73E0C07E973200009382A2157390E6
:1001B000523097110018938161A91781001813011B
:1001C00061E4174500001305E54097050018938585
:1001D00065E3170600181306262863FAC500832274
:1001E000050023A0550011059105E3EAC5FE17059A
:1001F0000018130565269705001893852567637712
:10020000B500232005001105E36DB5FE73F0023241
:10021000174500001305851897400000E78040143B
:1002200097400000E780201B97100000E780408681
:100230000145814597000000E780402817430000F2
:100240006700031301A073E00232828073F0023270
:0402500082800000A8
:100280000A50726F6772616D2068617320657869CA
:10029000746564207769746820636F64653A000050
:1002A000307800006E6D690A0000000074726170A1
:1002B0000A00000000000000000000000040AF4005
:1002C0003A2A0008802A0008D22A0008282B0008B1
:1002D0007E2B0008D62B00082E2C0008862C000848
:1002E000DE2C0008362D0008DE2900088C2D0008C1
:1002F000A02D0008F22900080A2A0008222A000876
:100300000100000004000000070000000E000000D3
:1003100002000000050000000800000000000000CE
:100320000300000006000000090000000F000000AC
:100330000A0000000B0000000C0000000D0000008F
:10034000C8380000183800001E38000018380000B7
:10035000BA380000183800001E380000C838000005
:10036000C8380000BA3800001E380000FE37000010
:10037000FE370000FE37000022380000CE3C0000AF
:10038000CE3C0000E63C0000C83C0000C83C000039
:10039000743D0000E63C0000C83C0000743D0000D5
:1003A000C83C0000E63C0000C63C0000C63C000023
:1003B000C63C0000743D0000000102020303030379
:1003C00004040404040404040505050505050505E5
:1003D00005050505050505050606060606060606C5
:1003E00006060606060606060606060606060606AD
:1003F0000606060606060606070707070707070795
:10040000070707070707070707070707070707077C
:10041000070707070707070707070707070707076C
:10042000070707070707070707070707070707075C
:100430000707070707070707080808080808080844
:10044000080808080808080808080808080808082C
:10045000080808080808080808080808080808081C
:10046000080808080808080808080808080808080C
:1004700008080808080808080808080808080808FC
:1004800008080808080808080808080808080808EC
:1004900008080808080808080808080808080808DC
:1004A00008080808080808080808080808080808CC
:1004B0000808080808080808B70700087571938736
:1004C000073006C722C526C34AC198009386070491
:1004D00003A80700C8438C47D0472320070148C31F
:1004E0000CC750C7C1074107E394D7FEFD573ECE66
:1004F0003ED03ED23ED43ED63EDC3EDE02D802DACC
:1005000097300000E78080F697300000E78020FAFF
:1005100097300000E780200197300000E7806008F6
:10052000014597100000E780A09F97100000E7802A
:10053000C0A141651305058097200000E780A01D3C
:1005400013094103041897000000E78020649730E6
:100550000000E780C0F465D997300000E78020F9FB
:1005600097300000E78040FF97300000E78080066A
:10057000931725002A871401B6970545E34507FC24
:1005800003A407FCA28597300000E7804000930891
:10059000C1024AC226C01308C1033C1838105410C7
:1005A00010106C08228597200000E780604161BF31
:1005B000970700F8938707A589CB17450000130517
:1005C000E5DD174300006700A3D9828093F705019A
:1005D00093F8F50099C3B3E8C8008147854E3D4EB6
:1005E000930F8002930280042143139627003397D0
:1005F000FE003318CE00758F1348F8FF3396C800FD
:1006000001CF032F05003378E80133660601638FBD
:10061000F5056389550410C18507E39867FC854E8D
:100620003D4E930F800293028004414313972700AD
:1006300001173396FE003318EE00758E1348F8FF4D
:100640003397E80001CE032F45003378E801336784
:100650000701638FF5016389550058C18507E3974A
:1006600067FC828018C945BF10C9C5BF58C965B7A6
:1006700050C9E5B70CC982804CC98280B7170240C7
:10068000135765003E9714438547B397A700D58F4E
:100690001CC382802320050023220500232405009B
:1006A00023260500232A0500232C05008280D4413F
:1006B0009C41984583A8C50003A80501D58FD98F13
:1006C000D449B3E717011841904DB3E70701D58F1F
:1006D0008D6693860604758FD18FD98F1CC15C4DB2
:1006E0007D771307F77FF98F5CCD82801C4193E7FC
:1006F00007041CC182804CC582801C410967D98FC8
:100700001CC10CC9828008456D8D3335A0008280E4
:1007100093F5F51F4CC1828093D7650093F7F73F9F
:100720003E9508413355B50005898280B7170240D0
:100730009843B706FFE0B1061367170098C3D84384
:100740003706F7EA7D16758FD8C39843B706F7FECC
:10075000FD16758F98C39843B706FCFFFD16758F7D
:1007600098C3D843B70601DFFD16758FD8C323A6FB
:10077000070294433707FF00C165F18E94C398C701
:1007800098439386F5FF371602404D8F98C311A00A
:1007900099C61C42FD161397E700E35B07FEB717E7
:1007A000024098439316E70063D0060AD843370601
:1007B000C4DF7D16D8C3D843B7160240D8C3D84388
:1007C00013670740D8C3D843718FD8C3D8433706BF
:1007D0002920518FD8C3D8573D76718FD8D7D85795
:1007E0004166130616F1518FD8D798433706000497
:1007F000518F98C39C4213974700E35D07FE9C42CC
:100800003706001037170240D18F9CC21C439396C5
:100810002700E3DD06FE144337060001B717024048
:10082000D18E14C3984393166700E3DD06FED843C8
:10083000B7160240719BD8C3D84313672700D8C3AB
:10084000DC42A18BF5DF828001A0B7070008938707
:10085000072803AF070083AE470003AE870003A35A
:10086000C70083A8070103A84701944F03D7C70116
:1008700083C7E7017971794622D48A852A8409459C
:1008800006D67AC076C272C41AC646C842CA36CCE8
:10089000231EE100230FF10097400000E78040BADB
:1008A000A285094597000000E780C00AB705000847
:1008B00005469385052B094597400000E78040B821
:1008C00001A0411122C43744014026C29375F50F9F
:1008D000AA841305048006C6130404809700000050
:1008E000E78040E39D45228597000000E78000E314
:1008F00075D9B2402244268592444101828001117B
:100900004EC606CE22CC26CA4AC8B28915C22E844B
:100910003389C500A944034504000504970000007D
:10092000E78060FA8347F4FF638C9700E31524FFA8
:10093000F24062444E85D2444249B2490561828008
:10094000354597000000E78000F8E31624FDCDB799
:10095000797156CAAE8AB705000809469385052AFB
:1009600022D426D24AD04ECE52CC06D62A8A714400
:1009700097400000E780C0ACBD492549F15405A06F
:1009800093F7F60F711405469305F1005285A307FE
:10099000F10097400000E780A0AA630F9402B3978C
:1009A0008900B3F75701B3D7870093F7F70F938602
:1009B000070313877703E375F9FC9377F70F711437
:1009C00005469305F1005285A307F100974000000A
:1009D000E78000A7E31594FCB250225492540259C8
:1009E000F249624AD24A45618280B70700D1D843B2
:1009F0008843CC43E39DE5FE8280370700D2230085
:100A000007001205B71700D2A30507003E9563F74C
:100A1000A70023A00700C107E3EDA7FE8280F3270C
:100A2000503093F707FC93E737007390573082807C
:100A3000B7050008411115469385452A054506C6A8
:100A400097400000E780C09F054597000000E780C1
:100A500000E041119347F5FF22C406C613974701F2
:100A60002A8405C3B705000815469385C52A0545A0
:100A700097400000E780C09C228597000000E78037
:100A800000DD97000000E780E0FAE9BF411106C6EB
:100A900097000000E780C0C91305700597000000AB
:100AA000E780E0F597000000E780A0F7B240410141
:100AB00017F3FFFF67006379828079714AD04ECEC9
:100AC0005EC606D622D426D252CC56CA5AC862C4B2
:100AD00066C2AA8B97000000E78060F12A89AE8980
:100AE00097000000E780A0F02A84AE846314A90078
:100AF000E388B9FEB707000803A9872B83A9C72B92
:100B0000370B002097000000E78060EEAA87018D78
:100B1000B3B7A700858D9D8D97300000E780E06416
:100B20002A8A03258B44AE8A97300000E780805ED6
:100B30004A86CE8697300000E78060BA2A8C5E85B0
:100B4000AE8C97300000E780E05C2A86AE86628536
:100B5000E68597300000E78020172A86AE8652850A
:100B6000D68597300000E780E00BE34D05F8B250E2
:100B7000225492540259F249624AD24A424BB24B31
:100B8000224C924C45618280411122C437040020DE
:100B900013048445B7070020184083A7C74506C63D
:100BA00026C26309F70837450040894513050580CB
:100BB00097000000E78060B511E5B24022449244FE
:100BC0004101828089653715014097000000E78068
:100BD000E0AA1C40B7040020938404468A07A69725
:100BE00098439307F00FA1653715014063CFE704E1
:100BF00097000000E78080A81C403745004013059F
:100C0000058013972700BA9483C5040085071CC08C
:100C100097000000E78060AE1C40B240924413D7BA
:100C2000F7416183BA9793F7F70F998F1CC022445D
:100C3000410182802244B2409244896537150140C7
:100C4000410117030000670023A397000000E7801D
:100C5000A0A25DB7011122CC370400201304C445C3
:100C6000104026CAB7040020130716009357F74117
:100C7000E183938484453E978C401377F70F4EC6EB
:100C800052C406CE135A85404AC8B307F740AA8912
:100C9000130A0A106395B70297000000E78000EF7F
:100CA00010408C40130716009357F74193D68701E5
:100CB000B307D70093F7F70F958FE38FB7FC9386B1
:100CC000170013D7F6411355870137090020130980
:100CD00009460A063387A6004A961377F70F93F959
:100CE000F90F232046011CC0098F938909106393D3
:100CF000E50297000000E78060E91C409040138700
:100D000017009356F741E18236971377F70F158F47
:100D1000E301C7FE18C0F24062448A07CA9723A0C5
:100D20003701D2444249B249224A05618280797131
:100D300022D4370400201304C4450328040056CAF3
:100D4000B70A0020130718009357F74193D887017B
:100D5000938A8A45B307170103A70A0093F7F70F91
:100D60004AD04ECE5AC85EC606D626D252CCB387DB
:100D70001741AA8BAE89328B36896395E7029700BB
:100D80000000E780A0E00328040083A60A00930780
:100D9000180013D7F7416183BA9793F7F70F998F2C
:100DA000E38FD7FC370A0020130A4A4503452A007F
:100DB000B7040020938404460A081307A00226986B
:100DC0005E952320E8001CC097000000E780C0E883
:100DD00003452A005A9597000000E780E0E7144099
:100DE00083A50A00138716009357F74113D687018E
:100DF000B307C70093F7F70F918F6394B70297007B
:100E00000000E780A0D8144003A60A0093871600CC
:100E100013D7F7416183BA9793F7F70F998FE38060
:100E2000C7FE03453A008A06A6961307B0024E9500
:100E300098C21CC097000000E78000E203453A001A
:100E40004A9597000000E78020E1144083A50A003E
:100E5000138716009357F74113D68701B307C700CE
:100E600093F7F70F918F6394B70297000000E78024
:100E7000E0D1144003A60A009387160013D7F74168
:100E80006183BA9793F7F70F998FE380C7FE1CC071
:100E9000B25022548A06A6961307C00298C29254F2
:100EA0000259F249624AD24A424BB24B45618280B2
:100EB000797189653715014006D622D497F0FFFF76
:100EC000E780807B480097F0FFFFE780E07C930796
:100ED00040103EC28D47374400403ECC930700206F
:100EE0004C00130504803EC8A1473ECE02C402C692
:100EF00002CA97F0FFFFE780C07B130504809D4581
:100F000097F0FFFFE780A07F1305048097F0FFFFB5
:100F1000E780007EB25022544561828009E9B7071C
:100F2000011A370700208507232AF7448280854766
:100F3000631AF500B70700183707002093871710CA
:100F4000232AF744828001114EC6B70900209389F5
:100F5000494583C7090006CE22CC26CA4AC891E774
:100F6000B707011A850723A0F9001305306097F031
:100F7000FFFFE780E0701305406097F0FFFFE78018
:100F800020701305006097F0FFFFE780606F130586
:100F9000E07097F0FFFFE780A06E37150140B9665B
:100FA0000D46E145130505C097F0FFFFE78040625D
:100FB000A9660D46C1453715014097F0FFFFE78050
:100FC000206197000000E780E0EEA9653715014039
:100FD000B70400203704002097F0FFFFE780006A85
:100FE000938484451304C44598401C40630AF70069
:100FF00097000000E78080B998401C40E31AF7FE94
:101000001305400697000000E78060AB14408C4059
:10101000138716009357F74113D68701B307C7000C
:1010200093F7F70F918F6393B70297000000E78063
:10103000E0B5144090409387160013D7F7416183C1
:10104000BA9793F7F70F998FE381C7FE3707002010
:10105000130907468A06CA96054798C21CC097001E
:101060000000E780A0B298401C40E31AF7FE130589
:10107000800797000000E78080A414408C4013870D
:1010800016009357F74113D68701B307C70093F7AC
:10109000F70F918F6393B70297000000E78000AFCE
:1010A000144090409387160013D7F7416183BA9795
:1010B00093F7F70F998FE381C7FE8A06CA964547D3
:1010C00098C21CC097000000E78040AC98401C40CC
:1010D000E31AF7FE1305400697000000E780209E04
:1010E00083C7190099E76F10605D97000000E780E3
:1010F000E0A90C409C40138715009356F74113D686
:101100008601B306C70093F6F60F918EE38FF6FCC7
:101110008A05CA951307200298C1138716009355B4
:10112000F74113D68501B305C70093F5F50F14C039
:10113000918D6394F5006F10205B13871500135693
:10114000F741135586013306A7008A06CA9613761F
:10115000F60F1307100B98C20CC0098E6395C702D7
:1011600097000000E78080A20C409C401387150088
:101170001356F741935686013306D7001376F60FC0
:10118000158EE30FF6FC130716009356F74113D59F
:101190008601B306A7008A05CA9593F6F60F1307D2
:1011A000501098C110C0898E6395D7029700000037
:1011B000E780C09D10409C40130716009356F741EE
:1011C00093D58601B306B70093F6F60F8D8EE38FA5
:1011D000F6FC138716009355F74113D58501B30527
:1011E000A7000A064A9693F5F50F1307A01318C235
:1011F00014C0898D6395B70297000000E7800099BD
:1012000014409C40138716009355F74113D685016F
:10121000B305C70093F5F50F918DE38FF5FC1387A8
:1012200015001356F741135586013306A7008A06A9
:10123000CA961376F60F1307A01398C20CC0098E36
:101240006395C70297000000E78040940C409C40E3
:10125000138715001356F741935686013306D700BE
:101260001376F60F158EE30FF6FC13071600935650
:10127000F74113D58601B306A7008A05CA9593F6F0
:10128000F60F1307200B98C110C0898E6395D70203
:1012900097000000E780808F10409C4013071600E5
:1012A0009356F74193D58601B306B70093F6F60F30
:1012B0008D8EE38FF6FC138716009355F74113D5F7
:1012C0008501B305A7000A064A9693F5F50F1307A3
:1012D000501018C214C0898D6395B70297000000A2
:1012E000E780C08A14409C40138716009355F7414D
:1012F00013D68501B305C70093F5F50F918DE38FE4
:10130000F5FC138715001356F74113558601330674
:10131000A7008A06CA961376F60F1307A01398C281
:101320000CC0098E6395C70297000000E780008615
:101330000C409C40138715001356F74193568601C5
:101340003306D7001376F60F158EE30FF6FC13075E
:1013500016009356F74113D58601B306A7008A05F8
:10136000CA9593F6F60F1307A01398C110C0898E83
:101370006395D70297000000E780408110409C40B1
:10138000130716009356F74193D58601B306B700AD
:1013900093F6F60F8D8EE38FF6FC138716009355A8
:1013A000F74113D58501B305A7000A064A9693F5C0
:1013B000F50F1307300B18C214C0898D6395B7025F
:1013C00097F0FFFFE780807C14409C401387160055
:1013D0009355F74113D68501B305C70093F5F50F73
:1013E000918DE38FF5FC138715001356F7411355C4
:1013F00086013306A7008A06CA961376F60F1307EE
:10140000501098C20CC0098E6395C70297F0FFFF79
:10141000E780C0770C409C40138715001356F741B6
:10142000935686013306D7001376F60F158EE30F19
:10143000F6FC130716009356F74113D58601B30641
:10144000A7008A05CA9593F6F60F1307A01398C153
:1014500010C0898E6395D70297F0FFFFE780007375
:1014600010409C40130716009356F74193D5860110
:10147000B306B70093F6F60F8D8EE38FF6FC138755
:1014800016009355F74113D58501B305A7000A0649
:101490004A9693F5F50F1307A01318C214C0898D4F
:1014A0006395B70297F0FFFFE780406E14409C40C1
:1014B000138716009355F74113D68501B305C7006E
:1014C00093F5F50F918DE38FF5FC138715001356F7
:1014D000F741135586013306A7008A06CA9613768C
:1014E000F60F1307501098C20CC0098E6395C702FF
:1014F00097F0FFFFE78080690C409C401387150040
:101500001356F741935686013306D7001376F60F2C
:10151000158EE30FF6FC130716009356F74113D50B
:101520008601B306A7008A05CA9593F6F60F13073E
:10153000A01398C110C0898E6395D70297F0FFFF62
:10154000E780C06410409C40130716009356F74193
:1015500093D58601B306B70093F6F60F8D8EE38F11
:10156000F6FC138716009355F74113D58501B30593
:10157000A7000A064A9693F5F50F1307A01318C2A1
:1015800014C0898D6395B70297F0FFFFE780006074
:1015900014409C40138716009355F74113D68501DC
:1015A000B305C70093F5F50F918DE38FF5FC138715
:1015B00015001356F741135586013306A7008A0616
:1015C000CA961376F60F1307400B98C20CC0098E0B
:1015D0006395C70297F0FFFFE780405B0C409C409B
:1015E000138715001356F741935686013306D7002B
:1015F0001376F60F158EE30FF6FC130716009356BD
:10160000F74113D58601B306A7008A05CA9593F65C
:10161000F60F1307301098C110C0898E6395D7025A
:1016200097F0FFFFE780805610409C40130716009C
:101630009356F74193D58601B306B70093F6F60F9C
:101640008D8EE38FF6FC138716009355F74113D563
:101650008501B305A7000A064A9693F5F50F13070F
:10166000000C18C214C0898D6395B70297F0FFFF74
:10167000E780C05114409C40138716009355F741F2
:1016800013D68501B305C70093F5F50F918DE38F50
:10169000F5FC138715001356F741135586013306E1
:1016A000A7008A06CA961376F60F1307201698C26B
:1016B0000CC0098E6395C70297F0FFFFE780004DCD
:1016C0000C409C40138715001356F7419356860132
:1016D0003306D7001376F60F158EE30FF6FC1307CB
:1016E00016009356F74113D58601B306A7008A0565
:1016F000CA9593F6F60F1307201098C110C0898E73
:101700006395D70297F0FFFFE780404810409C4068
:10171000130716009356F74193D58601B306B70019
:1017200093F6F60F8D8EE38FF6FC13871600935514
:10173000F74113D58501B305A7000A064A9693F52C
:10174000F50F1307401018C214C0898D6395B702B6
:1017500097F0FFFFE780804314409C4013871600FA
:101760009355F74113D68501B305C70093F5F50FDF
:10177000918DE38FF5FC138715001356F741135530
:1017800086013306A7008A06CA961376F60F13075A
:10179000100C98C20CC0098E6395C70297F0FFFF2A
:1017A000E780C03E0C409C40138715001356F7415C
:1017B000935686013306D7001376F60F158EE30F86
:1017C000F6FC130716009356F74113D58601B306AE
:1017D000A7008A05CA9593F6F60F1307001C98C157
:1017E00010C0898E6395D70297F0FFFFE780003A1B
:1017F00010409C40130716009356F74193D586017D
:10180000B306B70093F6F60F8D8EE38FF6FC1387C1
:1018100016009355F74113D58501B305A7000A06B5
:101820004A9693F5F50F1307200C18C214C0898D42
:101830006395F50297F0FFFFE780403514409C4028
:10184000138716009355F74113D68501B305C700DA
:1018500093F5F50F918DE38FF5FC13871500135663
:10186000F741135586013306A7008A06CA961376F8
:10187000F60F1307D01098C20CC0098E6395C702EB
:1018800097F0FFFFE78080300C409C4013871500E5
:101890001356F741935686013306D7001376F60F99
:1018A000158EE30FF6FC130716009356F74113D578
:1018B0008601B306A7008A05CA9593F6F60F1307AB
:1018C000001098C110C0898E6395F60297F0FFFF53
:1018D000E780C02B10409C40130716009356F74139
:1018E00093D58601B306B70093F6F60F8D8EE38F7E
:1018F000F6FC138716009355F74113D58501B30500
:10190000A7000A064A9693F5F50F1307300C18C284
:1019100014C0898D6395B70297F0FFFFE780002719
:1019200014409C40138716009355F74113D6850148
:10193000B305C70093F5F50F918DE38FF5FC138781
:1019400015001356F741135586013306A7008A0682
:10195000CA961376F60F1307D01898C20CC0098EDA
:101960006315F60297F0FFFFE78040220C409C4091
:10197000138715001356F741935686013306D70097
:101980001376F60F158EE30FF6FC13071600935629
:10199000F74113D58601B306A7008A05CA9593F6C9
:1019A000F60F1307A01698C110C0898E6395D70251
:1019B00097F0FFFFE780801D10409C401307160042
:1019C0009356F74193D58601B306B70093F6F60F09
:1019D0008D8EE38FF6FC138716009355F74113D5D0
:1019E0008501B305A7000A064A9693F5F50F13077C
:1019F000400C18C214C0898D6395F50297F0FFFF63
:101A0000E780C01814409C40138716009355F74197
:101A100013D68501B305C70093F5F50F918DE38FBC
:101A2000F5FC138715001356F7411355860133064D
:101A3000A7008A06CA961376F60F1307D01898C225
:101A40000CC0098E6395C70297F0FFFFE780001472
:101A50000C409C40138715001356F741935686019E
:101A60003306D7001376F60F158EE30FF6FC130737
:101A700016009356F74113D58601B306A7008A05D1
:101A8000CA9593F6F60F1307E01E98C110C0898E11
:101A90006395F60297F0FFFFE780400F10409C40EF
:101AA000130716009356F74193D58601B306B70086
:101AB00093F6F60F8D8EE38FF6FC13871600935581
:101AC000F74113D58501B305A7000A064A9693F599
:101AD000F50F1307500C18C214C0898D6395B70217
:101AE00097F0FFFFE780800A14409C4013871600A0
:101AF0009355F74113D68501B305C70093F5F50F4C
:101B0000918DE38FF5FC138715001356F74113559C
:101B100086013306A7008A06CA961376F60F1307C6
:101B2000E01098C20CC0098E6315F60297F0FFFF13
:101B3000E780C0050C409C40138715001356F74101
:101B4000935686013306D7001376F60F158EE30FF2
:101B5000F6FC130716009356F74113D58601B3061A
:101B6000A7008A05CA9593F6F60F1307000E98C1D1
:101B700010C0898E6395D70297F0FFFFE7800001C0
:101B800010409C40130716009356F74193D58601E9
:101B9000B306B70093F6F60F8D8EE38FF6FC13872E
:101BA00016009355F74113D58501B305A7000A0622
:101BB0004A9693F5F50F1307001118C214C0898DCA
:101BC0006395F50297F0FFFFE78040FC14409C40CE
:101BD000138716009355F74113D68501B305C70047
:101BE00093F5F50F918DE38FF5FC138715001356D0
:101BF000F741135586013306A7008A06CA96137665
:101C0000F60F1307E01098C20CC0098E6395C70247
:101C100097F0FFFFE78080F70C409C40138715008A
:101C20001356F741935686013306D7001376F60F05
:101C3000158EE30FF6FC130716009356F74113D5E4
:101C40008601B306A7008A05CA9593F6F60F130717
:101C5000201098C110C0898E6395F60297F0FFFF9F
:101C6000E780C0F210409C40130716009356F741DE
:101C700093D58601B306B70093F6F60F8D8EE38FEA
:101C8000F6FC138716009355F74113D58501B3056C
:101C9000A7000A064A9693F5F50F1307301018C2ED
:101CA00014C0898D6395B70297F0FFFFE78000EEBF
:101CB00014409C40138716009355F74113D68501B5
:101CC000B305C70093F5F50F918DE38FF5FC1387EE
:101CD00015001356F741135586013306A7008A06EF
:101CE000CA961376F60F1307E01098C20CC0098E3F
:101CF0006315F60297F0FFFFE78040E90C409C4037
:101D0000138715001356F741935686013306D70003
:101D10001376F60F158EE30FF6FC13071600935695
:101D2000F74113D58601B306A7008A05CA9593F635
:101D3000F60F1307701098C110C0898E6395D702F3
:101D400097F0FFFFE78080E410409C4013071600E7
:101D50009356F74193D58601B306B70093F6F60F75
:101D60008D8EE38FF6FC138716009355F74113D53C
:101D70008501B305A7000A064A9693F5F50F1307E8
:101D8000201018C214C0898D6395F50297F0FFFFEB
:101D9000E780C0DF14409C40138716009355F7413D
:101DA00013D68501B305C70093F5F50F918DE38F29
:101DB000F5FC138715001356F741135586013306BA
:101DC000A7008A06CA961376F60F1307701098C2FA
:101DD0000CC0098E6315F60297F0FFFFE78000DB69
:101DE0000C409C40138715001356F741935686010B
:101DF0003306D7001376F60F158EE30FF6FC1307A4
:101E000016009356F74113D58601B306A7008A053D
:101E1000CA9593F6F60F1307A01098C110C0898ECB
:101E20006395F60297F0FFFFE78040D610409C4094
:101E3000130716009356F74193D58601B306B700F2
:101E400093F6F60F8D8EE38FF6FC138716009355ED
:101E5000F74113D58501B305A7000A064A9693F505
:101E6000F50F1307201118C214C0898D6395F50270
:101E700097F0FFFFE78080D114409C401387160045
:101E80009355F74113D68501B305C70093F5F50FB8
:101E9000918DE38FF5FC138715001356F741135509
:101EA00086013306A7008A06CA961376F60F130733
:101EB000701298C20CC0098E6315F60297F0FFFFEE
:101EC000E780C0CC0C409C40138715001356F741A7
:101ED000935686013306D7001376F60F158EE30F5F
:101EE000F6FC130716009356F74113D58601B30687
:101EF000A7008A05CA9593F6F60F1307701398C1C9
:101F000010C0898E6395F60297F0FFFFE78000C846
:101F100010409C40130716009356F74193D5860155
:101F2000B306B70093F6F60F8D8EE38FF6FC13879A
:101F300016009355F74113D58501B305A7000A068E
:101F40004A9693F5F50F1307001018C214C0898D37
:101F50006395F50297F0FFFFE78040C314409C4073
:101F6000138716009355F74113D68501B305C700B3
:101F700093F5F50F918DE38FF5FC1387150013563C
:101F8000F741135586013306A7008A06CA961376D1
:101F9000F60F1307D01098C20CC0098E6315F60215
:101FA00097F0FFFFE78080BE0C409C401387150030
:101FB0001356F741935686013306D7001376F60F72
:101FC000158EE30FF6FC130716009356F74113D551
:101FD0008601B306A7008A05CA9593F6F60F130784
:101FE000E01098C110C0898E6395F60297F0FFFF4C
:101FF000E780C0B910409C40130716009356F74184
:1020000093D58601B306B70093F6F60F8D8EE38F56
:10201000F6FC138716009355F74113D58501B305D8
:10202000A7000A064A9693F5F50F1307001118C288
:1020300014C0898D6395F50297F0FFFFE78000B526
:1020400014409C40138716009355F74113D6850121
:10205000B305C70093F5F50F918DE38FF5FC13875A
:1020600015001356F741135586013306A7008A065B
:10207000CA961376F60F1307100E98C20CC0098E7D
:102080006315F60297F0FFFFE78040B00C409C40DC
:10209000138715001356F741935686013306D70070
:1020A0001376F60F158EE30FF6FC13071600935602
:1020B000F74113D58601B306A7008A05CA9593F6A2
:1020C000F60F1307001198C110C0898E6395F602B0
:1020D00097F0FFFFE78080AB10409C40130716008D
:1020E0009356F74193D58601B306B70093F6F60FE2
:1020F0008D8EE38FF6FC138716009355F74113D5A9
:102100008501B305A7000A064A9693F5F50F130754
:10211000E01018C214C0898D6395F50297F0FFFF97
:10212000E780C0A614409C40138716009355F741E2
:1021300013D68501B305C70093F5F50F918DE38F95
:10214000F5FC138715001356F74113558601330626
:10215000A7008A06CA961376F60F1307301098C2A6
:102160000CC0098E6315F60297F0FFFFE78000A20E
:102170000C409C40138715001356F7419356860177
:102180003306D7001376F60F158EE30FF6FC130710
:1021900016009356F74113D58601B306A7008A05AA
:1021A000CA9593F6F60F1307301098C110C0898EA8
:1021B0006395F60297F0FFFFE780409D10409C403A
:1021C000130716009356F74193D58601B306B7005F
:1021D00093F6F60F8D8EE38FF6FC1387160093555A
:1021E000F74113D58501B305A7000A064A9693F572
:1021F000F50F1307F01018C214C0898D6395F5020E
:1022000097F0FFFFE780809814409C4013871600EA
:102210009355F74113D68501B305C70093F5F50F24
:10222000918DE38FF5FC138715001356F741135575
:1022300086013306A7008A06CA961376F60F13079F
:10224000601098C20CC0098E6315F60297F0FFFF6C
:10225000E780C0930C409C40138715001356F7414C
:10226000935686013306D7001376F60F158EE30FCB
:10227000F6FC130716009356F74113D58601B306F3
:10228000A7008A05CA9593F6F60F1307201098C188
:1022900010C0898E6395F60297F0FFFFE780008FEC
:1022A00010409C40130716009356F74193D58601C2
:1022B000B306B70093F6F60F8D8EE38FF6FC138707
:1022C00016009355F74113D58501B305A7000A06FB
:1022D0004A9693F5F50F1307801018C214C0898D24
:1022E0006395F50297F0FFFFE780408A14409C4019
:1022F000138716009355F74113D68501B305C70020
:1023000093F5F50F918DE38FF5FC138715001356A8
:10231000F741135586013306A7008A06CA9613763D
:10232000F60F1307A01098C20CC0098E6315F602B1
:1023300097F0FFFFE78080850C409C4013871500D5
:102340001356F741935686013306D7001376F60FDE
:10235000158EE30FF6FC130716009356F74113D5BD
:102360008601B306A7008A05CA9593F6F60F1307F0
:10237000301198C110C0898E6395F60297F0FFFF67
:10238000E780C08010409C40130716009356F74129
:1023900093D58601B306B70093F6F60F8D8EE38FC3
:1023A000F6FC138716009355F74113D58501B30545
:1023B000A7000A064A9693F5F50F1307601218C294
:1023C00014C0898D6395F50297E0FFFFE780007CDC
:1023D00014409C40138716009355F74113D685018E
:1023E000B305C70093F5F50F918DE38FF5FC1387C7
:1023F00015001356F741135586013306A7008A06C8
:10240000CA961376F60F1307601398C20CC0098E94
:102410006315F60297E0FFFFE78040770C409C4091
:10242000138715001356F741935686013306D700DC
:102430001376F60F158EE30FF6FC1307160093566E
:10244000F74113D58601B306A7008A05CA9593F60E
:10245000F60F1307001098C110C0898E6395F6021D
:1024600097E0FFFFE780807210409C401307160042
:102470009356F74193D58601B306B70093F6F60F4E
:102480008D8EE38FF6FC138716009355F74113D515
:102490008501B305A7000A064A9693F5F50F1307C1
:1024A000D01018C214C0898D6395F50297E0FFFF24
:1024B000E780C06D14409C40138716009355F74188
:1024C00013D68501B305C70093F5F50F918DE38F02
:1024D000F5FC138715001356F74113558601330693
:1024E000A7008A06CA961376F60F1307E01098C263
:1024F0000CC0098E6315F60297E0FFFFE7800069C4
:102500000C409C40138715001356F74193568601E3
:102510003306D7001376F60F158EE30FF6FC13077C
:1025200016009356F74113D58601B306A7008A0516
:10253000CA9593F6F60F1307001198C110C0898E43
:102540006395F60297E0FFFFE780406410409C40EF
:10255000130716009356F74193D58601B306B700CB
:1025600093F6F60F8D8EE38FF6FC138716009355C6
:10257000F74113D58501B305A7000A064A9693F5DE
:10258000F50F1307A00318C214C0898D6395F502D7
:1025900097E0FFFFE780805F14409C4013871600A0
:1025A0009355F74113D68501B305C70093F5F50F91
:1025B000918DE38FF5FC138715001356F7411355E2
:1025C00086013306A7008A06CA961376F60F13070C
:1025D000501098C20CC0098E6315F60297E0FFFFF9
:1025E000E780C05A0C409C40138715001356F741F2
:1025F000935686013306D7001376F60F158EE30F38
:10260000F6FC9306160013D7F6411355870133875E
:10261000A6008A05CA951377F70F9306600394C145
:1026200010C0098F6315F70297E0FFFFE78000569F
:1026300010409C409306160013D7F641935587012E
:102640003387B6001377F70F0D8FE30FF7FC930571
:10265000170093D6F54113D58601B386A5000A0667
:102660004A9693F6F60F930580170CC218C0898E10
:102670006395F60297E0FFFFE780405118408C40D9
:102680009307170093D6F74113D68601B386C70088
:1026900093F6F60F918EE38FB6FC14C0F2406244BD
:1026A0000A074A97930790021CC3D2444249B24991
:1026B0000561828097E0FFFFE780404D0C409C4021
:1026C000138715009356F74113D68601B306C7004A
:1026D00093F6F60F918EE38FF6FC8A05CA951307E1
:1026E000100298C114C039A097E0FFFFE780004AAC
:1026F00014409C40138716009355F74113D685016B
:10270000B305C70093F5F50F918DE38FF5FC6FE0EE
:10271000DFA2411126C29306F004AA841306F00931
:10272000814501454AC006C622C41309000A97E044
:10273000FFFFE7800060130400057D14268597E005
:10274000FFFFE780605175F87D19E31609FEB2407E
:102750002244924402494101828001114EC656C270
:10276000AE89B68A26CA4AC852C406CE22CC2A8A64
:10277000B2843A8997E0FFFFE780A05B63E03A0309
:10278000528463EA440105044A8597E0FFFFE7802D
:10279000A04CE3FA84FE8509E3F43AFFF240624478
:1027A000D2444249B249224A924A056182807971F3
:1027B0004ECE52CC5AC85EC662C466C206D622D479
:1027C00026D24AD056CA6AC0330BA6403A8CB38B85
:1027D000B640AA892E8A854C63586007054D635E12
:1027E00070075A8463537B015E8401498144814AA6
:1027F000D2864E86D2854E8597E0FFFFE7806053F4
:102800006285DA9497E0FFFFE78000455E996354A4
:102810009400818CE69963552401330989406A9AB2
:1028200093871A0063848A00BE8AD9B7B2502254B3
:1028300092540259F249624AD24A424BB24B224C5C
:10284000924C024D45618280814CE3090BF8330BB9
:102850006041FD5C054DE34670F9014DE3830BF8E3
:10286000B30B70417D5DB5BFB307C6025D71CAC0D1
:102870004EDE52DC56DA5AD886C6A2C4A6C25ED64E
:1028800062D466D26AD06ECE32893EC62A8BAE8AB8
:10289000368A814933843A41330C2B41A286A28582
:1028A0006286628597E0FFFFE780A048528597E047
:1028B000FFFFE780603AB30B6901A286A2855E86BE
:1028C0005E8597E0FFFFE780C046528597E0FFFFF7
:1028D000E7808038B3043B41B30C59012686E68675
:1028E000E685268597E0FFFFE780A044528597E0C4
:1028F000FFFFE7806036B38D2A412686EE86EE859F
:10290000268597E0FFFFE780C042139D190052859E
:1029100097E0FFFFE78040346A94A2865E86A28536
:102920005E8597E0FFFFE780C040528597E0FFFF9C
:10293000E7808032EA94EE862686EE85268597E04B
:10294000FFFFE780003F528597E0FFFFE780C03040
:10295000E6862686E685268597E0FFFFE780603DD0
:10296000528597E0FFFFE780202FA2866286A2852E
:10297000628597E0FFFFE780C03B528597E0FFFF4D
:10298000E780802D850933072903B3873903BA9778
:102990003247B327F7003309F940E35D39EFB6401A
:1029A000264496440649F259625AD25A425BB25BB7
:1029B000225C925C025DF24D616182803D432E8E0D
:1029C000B28EBA853686024F92466363A3023707FA
:1029D00000081307072C0A053A95184102871C4284
:1029E0007D576395E700232008001C4263D1074010
:1029F0008280944103270F00104283A50E00032517
:102A00000E00170300006700C3DA03C60500832623
:102A10000F0083A50E0003250E00170300006700BA
:102A2000E3E4944103270F00104283A50E00032521
:102A30000E0017030000670083D298431545050771
:102A40006302A74498C39843631B076014427D57F1
:102A5000E388E60083270800E3CC07F885072320F6
:102A6000F80009476397E7009C4185079CC18327CD
:102A700008000547E39EE7F61C4285071CC28280DA
:102A80009843154505076307A73698C39843631114
:102A9000076A08427D576307E57E8327080063C302
:102AA000070285072320F80009476397E7009C4148
:102AB000A5079CC18327080005476395E7001C42D2
:102AC000C5071CC283A7080085F79C4285079CC2E6
:102AD00082809843154505076308A73C98C398432F
:102AE000631E076008427D576302E578832708006C
:102AF00063C4070285072320F80009476397E700AE
:102B00009C41C5079CC18327080005476396E700E1
:102B10001C42938717021CC283A70800E39A07ECA4
:102B20009C4289079CC2828098431545050763052E
:102B3000A72E98C398436316076208427D57630621
:102B4000E5748327080063C4070285072320F80083
:102B500009476397E7009C41E5079CC1832708006C
:102B600005476396E7001C42938717031CC283A79F
:102B70000800E39F07E69C428D079CC28280984331
:102B800015450507630CA72A98C39843631E074899
:102B900008427D576305E56E8327080063C5070279
:102BA00085072320F80009476398E7009C41938735
:102BB00017029CC18327080005476396E7001C4263
:102BC000938717041CC283A70800E39307E29C4283
:102BD00091079CC282809843154505076302A72888
:102BE00098C398436316074A08427D57630DE5660C
:102BF0008327080063C5070285072320F8000947DB
:102C00006398E7009C41938797029CC18327080043
:102C100005476396E7001C42938717051CC283A7EC
:102C20000800E39707DC9C4295079CC2828098438A
:102C300015450507630EA72A98C398436310073804
:102C400008427D57630AE5628327080063C50702CF
:102C500085072320F80009476398E7009C41938784
:102C600017039CC18327080005476396E7001C42B1
:102C7000938717061CC283A70800E39B07D69C42D4
:102C800099079CC282809843154505076300A724D5
:102C900098C39843631F073408427D57630CE55A75
:102CA0008327080063C5070285072320F80009472A
:102CB0006398E7009C41938797031CC28327080011
:102CC00005476396E7001C42938717079CC183A7BB
:102CD0000800E39F07D09C429D079CC282809843D6
:102CE000154505076308A72298C39843631D073C51
:102CF00008427D576303E5568327080063C5070232
:102D000085072320F80009476398E7009C419387D3
:102D100017049CC18327080005476396E7001C42FF
:102D2000938717081CC283A70800E39307CC9C4233
:102D3000A1079CC28280984315450507630EA71E14
:102D400098C36312072408427D576304E552832722
:102D5000080063C5070285072320F8000947639828
:102D6000E7009C41938717059CC18327080005470E
:102D70006396E7001C429387070A1CC283A70800DA
:102D8000E39807C69C42A5079CC28280832708005F
:102D9000FD5603270E006384D71C635A0704828004
:102DA00003A708006346071C9C426380074A054747
:102DB0006380E74E09476382E74E0D476385E74E20
:102DC00011476388E74E15476388E74E19476389C3
:102DD000E74E1D47638BE74E2147638DE74E25473E
:102DE000E399E7C09307F01C2320FF00828023A013
:102DF0000800828023A007007D572320EE0023A037
:102E0000EE002320E80018C298C123A0E80023A008
:102E1000060023200F009DB923A007007D57232023
:102E2000EE0023A0EE002320E80018C298C123A0E2
:102E3000E80023A0060023200F00EDB923A007001F
:102E40007D572320EE0023A0EE002320E80018C2C7
:102E500098C123A0E80023A0060023200F0035B36B
:102E600023A007007D572320EE0023A0EE0023209F
:102E7000E80018C298C123A0E80023A00600232080
:102E80000F0085B323A007007D572320EE0023A069
:102E9000EE002320E80018C298C123A0E80023A078
:102EA000060023200F0045B623A007007D572320EE
:102EB000EE0023A0EE002320E80018C298C123A052
:102EC000E80023A0060023200F0011B923A007006B
:102ED0007D572320EE0023A0EE002320E80018C237
:102EE00098C123A0E80023A0060023200F0055B3BB
:102EF00023A007007D572320EE0023A0EE0023200F
:102F0000E80018C298C123A0E80023A006002320EF
:102F10000F0025B323A007007D572320EE0023A038
:102F2000EE002320E80018C298C123A0E80023A0E7
:102F3000060023200F0055BB23A007007D57232048
:102F4000EE0023A0EE002320E80018C298C123A0C1
:102F5000E80023A0060023200F009843DDB318C229
:102F600003A70E0098C123A0FE002320FE0082804C
:102F70007D5798C32320E8002320EE0023A0EE0015
:102F800018C298C182800945631CA70003270E0060
:102F90007D55E31EA7DA1307070A2320EE009843A6
:102FA0008547631AF71E9841FD57E312F7DA83A7A6
:102FB0000E009387170523A0FE0051BB0945631C33
:102FC000A70003270E007D55E310A7C813071706B7
:102FD0002320EE0098438547631CF7209841FD5756
:102FE000E314F7C683A70E009387170323A0FE0000
:102FF000A1B90945631CA70003270E007D55E31105
:10300000A7CA130717072320EE00984385476316C6
:10301000F71A9841FD57E315F7C883A70E00938769
:10302000970323A0FE00ADB90945631CA700032741
:103030000E007D55E312A7B6130717042320EE00F8
:10304000984385476318F71C9841FD57E316F7B47A
:1030500083A70E009387170223A0FE0035BE894682
:10306000631BD70003270E00FD56E315D79E050707
:103070002320EE0098438547631AF7149841FD57C3
:10308000E31AF79C83A70E00850723A0FE00D9B2A0
:103090000945631CA70003270E007D55E31AA7B45A
:1030A000130717052320EE0098438547631BF71489
:1030B0009841FD57E31EF7B283A70E00938797024E
:1030C00023A0FE0035B60945631CA70003270E00A8
:1030D0007D55E313A7C2130717082320EE0098437A
:1030E0008547631EF70E9841FD57E317F7C083A786
:1030F0000E009387170423A0FE00FDBE0945631C44
:10310000A70003270E007D55E312A79E13071702A1
:103110002320EE00984385476317F7109841FD5729
:10312000E316F79C83A70E00C50723A0FE007DBA17
:103130000945631BA70003270E007D55E31FA794D5
:1031400045072320EE00984385476317F70E984103
:10315000FD57E314F79483A70E00A50723A0FE00F4
:103160002DBA0945631CA70003270E007D55E31AFD
:10317000A79C130717032320EE0098438547631588
:10318000F7029841FD57E31EF79A83A70E00E50763
:1031900023A0FE007DB28D47E31BF7BA83A70E0084
:1031A0007D57E396E7BA31B58D47E31CF79883A7BF
:1031B0000E007D57E397E798D9BF8D47E312F7AE2E
:1031C00083A70E007D57E39DE7AC91BD8D47E313C8
:1031D000F78883A70E007D57E39EE78675B58D4778
:1031E000E31CF7B083A70E007D57E397E7B011B754
:1031F0008D47E31BF7A483A70E007D57E396E7A452
:10320000E5B38D47E316F79E83A70E007D57E39144
:10321000E79E6DB58D47E311F79883A70E007D57A4
:10322000E39CE79605BD8D47E312F78C83A70E005C
:103230007D57E39DE78ACDBD8D47E310F78683A7D1
:103240000E007D57E39BE78409BFC167FD1723206C
:10325000FF00828003270E006DB303270E00A5BD7B
:1032600003270E0029B503270E001DBD03270E00FE
:1032700071BD03270E0005B303270E0081BB032792
:103280000E005DBB03270E0065BD03270E00D5B5FC
:10329000C16781172320FF008280C1679387F78170
:1032A0002320FF008280B167938707C42320FF009B
:1032B000828023200F008280FD472320FF00828030
:1032C0009307007E2320FF008280A167FD17232043
:1032D000FF008280A167938707432320FF0082803D
:1032E00000000000000000000000000000000000DE
:1032F00000000000000000000000000000000000CE
:103300005D7106C012C216C41AC61EC82ACA2ECCC7
:1033100032CE36D03AD23ED442D646D872DA76DCB5
:103320007ADEFEC0F322103496C0F322003096C23B
:10333000F322407C96C4732520348A8597D0FFFF02
:10334000E780607186427390123496427390023027
:10335000A6427390427C82401242A2423243C24350
:103360005245E245724682561257A2573258C25809
:10337000525EE25E725F864F616173002030000032
:10338000000000005D7106C012C216C41AC61EC835
:103390002ACA2ECC32CE36D03AD23ED442D646D8E5
:1033A00072DA76DC7ADEFEC073D0E87E7350F97E86
:1033B00073D0B97EF390D07E73700430B6427390B0
:1033C000427CA6427390123496427390223482401B
:1033D0001242A2423243C2435245E24572468256ED
:1033E0001257A2573258C258525EE25E725F864F41
:1033F000616173002030AA82B68E214363C46E00DF
:103400009102E11E8A0E3D433313D3011343F3FFB0
:10341000AE83B3E3C300B393D30103AE0200337EA4
:103420006E00336E7E0023A0C2018280F18D2D8E4E
:103430004206D18D0CC982804CC982804CC58280E5
:103440000C458280B712024003A3C2013363A3007C
:1034500023AE62008280B712024003A3820133636D
:10346000A30023AC62008280711106C04145970021
:103470000000E78060FDB71200401303B00623A4EC
:1034800062021303703E23A6620223A802000543D2
:1034900023A06200824011018280B712004003A580
:1034A000020119C123A802008280711106C02145C2
:1034B00097000000E78060FA37150140130505C04A
:1034C00081450D4681460D4797000000E780E0F2F8
:1034D0008506E39BE6FE82401101828097D2FF17AA
:1034E000938242B2038502008280711106C03715B3
:1034F0000140130505C097D2FF179382A2B08385C0
:103500000200FD1563D305009D452380B2001D46D2
:1035100097000000E780C0F103850200824011019E
:103520008280711106C0214597000000E780E0F21B
:1035300037150140130505C081450D46A146414799
:1035400097000000E78060EB8506E39BE6FE824083
:1035500011018280711106C097D2FF179382C2AA0F
:1035600083A20200AA9237150140130505C083C546
:103570000200A20537060100130606F097000000BE
:10358000E78000EB82401101828097D2FF1793827F
:10359000A2A783A20200AA922380B20082807111A6
:1035A00006C0114597000000E78020EB3715014069
:1035B0001305058081451146954625479700000073
:1035C000E780A0E38506E39BE6FE8240110182804E
:1035D000711106C07D5E97DEFF17938EBEA303A315
:1035E0000E009303F3FF23A07E006397030423A040
:1035F0006E00371501401305058097000000E78035
:1036000060E49581BD898DC985813335B000330370
:10361000A00085813335B0002A9385813335B00011
:103620002A9397000000E780A0EB0A05336EA30001
:103630001303002023A06E00728582401101828056
:1036400097D2FF179382529D23900200828097D2D7
:10365000FF179382729C03D30200A5430503137ED8
:10366000F30063D8C3031903135E4300137EFE0007
:1036700063D1C30313030306135E8300137EFE00AE
:1036800063D9C30113030360135EC30063D3C30193
:10369000014323906200828097D2FF179382D297D2
:1036A00003D50200828097D2FF179382129703A35B
:1036B00002007D1323A06200635003021303F0088D
:1036C00023A0620097D2FF179382029403A3020003
:1036D0001343130023A062008280797113D845013F
:1036E00026D24ECE52CC5AC85EC69394C50006D69A
:1036F00022D44AD056CA1378F87F2A8BB28B368AE6
:10370000B18093D9F501630408089307F07F630E35
:10371000F80C935AD5018E04B3E49A00B70A8000DE
:10372000B3EA540113143500130918C0014B1355A3
:103730004A019314CA001378F57FB180135AFA0135
:103740006308080C9307F07F6301F81213953400A7
:1037500093D7DB015D8DB7048000C98C139F3B00BC
:10376000130518C0814713172B005D8F7D17B946CD
:1037700033C649013308A94063EBE61097D6FFFF33
:10378000938646BC0A073697184336970287B3EAF2
:10379000A40063860A068DCC268597100000E7807A
:1037A00060B8930755FF7147634BF702F54A13045E
:1037B00085FFB38AFA40B3948400B35A5B01B3EA3D
:1037C0009A0033148B001308D0C03309A840B9BF46
:1037D00097100000E78000B513050502D9B79304E0
:1037E00085FDB31A9B000144F9BFB3EAA400638CC2
:1037F0000A002A84A68A1309F07F0D4B0DBF0144ED
:103800000149054B2DB701441309F07F094B05B75A
:1038100033EF740163040F069DC8268597100000DE
:10382000E78040B0930755FF7147634AF702754739
:10383000130F85FF1D8FB394E40133D7EB00D98CB0
:10384000339FEB011306D0C03305A64021BF5E8530
:1038500097100000E78000AD13050502E1B793045F
:1038600085FDB3949B00014FF1BF33EF7401630BEF
:103870000F005E8F1305F07F8D47F5B5814401453C
:103880008547D5B581441305F07F8947E9BD63E6D7
:10389000540163939A2A6361E42B9396FA011357B8
:1038A00014009317F40193DA1A0033E4E600139539
:1038B000840093548F01458D135E0501B3D8CA036C
:1038C00013130501135303011357040193158F00BC
:1038D000B3F4CA03C68FB3061303939A0401336784
:1038E0005701637CD7002A97938FF8FF6367A7007F
:1038F0006375D700938FE8FF2A97158FB35EC703D0
:10390000420441803377C703F686B308D3034207E6
:10391000418F637C17012A979386FEFF6367A70098
:10392000637517019386EEFF2A97C20FB3EFDF008E
:10393000C166330417419388F6FF13DF0F0133F795
:103940001F0193DE0501B3F81501B3031703B30498
:103950001F033387EE02B302DF03330F970013D741
:1039600003017A9763739700B692135F0701169F5E
:10397000C162FD12B3765700C206B3F353009E96A0
:103980006367E401FE84631EE40363FCD702AE9721
:1039900033B7B7002A973A949384FFFF6366850094
:1039A0006311850263EFB7006366E401631B8F0058
:1039B00063F9D700AE9733B7B7002A979384EFFF28
:1039C0003A94B386D7403304E441B3B7D7001D8C93
:1039D0007D5F6305850E335FC40313D7060133741F
:1039E000C403B307E3034204598C7A87637CF40071
:1039F0002A941307FFFF6367A4006375F40013079D
:103A0000EFFF2A941D8C335FC403C206C182337456
:103A1000C403FA873303E3034204558C637C6400D8
:103A20002A949307FFFF6367A400637564009307FC
:103A3000EFFF2A9442075D8F93170701C183330478
:103A4000644013530701338E1703B3081303338302
:103A50006E02B38EFE0293570E01C69EF69763F474
:103A60001701C166369393D807019A9841637D1375
:103A7000B3F66700C206337E6E00F29663661401E9
:103A8000631E14193A8F9DCA2A94130FF7FF6361BE
:103A9000A402636614016312141963FDD5009397A1
:103AA0001500B3B5B7002E95130FE7FF2A94BE8516
:103AB000631414016384B600136F1F001307F83FEB
:103AC0006357E00A93777F0081CF9377FF00914699
:103AD0006388D70093064F0033BFE601FA94368F10
:103AE0009397740063D80700B70700FFFD17FD8C9C
:103AF000130708409307E07F63C8E710135F3F0098
:103B00009397D401B3E7E70113D534003205137757
:103B1000F77F5207B25022543181598D7E063367A8
:103B2000C50092540259F249624AD24A424BB24B02
:103B30003E85BA85456182807D1881478DBB4E8662
:103B4000D684228FDA8709476380E70C0D476386A6
:103B5000E70A0547E394E7F60145814785A85286C1
:103B6000DDB7B7040800014F01468D47E9BF0545A1
:103B7000198D93078003E3C1A7FEFD4763CAA7041D
:103B80001308E841B39704013357AF0033180F010E
:103B9000D98F33380001B3E7070133D5A40013F7F9
:103BA000770001CF13F7F70091466308D70013871A
:103BB0004700B337F7003E95BA8713178500634A6D
:103BC00007041317D5018D83D98F0D8101473DBFA0
:103BD0008557998F93060002B3D7F4000147630617
:103BE000D5001308E84333970401336FE701333FEF
:103BF000E001B3E7E70101455DB7370508008147FC
:103C00001307F07F014619B7014581471307F07F7D
:103C1000F5BD014581470547D5BD7A873A8F69BD16
:103C200013D84501B7071000FD1713D746011378C5
:103C3000F87F930EF07FB3F8B7002A83F58FFD81EC
:103C4000328E1377F77FFD826318D801B3EEA80098
:103C500063850E0689450DA86316D701B3EEC7002C
:103C6000E39A0EFE631D080433E5A8001335150022
:103C700019E35D8E15CE11E5638AD50085C9FD5522
:103C800021A0FD5591C2B6852E858280E34807FFAD
:103C90006354E800F5F9E5B7E3E217FF639CF80029
:103CA000E36E6EFCE368C3FF8145F9BF8545E9BF5C
:103CB00065FDE9B7E3E0F8FEC5BFE30107FB4DFF93
:103CC000014545BF79714ECE93D9450122D426D204
:103CD00052CC56CA5AC89394C50006D64AD05EC67E
:103CE00093F9F97F2A84328BB68AB18013DAF50111
:103CF000638109089307F07F6389F90C9357D50115
:103D00008E04DD8CB7078000DD8C13193500938994
:103D100019C0814B13D54A011394CA001375F57F5E
:103D2000318093DAFA0161C59307F07F630DF510D6
:103D30009357DB010E045D8CB70780005D8C130583
:103D400015C093173B00014793962B00D98E4E95D3
:103D5000FD16B94533465A011308150063E6D51020
:103D600097C5FFFF9385C5618A06AE969442AE96CD
:103D7000828633E9A400630309069DC8268597005F
:103D80000000E780205A130755FFF14763C9E70297
:103D9000F547130985FF998FB3942401B357F400B5
:103DA000DD8C331924019309D0C0B389A94095B79C
:103DB00097000000E780005713050502E9B7930458
:103DC00085FDB31494000149F9BF33E9A400630BE6
:103DD00009002A899309F07F8D4B2DBF81448149C9
:103DE000854B0DBF81449309F07F894B25B7B3679D
:103DF0006401B5C31DC8228597000000E78080528A
:103E0000930655FFF14763CAD7027547930785FFAD
:103E1000158F3314F4003357EB00598CB317FB00A4
:103E20001307D0C03305A74039BF5A85970000005B
:103E3000E780404F13050502E1B7130485FD3314F5
:103E40008B008147F1BFB367640191CBDA8713051B
:103E5000F07F0D47D5BD014401450547F5B5014447
:103E60001305F07F0947CDB5416F930EFFFF135740
:103E7000090193D807013379D901B3F7D701B38585
:103E80002803B3862703B30FF7023383F50193D5D5
:103E900006019A95330E170363F3F5017A9E93D3C7
:103EA0000501B3F5D501B3F6D601135F0401B37272
:103EB000D401C205B695B30E5702B3862203330967
:103EC0002F033303D90113D906011A993307E703E6
:103ED0006374D90141631A97935E0901C169BA9E5F
:103EE0001387F9FF3379E900F98E13D404014209ED
:103EF000F98C369933879702CA933303F402B38659
:103F00009802B3878802B388660093560701C69665
:103F100063F36600CE9793D80601C169B38FF800AA
:103F20009387F9FFFD8E7D8FB3889202C206BA9601
:103F3000B3075402B3049F0233038F02BE9413D419
:103F40000801A29463F3F4004E93C167FD1733F7A1
:103F5000F400B3F8F80042071E9E469733392E014D
:103F6000769733042701369EB336DE00B308F4019A
:103F7000338FD8003337D70133342401598CC180B3
:103F8000B3B8F801B336DF002694B3E6D800369410
:103F90001A9493577F0126045D8C93179E00CD8F52
:103FA000B337F000135E7E0113179F00B3E7C7011C
:103FB000D98F131774006358070A13D71700858B1E
:103FC000D98F1317F401D98F05809306F83F635EEC
:103FD000D00813F7770001CF13F7F7009145630876
:103FE000B70013874700B337F7003E94BA8713171B
:103FF000740063580700370700FF7D17798C93061C
:1040000008401307E07F634CD70E13D73700931790
:10401000D401D98F0D80320413F7F67F5207318017
:10402000598C7E063367C400B25022549254025910
:10403000F249624AD24A424BB24B3E85BA8545614B
:10404000828052862684CA875E8789466309D70A9A
:104050008D46630FD7088546E319D7F6014481479B
:104060009DA05686DDB72A888DB78545958D1307A7
:104070008003E345B7FE7D476349B7041308E84171
:1040800033170401B3D6B700B3970701558FB33781
:10409000F000D98F3354B40013F7770001CF13F732
:1040A000F70091466308D70013874700B337F7003E
:1040B0003E94BA8713178400634807041317D4018A
:1040C0008D83D98F0D808146B9B70557158F13059C
:1040D00000023357E40081466386A5001308E843D5
:1040E000B3160401D58FB337F000D98F01446DB7F3
:1040F0003704080081479306F07F014629BF014439
:1041000081479306F07F01BF01448147854621B76F
:10411000411122C406C62A8421C597000000E78009
:1041200060201307E041A947098F63C6A702AD4786
:10413000898F5505B357F4003314A4002285B2408B
:104140002244B2071377F77F5207B183B3E6E70043
:10415000B685410182805515B317A4000144F9BF0B
:1041600081470147E1BF011106CE22CC26CA4AC8C9
:104170004EC652C4B367B500638607142A842E89DD
:10418000AE84BDC52E8597000000E780A019AA89DE
:10419000130AE043330A3A419307304363C74707A2
:1041A000AD47228563D337039307A00263C9370560
:1041B0009305B002938759FFB3853541B355B400D9
:1041C000B314F900CD8C3315F4009395C400F2407C
:1041D0006244137AFA7F520AB181B3E745012A8714
:1041E000D2444249B249224A3A85BE85056182805D
:1041F00097000000E78000139309050251BF9385E3
:1042000059FDB314B4000145C9B79307604363D99E
:104210004703138689032285CA8597000000E7803B
:10422000C00DC98D2146B334B0002285CA8533063E
:10423000364197000000E780A00933E4A4002E89EE
:10424000A147228563D437039307700263C63707FB
:1042500093058002938789FFB38535413319F900AF
:10426000B355B40033E925013315F400B70780FFD7
:10427000FD17B375F9009377750081CF9377F5003B
:1042800011476388E7009307450033B5A700AA9557
:104290003E859397850063DA0700B70780FFFD1717
:1042A000130AF043FD8D330A3A410D819397D501EE
:1042B0005D8D93D4350011BF138989FD3319240115
:1042C00001456DB781440145014A01B701CE93070D
:1042D0000002918F6349F000130506FE014733D5B4
:1042E000A500BA85828033D7C5003355C500B39584
:1042F000F5004D8DFDB701CE93070002918F634904
:10430000F000930506FE0147B315B5003A8582809B
:104310003317C500B395C5003355F500C98DFDB7FA
:10432000C1676376F5029307F00FB3B7A7008E0756
:10433000130700021D8FB357F50017C5FFFF1305C4
:10434000E507AA9703C507003305A7408280370712
:104350000001C147E36EE5FCE147D9BFAA8581466C
:1043600001460145170300006700431341118145D1
:1043700022C406C62A8497000000E780401997C728
:10438000FF179387270D88435C5D91C38297228531
:1043900097C0FFFFE780A04B411122C497070000A0
:1043A00093874723170400001304C4221D8C06C6FC
:1043B00026C2098411C893142400F114BE949C40B1
:1043C0007D14F114829765FCB2402244924441016D
:1043D0008280411122C44AC0170400001304441F04
:1043E000170900001309C91E3309894006C626C2F1
:1043F000135929406309090081441C4085041104B4
:104400008297E31C99FE170400001304641C17092B
:1044100000001309291C33098940135929406309F5
:10442000090081441C40850411048297E31C99FE15
:10443000B2402244924402494101828097C7FF174B
:1044400093870701B2862E86AA858843170300004A
:1044500067008300AE87411122C4B2852A84368664
:104460003E8506C697C7FF1723AE073E97C0FFFFDE
:10447000E7802049FD576306F500B2402244410120
:10448000828097C7FF179387E73D9C43FDD71CC0E9
:10449000B24022444101828097C7FF17938787FB70
:1044A000984383278714A1C3D8437D48634DE8040C
:1044B000131827001DC1338307012324C30883A8D1
:1044C000871805463316E600B3E8C80023A4171979
:1044D0002324D3108946630DD5000507D8C3C2979E
:1044E0008CC7014582809307C7142324F7146DBF3E
:1044F00083A6C7180507D8C3558E23A6C718C29729
:104500008CC7014582807D558280797197C7FF17DE
:10451000938747F462C403AC07004ECE52CC56CA10
:104520005AC806D622D426D24AD05EC6AA8A2E8B74
:10453000054AFD5903298C146304090283244900A8
:104540001384F4FF634E04008A04CA9463060B02CA
:1045500083A74410638267037D14F114E31834FFCA
:10456000B250225492540259F249624AD24A424B02
:10457000B24B224C4561828083274900D440FD170D
:104580006380870423A20400E1DA832789183317A4
:104590008A00832B4900F98F99EB82968327490083
:1045A000E39A77F983278C14E38827FB61B7832785
:1045B000C91883A544087D8F19E756858296F9BFEF
:0C45C00023228900D1B72E858296C9BF46
:0445CC00B00500082E
:1045D0000700000008000020AA55AA55AA55AA55B0
:1045E000AA00020000FFFF8F00000007000000008B
:1045F000000000000C03002074030020DC030020F6
:1046000000000000000000000000000000000000AA
:10461000000000000000000000000000000000009A
:10462000000000000000000000000000000000008A
:10463000000000000000000000000000000000007A
:10464000000000000000000000000000000000006A
:10465000000000000000000000000000000000005A
:10466000000000000000000000000000000000004A
:10467000000000000000000000000000000000003A
:10468000000000000000000000000000000000002A
:104690000000000000000000010000000000000019
:1046A0000E33CDAB34126DE6ECDE05000B000000DE
:1046B00000000000000000000000000000000000FA
:1046C00000000000000000000000000000000000EA
:1046D00000000000000000000000000000000000DA
:1046E00000000000000000000000000000000000CA
:104A1000000000000000000000F36F0620000020EE
:044A20002000002052
:040000050800015C92
:00000001FF
