:020000040800F2
:10000000B1AA010000000000000000000000000094
:1000100000000000000000000000000000000000E0
:1000200000000000000000000000000000000000D0
:1000300000000000000000000000000000000000C0
:1000400000000000000000000000000000000000B0
:1000500000000000000000000000000000000000A0
:100060000000000000000000000000000000000090
:100070000000000000000000000000000000000080
:100080000000000000000000000000000000000070
:100090000000000000000000000000000000000060
:1000A0000000000000000000000000000000000050
:1000B0000000000000000000000000000000000040
:1000C0000000000000000000000000000000000030
:1000D0000000000000000000000000000000000020
:1000E0000000000000000000000000000000000010
:1000F0000000000000000000000000000000000000
:1001000000000000000000000000000000000000EF
:1001100000000000000000000000000000000000DF
:1001200000000000000000000000000000000000CF
:1001300000000000000000000000000000000000BF
:1001400000000000000000000000000000000000AF
:100150000000000000000000000000007370043088
:10016000170500001305C5FF8545F605637BB5003F
:1001700089816378B500170500001305C5002E9529
:1001800002859302002073A0027D970200009382F3
:1001900062E773907230971200009382E236739098
:1001A000C27E73E0C07E971200009382A22D7390EE
:1001B000523097110018938161A91781001813011B
:1001C00061E4172500001305E59097050018938555
:1001D00065E3170600181306262863FAC500832274
:1001E000050023A0550011059105E3EAC5FE17059A
:1001F0000018130565269705001893852526637753
:10020000B500232005001105E36DB5FE73F0023241
:10021000171500001305656897100000E78020643B
:1002200097100000E780006B97100000E780A0D0D7
:100230000145814597000000E7800010171300007A
:100240006700E36201A073E00232828073F0023241
:0402500082800000A8
:100280000A50726F6772616D2068617320657869CA
:10029000746564207769746820636F64653A000050
:1002A000307800006E6D690A0000000074726170A1
:1002B0000A000000501000089E100008621000089C
:1002C00086100008B2100008C6100008DA100008F6
:1002D000EE10000802110008161100082010000896
:1002E000201000082010000828100008081000083E
:1002F0002A110008010000000400000007000000AF
:100300000E000000020000000500000008000000D0
:1003100000000000030000000600000009000000CB
:100320000F0000000A0000000B0000000C0000009D
:100330000D000000B707000859717D579387472FBC
:100340003AC286D6A2D4A6D2CAD0CECED2CCD6CAF3
:1003500002C002C402C618089386070403A8070057
:10036000C8438C47D0472320070148C30CC750C758
:10037000C1074107E394D7FE97100000E7800027EC
:1003800097100000E780A02A97100000E780A031B6
:1003900097100000E780E03897100000E78080BCED
:1003A000054597100000E78020E305459710000001
:1003B000E78080E2014597100000E780E009814472
:1003C000814A0144130A803E97100000E7802025EF
:1003D00065DD050497100000E7806029938914000B
:1003E00097100000E780402F630544059710000038
:1003F000E7804036931725002A879408B69705456D
:100400006342070203A907FCCA8597100000E78032
:1004100000307800340050008A854A85971000002B
:10042000E780E0BC268597100000E78020BBCE84E3
:1004300061BFD6850145850A97100000E780202D11
:1004400001446DB7970700F89387C7BB89CB171591
:1004500000001305854417130000670043408280A5
:1004600041111305D04106C697000000E780801DAA
:10047000B2401305D0414101170300006700031E7D
:10048000377700408327074011E593E717002320C3
:10049000F7408280C166D58F2320F740828009E92A
:1004A0003777004083270740F59B2320F740828061
:1004B000B776004083A7064001777D17F98F23A008
:1004C000F6408280854701ED6388F5029DC9894722
:1004D0006392F502B777004023A8C7408280638CFF
:1004E000F5028DC589476398F500B777004023AEC4
:1004F000C740828082808280B777004023A6C740B1
:100500008280B777004023A4C7408280B77700403D
:1005100023AAC7408280B777004023ACC7408280BF
:1005200009E93777004083270740ED9B2320F740F8
:100530008280B776004083A706403707FCFF7D170F
:10054000F98F23A0F6408280B777004003A70740C9
:1005500019E91377F7F323A0E74003A70740D98DE4
:1005600023A0B7408280B70640FFFD16758F23A0F9
:10057000E74003A70740C205D98D23A0B74082807A
:1005800093F7050193F8F50099C3B3E8C8008147D4
:10059000854E3D4E930F80029302800421431396B3
:1005A00027003397FE003318CE00758F1348F8FFED
:1005B0003396C80001CF032F05003378E801336676
:1005C0000601638FF5056389550410C18507E3981B
:1005D00067FC854E3D4E930F800293028004414399
:1005E0001397270001173396FE003318EE00758E1F
:1005F0001348F8FF3397E80001CE032F4500337806
:10060000E80133670701638FF5016389550058C11D
:100610008507E39767FC828018C945BF10C9C5BF2D
:1006200058C965B750C9E5B7B717024013576500F9
:100630003E9714438547B397A700D58F1CC382808C
:10064000B7170240135765003E9714438547B39789
:10065000A700D58F1CC38280B717024013576500CF
:100660003E9714438547B397A70093C7F7FFF58FCD
:100670001CC382804111B717004006C6138707C00C
:10068000630DE5046371A702138707406305E50660
:1006900037370140130707C0630DE5066309F50806
:1006A000B240410182803707004093060740630E45
:1006B000D508938707806308F50AE313E5FE130561
:1006C000004097000000E780E0F7B24013050040CB
:1006D000410117030000670063F8130530409700DD
:1006E0000000E78020F6B2401305304041011703B7
:1006F00000006700A3F61305504097000000E78054
:1007000060F4B24013055040410117030000670038
:10071000E3F41305B03097000000E780A0F2B24088
:100720001305B030410117030000670023F31305E0
:10073000404097000000E780E0F0B24013054040E1
:10074000410117030000670063F113051040970093
:100750000000E78020EFB24013051040410117036D
:1007600000006700A3EF1305204097000000E7801A
:1007700060EDB240130520404101170300006700FF
:10078000E3EDC167FD1723200500231205001CC5FA
:100790002316050023070500828083D7050003D7B1
:1007A00045001376F5BF1CD5B7370140938707C0C6
:1007B000418B6306F504FD779387F73FE98FB70612
:1007C0000040638ED7021C41B7160040BD9B1CC180
:1007D0001C415D8F18C19C455CD5630DD600184146
:1007E00083D7C5001377F7CF18C1184193F70730A7
:1007F000D98F1CC15C4993E717005CC98280144102
:1008000083D725003718004093F6F6F814C1144139
:1008100093F70706D58F1CC11C415D8F18C19C45FD
:100820005CD5E30906FD184183D7C500B736014002
:100830001377F7CF18C1104193F70730138706C01D
:10084000D18F1CC1E318E5FA83C7E50023A8F6C2DF
:100850005C4993E717005CC982801C4193E717004D
:100860001CC182801C4193E707081CC182802310B1
:10087000050023110500231205002313050023148E
:10088000050023150500828085476385F50CD9C5D1
:1008900089476387F5048D476393F5041C517D7781
:1008A0007D17F98F1CD1835706001851F976B207CE
:1008B000D98F1CD11851FD1683574600758F18D15A
:1008C0001451B20737370140D58F1CD1930707C0A9
:1008D000630AF51E5C4D93F7F7CF5CCD8280828072
:1008E0001451035706008357460093F6F6EF14D1D0
:1008F00014512207A207558F18D1145137370140E0
:10090000930507C093F6F6DF14D11451D58F1CD18F
:100910006301B5145C4DF19B5CCD82801C51835604
:10092000060003574600F99B1CD103280502B73780
:100930000140938507C0B3E6060114D11451F59A1E
:1009400014D11451558F18D16307B50A1C4DF19B72
:100950001CCD828014510357060083574600BD9A70
:1009600014D1145112079207558F18D114513737EB
:100970000140930507C093F6F6FD14D11451D58FAD
:100980001CD16307B5001C4D93F7F7CF1CCD8280B7
:100990000C51835626008357660093F5F5FB0CD166
:1009A0000C5192069207CD8E14D10C5183568600BD
:1009B00093F5F5F70CD10C518A06CD8F1CD1832508
:1009C00047C08357A60093F5F5BF2322B7C003267F
:1009D00047C08A07D18E2322D7C0832647C07D76A1
:1009E0001306F67FF18E2322D7C0832647C0D58F0A
:1009F0002322F7C049BF18510358260083556600CB
:100A00006D9B18D183280502835686000357A600E4
:100A1000336818012320050310515D9A10D110513D
:100A2000D18D0CD103A647C01376F6EF23A2C7C021
:100A300003A647C0D18E23A2D7C083A647C093F692
:100A4000F6DF23A2D7C083A647C0558F23A2E7C0F5
:100A5000F5BD0C5183572600FD7693F5F5BF0CD1FB
:100A60000C51A2079388F67FCD8F1CD10328050275
:100A70009385F6FF83576600B376180114D10328D7
:100A80000502A20783568600B3E707011CD183271E
:100A900047C09206FD8D2322B7C0832547C08357E8
:100AA000A6007976CD8E2322D7C0832647C07D1637
:100AB0009207F18E2322D7C0832647C0D58F2322E9
:100AC000F7C089BD832747C0F176FD16F58F232235
:100AD000F7C083578600832647C09A07D58F232205
:100AE000F7C0CDBB85476384F502A1C58947638AFA
:100AF000F5028D47639CF5005C4D65777D17F98F96
:100B00005CCD5C4D22065D8E50CD828082801C4D76
:100B100065777D17F98F1CCD1C4D22065D8E10CD9B
:100B200082805C4D93F7F7F85CCD5C4D5D8E50CDC7
:100B300082801C4D93F7F7F81CCD1C4D5D8E10CDB7
:100B400082808547638CF50091CD8947638AF500E3
:100B50008D476394F50030C18280828010DD8280F1
:100B600050DD828050D9828085476385F502A9C512
:100B70008947638CF5028D47639DF5005C4D7D7759
:100B80001307F77FF98F5CCD5C4D22065D8E50CD4B
:100B9000828082801C4D7D771307F77FF98F1CCDF3
:100BA0001C4D22065D8E10CD82805C4DDD9B5CCDA0
:100BB0005C4D5D8E50CD82801C4DDD9B1CCD1C4D4F
:100BC0005D8E10CD828093F5F51F4CC1828093D746
:100BD000650093F7F73F3E9508413355B500058909
:100BE0008280B71702409843B706FFE0B10613674B
:100BF000170098C3D8433706F7EA7D16758FD8C318
:100C00009843B706F7FEFD16758F98C39843B7064D
:100C1000FCFFFD16758F98C3D843B70601DFFD169C
:100C2000758FD8C323A6070294433707FF00C16519
:100C3000F18E94C398C798439386F5FF3716024008
:100C40004D8F98C311A099C61C42FD161397E7005B
:100C5000E35B07FEB717024098439316E70063D0A3
:100C6000060AD8433706C4DF7D16D8C3D843B71663
:100C70000240D8C3D84313670740D8C3D843718F05
:100C8000D8C3D84337062920518FD8C3D8573D76CB
:100C9000718FD8D7D8574166130616F1518FD8D720
:100CA000984337060004518F98C39C42139747001E
:100CB000E35D07FE9C423706001037170240D18FD4
:100CC0009CC21C4393962700E3DD06FE14433706BF
:100CD0000001B7170240D18E14C3984393166700E2
:100CE000E3DD06FED843B7160240719BD8C3D84354
:100CF00013672700D8C3DC42A18BF5DF828001A0F7
:100D0000B70700089387072803AF070083AE4700A3
:100D100003AE870003A3C70083A8070103A8470108
:100D2000944F03D7C70183C7E7017971794622D46D
:100D30008A852A84094506D67AC076C272C41AC644
:100D400046C842CA36CC231EE100230FF10097109B
:100D50000000E780C0BEA285094597000000E7803B
:100D6000C00AB705000805469385052B094597106D
:100D70000000E780C0BC01A0411122C437440140FB
:100D800026C29375F50FAA841305048006C61304C2
:100D9000048097000000E78040E39D45228597008E
:100DA0000000E78000E375D9B240224426859244D2
:100DB0004101828001114EC606CE22CC26CA4AC805
:100DC000B28915C22E843389C500A94403450400A5
:100DD000050497000000E78060FA8347F4FF638C06
:100DE0009700E31524FFF24062444E85D244424905
:100DF000B24905618280354597000000E78000F820
:100E0000E31624FDCDB7797156CAAE8AB70500083E
:100E100009469385052A22D426D24AD04ECE52CCFA
:100E200006D62A8A714497100000E78040B1BD4978
:100E30002549F15405A093F7F60F71140546930563
:100E4000F1005285A307F10097100000E78020AF62
:100E5000630F9402B3978900B3F75701B3D78700A4
:100E600093F7F70F9386070313877703E375F9FC6E
:100E70009377F70F711405469305F1005285A30788
:100E8000F10097100000E78080ABE31594FCB250AE
:100E9000225492540259F249624AD24A45618280F0
:100EA000370700D2230007001205B71700D2A305A9
:100EB00007003E9563F7A70023A00700C107E3EDF5
:100EC000A7FE8280F327503093F707FC93E73700A3
:100ED000739057308280B7050008411115469385FD
:100EE000452A054506C697100000E78040A5054540
:100EF00097000000E78000E141119347F5FF22C40D
:100F000006C6139747012A8405C3B705000815468E
:100F10009385C52A054597100000E78040A22285E9
:100F200097000000E78000DE97000000E780E0FA0D
:100F3000E9BF411106C697000000E780C0CA13054B
:100F4000700597000000E780E0F597000000E7805B
:100F5000A0F7B240410117F3FFFF6700032F828023
:100F600041111305206006C697F0FFFFE780006C73
:100F70001305D07197F0FFFFE780406B37150140F4
:100F8000C1460D4681451305058097F0FFFFE780B8
:100F9000605F97F0FFFFE780E04C014597F0FFFFAF
:100FA000E78040588145014597F0FFFFE780005AF0
:100FB000014597F0FFFFE780C04E01451306F07F23
:100FC000814597F0FFFFE7802050B2400145410185
:100FD00017F3FFFF6700034B13160501418281459C
:100FE000014517F3FFFF6700234EBD4763E4A71ACF
:100FF000B70700089387472B0A053E951C4101114E
:1010000022CC06CE328482871C4263800714854638
:10101000639DD71A2320070023A005002320060084
:10102000F2406244056182801C427D566385C7148C
:101030006384071205466380C7160947E392E7FEFB
:1010400011651305E5E797000000E780E040C9BFA0
:101050001C42E3C707FC85071CC20D47E392E7FC6F
:1010600029A81C4285071CC29C41938707149CC178
:1010700018421DC38D47E315F7FA89471CC0F2409B
:101080006244056182801C4285071CC29C41938793
:10109000071E9CC1184279FF9CC21840E1BF1C4248
:1010A00085071CC29C419387070A9CC1184279F3AB
:1010B000E5B71C4285071CC29C41938707289CC149
:1010C00018424DFBD1BF1C4285071CC29C4193872F
:1010D00007329CC1184259FFC1B71C4285071CC288
:1010E0009C419387073C9CC1184249F775B71C4245
:1010F00085071CC29C41938707469CC118423DFB53
:1011000061BF1C4285071CC29C41938707509CC14C
:1011100018422DF351B71C4285071CC29C4193878E
:10112000075A9CC1184239F785BF01453AC436C2F7
:1011300097000000E78040329246FD5722471CC0CE
:1011400023A0060023200700E1BD23A0060023A062
:101150000500FD571CC2E9B588423AC62EC436C206
:1011600097000000E780402FA2453247924623A017
:1011700005001C40C1B501453AC636C42EC29700D1
:101180000000E780602D1C403247A2469245E39361
:1011900007EAD9B782809C4236C42EC21395270035
:1011A0003E95060588C29C413E9508C39700000005
:1011B000E780802A9245A246294723A005009C4249
:1011C000B3C7E7029CC21C408DBD0947E39AE7E420
:1011D00014C2B9B5397122DC2A84130520604ED6B9
:1011E00006DE26DA4AD897F0FFFFE780204493799D
:1011F00014001305006097F0FFFFE7802043639F12
:10120000092213792400631F092093744400639F0B
:10121000041E21886310041E1305007097F0FFFF61
:10122000E780C0403705004097F0FFFFE780C044EB
:10123000080897F0FFFFE78000559307B0063EC807
:1012400091679387F7E70C08370500403ECC231AD7
:101250000100231E0100230F010097F0FFFFE7802C
:101260000054480097F0FFFFE780A06085473EC22A
:1012700002C402C66395091663180914639B04121D
:10128000631E0410639E090C631F09088DE425E0AA
:101290003705004097F0FFFFE780005D370500400D
:1012A00097F0FFFFE780A05BF2506254D25442599E
:1012B000B259216182800D661306F6ED8945370526
:1012C000004097000000E78000881306000689456B
:1012D0003705004097000000E780008101468945FE
:1012E0003705004097000000E780408855D00D6624
:1012F0001306F6ED8D453705004097000000E780A6
:101300008084130600068D453705004097F0FFFFE7
:10131000E780807D01468D4537050040970000003D
:10132000E780C084B5B70D661306F6ED8545370531
:10133000004097000000E780008113060006854505
:101340003705004097F0FFFFE780007A01468545AA
:101350003705004097000000E78040818DD8A1BF8D
:101360000D661306F6ED81453705004097F0FFFF47
:10137000E780607D1306000681453705004097F041
:10138000FFFFE7806076014681453705004097F012
:10139000FFFFE780A07DE30B09EE71B750008D459C
:1013A0003705004097F0FFFFE780404EE38E09ECE1
:1013B00045BF500089453705004097F0FFFFE780A3
:1013C000E04CE30104ECD9BF5000854537050040EF
:1013D00097F0FFFFE780804BE38404EAD9BF500019
:1013E00081453705004097F0FFFFE780204AE3077B
:1013F00009E8D9BF37150140A1460D46E14513055F
:10140000058097F0FFFFE780E01739B537150140F9
:1014100091460D46E1451305058097F0FFFFE780F3
:101420006016C5BB3715014089460D46E1451305D9
:10143000058097F0FFFFE780E014C1BB371501403E
:1014400085460D46E1451305058097F0FFFFE780CF
:10145000601345BB2A8681453705004017F3FFFF1F
:101460006700636E00000000000000000000000044
:10147000000000000000000000000000000000006C
:101480005D7106C012C216C41AC61EC82ACA2ECC66
:1014900032CE36D03AD23ED442D646D872DA76DC54
:1014A0007ADEFEC0F322103496C0F322003096C2DA
:1014B000F322407C96C4732520348A85970000006F
:1014C000E780C0A386427390123496427390023034
:1014D000A6427390427C82401242A2423243C243EF
:1014E0005245E245724682561257A2573258C258A8
:1014F000525EE25E725F864F6161730020300000D1
:10150000000000005D7106C012C216C41AC61EC8D3
:101510002ACA2ECC32CE36D03AD23ED442D646D883
:1015200072DA76DC7ADEFEC073D0E87E7350F97E24
:1015300073D0B97EF390D07E73700430B64273904E
:10154000427CA642739012349642739022348240B9
:101550001242A2423243C2435245E245724682568B
:101560001257A2573258C258525EE25E725F864FDF
:10157000616173002030AA82B68E214363C46E007D
:101580009102E11E8A0E3D433313D3011343F3FF4F
:10159000AE83B3E3C300B393D30103AE0200337E43
:1015A0006E00336E7E0023A0C2018280F18D2D8EED
:1015B0004206D18D0CC982804CC982804CC5828084
:1015C0000C458280B712024003A3C2013363A3001B
:1015D00023AE62008280B712024003A3820133630C
:1015E000A30023AC62008280711106C041459700C0
:1015F0000000E78060FDB71200401303B00623A48B
:1016000062021303703E23A6620223A80200054370
:1016100023A06200824011018280B712004003A51E
:10162000020119C123A802008280711106C0214560
:1016300097000000E78060FA37150140130505C0E8
:1016400081450D4681460D4797000000E780E0F296
:101650008506E39BE6FE82401101828097F2FF1728
:101660009382429A038502008280711106C0371569
:101670000140130505C097F2FF179382A298838556
:101680000200FD1563D305009D452380B2001D4671
:1016900097000000E780C0F103850200824011013D
:1016A0008280711106C0214597000000E780E0F2BA
:1016B00037150140130505C081450D46A146414738
:1016C00097000000E78060EB8506E39BE6FE824022
:1016D00011018280711106C097F2FF179382C292A6
:1016E00083A20200AA9237150140130505C083C5E5
:1016F0000200A20537060100130606F0970000005D
:10170000E78000EB82401101828097F2FF179382FD
:10171000A28F83A20200AA922380B200828071115C
:1017200006C0114597000000E78020EB3715014007
:101730001305058081451146954625479700000011
:10174000E780A0E38506E39BE6FE824011018280EC
:10175000711106C07D5E97FEFF17938EBE8B03A3AB
:101760000E009303F3FF23A07E006397030423A0DE
:101770006E00371501401305058097000000E780D3
:1017800060E49581BD898DC985813335B00033030F
:10179000A00085813335B0002A9385813335B000B0
:1017A0002A9397000000E780A0EB0A05336EA300A0
:1017B0001303002023A06E007285824011018280F5
:1017C00097F2FF179382528523900200828097F24E
:1017D000FF179382728403D30200A5430503137E8F
:1017E000F30063D8C3031903135E4300137EFE00A6
:1017F00063D1C30313030306135E8300137EFE004D
:1018000063D9C30113030360135EC30063D3C30131
:10181000014323906200828097E2FF179382D27F78
:1018200003D50200828097E2FF179382127F03A301
:1018300002007D1323A06200635003021303F0082B
:1018400023A0620097E2FF179382027C03A30200A9
:101850001343130023A062008280AA8581460146BB
:10186000014517030000670043134111814522C45D
:1018700006C62A8497000000E780401997F7FF17F3
:10188000938747BD88435C5D91C38297228597F01B
:10189000FFFFE7802047411122C49707000093878C
:1018A0006723170400001304E4221D8C06C626C219
:1018B000098411C893142400F114BE949C407D1433
:1018C000F114829765FCB240224492444101828027
:1018D000411122C44AC0170400001304441F170911
:1018E00000001309C91E3309894006C626C21359D0
:1018F00029406309090081441C4085041104829732
:10190000E31C99FE170400001304841C170900004F
:101910001309491C330989401359294063090900F7
:1019200081441C40850411048297E31C99FEB24057
:101930002244924402494101828097F7FF1793871E
:10194000E7B0B2862E86AA85884317030000670099
:101950008300AE87411122C4B2852A8436863E8533
:1019600006C697F7FF1723A907AE97F0FFFFE7809A
:10197000A044FD576306F500B24022444101828035
:1019800097F7FF17938747AD9C43FDD71CC0B24024
:1019900022444101828097F7FF179387A7AB9843B2
:1019A00083278714A1C3D8437D48634DE8041318E7
:1019B00027001DC1338307012324C30883A8871888
:1019C00005463316E600B3E8C80023A417192324FC
:1019D000D3108946630DD5000507D8C3C2978CC7BD
:1019E000014582809307C7142324F7146DBF83A693
:1019F000C7180507D8C3558E23A6C718C2978CC72A
:101A0000014582807D558280797197F7FF17938712
:101A100067A462C403AC07004ECE52CC56CA5AC863
:101A200006D622D426D24AD05EC6AA8A2E8B054A72
:101A3000FD5903298C14630409028324490013848B
:101A4000F4FF634E04008A04CA9463060B0283A762
:101A50004410638267037D14F114E31834FFB2501D
:101A6000225492540259F249624AD24A424BB24B32
:101A7000224C4561828083274900D440FD17638052
:101A8000870423A20400E1DA8327891833178A0028
:101A9000832B4900F98F99EB829683274900E39ABB
:101AA00077F983278C14E38827FB61B78327C9184C
:101AB00083A544087D8F19E756858296F9BF2322B6
:0A1AC0008900D1B72E858296C9BFB8
:041ACC0044040008C6
:101AD0000700000008000020AA55AA55AA55AA55DB
:101AE000AA00020000FFFF8F0000000700000000B6
:101AF000000000000C03002074030020DC03002021
:101B000000000000000000000000000000000000D5
:101B100000000000000000000000000000000000C5
:101B200000000000000000000000000000000000B5
:101B300000000000000000000000000000000000A5
:101B40000000000000000000000000000000000095
:101B50000000000000000000000000000000000085
:101B60000000000000000000000000000000000075
:101B70000000000000000000000000000000000065
:101B80000000000000000000000000000000000055
:101B90000000000000000000010000000000000044
:101BA0000E33CDAB34126DE6ECDE05000B00000009
:101BB0000000000000000000000000000000000025
:101BC0000000000000000000000000000000000015
:101BD0000000000000000000000000000000000005
:101BE00000000000000000000000000000000000F5
:101F10000000000000000000200000200000000081
:041F2000200000207D
:040000050800015C92
:00000001FF
