:020000040800F2
:10000000B1AA010000000000000000000000000094
:1000100000000000000000000000000000000000E0
:1000200000000000000000000000000000000000D0
:1000300000000000000000000000000000000000C0
:1000400000000000000000000000000000000000B0
:1000500000000000000000000000000000000000A0
:100060000000000000000000000000000000000090
:100070000000000000000000000000000000000080
:100080000000000000000000000000000000000070
:100090000000000000000000000000000000000060
:1000A0000000000000000000000000000000000050
:1000B0000000000000000000000000000000000040
:1000C0000000000000000000000000000000000030
:1000D0000000000000000000000000000000000020
:1000E0000000000000000000000000000000000010
:1000F0000000000000000000000000000000000000
:1001000000000000000000000000000000000000EF
:1001100000000000000000000000000000000000DF
:1001200000000000000000000000000000000000CF
:1001300000000000000000000000000000000000BF
:1001400000000000000000000000000000000000AF
:100150000000000000000000000000007370043088
:10016000170500001305C5FF8545F605637BB5003F
:1001700089816378B500170500001305C5002E9529
:1001800002859302002073A0027D970200009382F3
:1001900062E773907230970200009382E256739088
:1001A000C27E73E0C07E970200009382A24D7390DE
:1001B000523097110018938161A71781001813011D
:1001C00061E41715000013056593970500189385E2
:1001D00065E3170600181306262663FAC500832276
:1001E000050023A0550011059105E3EAC5FE17059A
:1001F0000018130565249705001893852524637757
:10020000B500232005001105E36DB5FE73F0023241
:10021000170500001305056B97000000E780C06616
:1002200097000000E780A06D97000000E780404144
:100230000145814597000000E780205E170300001C
:100240006700836501A073E00232828073F002329E
:0402500082800000A8
:100280000A50726F6772616D2068617320657869CA
:10029000746564207769746820636F64653A000050
:1002A000307800006E6D690A0000000074726170A1
:1002B0000A000000970700F89387C7D489CB170579
:1002C000000013052560170300006700E35B8280D0
:1002D00093F5F51F4CC1828093D7650093F7F73FE4
:1002E0003E9508413355B50005898280B717024015
:1002F0009843B706FFE0B1061367170098C3D843C9
:100300003706F7EA7D16758FD8C39843B706F7FE10
:10031000FD16758F98C39843B706FCFFFD16758FC1
:1003200098C3D843B70601DFFD16758FD8C323A63F
:10033000070294433707FF00C165F18E94C398C745
:1003400098439386F5FF371602404D8F98C311A04E
:1003500099C61C42FD161397E700E35B07FEB7172B
:10036000024098439316E70063D0060AD843370645
:10037000C4DF7D16D8C3D843B7160240D8C3D843CC
:1003800013670740D8C3D843718FD8C3D843370603
:100390002920518FD8C3D8573D76718FD8D7D857D9
:1003A0004166130616F1518FD8D7984337060004DB
:1003B000518F98C39C4213974700E35D07FE9C4210
:1003C0003706001037170240D18F9CC21C4393960A
:1003D0002700E3DD06FE144337060001B71702408D
:1003E000D18E14C3984393166700E3DD06FED8430D
:1003F000B7160240719BD8C3D84313672700D8C3F0
:10040000DC42A18BF5DF828001A0B707000893874B
:10041000072803AF070083AE470003AE870003A39E
:10042000C70083A8070103A84701944F03D7C7015A
:1004300083C7E7017971794622D48A852A840945E0
:1004400006D67AC076C272C41AC646C842CA36CC2C
:10045000231EE100230FF10097000000E780C05049
:10046000A285094597000000E780C00AB70500088B
:1004700005469385052B094597000000E780C04E8F
:1004800001A0411122C43744014026C29375F50FE3
:10049000AA841305048006C6130404809700000094
:1004A000E78040E39D45228597000000E78000E358
:1004B00075D9B240224426859244410182800111BF
:1004C0004EC606CE22CC26CA4AC8B28915C22E8490
:1004D0003389C500A94403450400050497000000C2
:1004E000E78060FA8347F4FF638C9700E31524FFED
:1004F000F24062444E85D2444249B249056182804D
:10050000354597000000E78000F8E31624FDCDB7DD
:10051000797156CAAE8AB705000809469385052A3F
:1005200022D426D24AD04ECE52CC06D62A8A714444
:1005300097000000E7804043BD492549F15405A0DC
:1005400093F7F60F711405469305F1005285A30742
:10055000F10097000000E7802041630F9402B397F9
:100560008900B3F75701B3D7870093F7F70F938646
:10057000070313877703E375F9FC9377F70F71147B
:1005800005469305F1005285A307F100970000008E
:10059000E780803DE31594FCB250225492540259F6
:1005A000F249624AD24A45618280370700D223006D
:1005B00007001205B71700D2A30507003E9563F7A1
:1005C000A70023A00700C107E3EDA7FE8280F32761
:1005D000503093F707FC93E73700739057308280D1
:1005E000B7050008411115469385452A054506C6FD
:1005F00097000000E7804037054597000000E7803E
:1006000000E141119347F5FF22C406C61397470145
:100610002A8405C3B705000815469385C52A0545F4
:1006200097000000E7804034228597000000E780B3
:1006300000DE97000000E780E0FAE9BF411106C63E
:1006400097000000E780C0CA1305700597000000FE
:10065000E780E0F597000000E780A0F7B240410195
:1006600017030000670063BE8280000000000000E6
:10067000000000000000000000000000000000007A
:100680005D7106C012C216C41AC61EC82ACA2ECC74
:1006900032CE36D03AD23ED442D646D872DA76DC62
:1006A0007ADEFEC0F322103496C0F322003096C2E8
:1006B000F322407C96C4732520348A85970000007D
:1006C000E78060F486427390123496427390023051
:1006D000A6427390427C82401242A2423243C243FD
:1006E0005245E245724682561257A2573258C258B6
:1006F000525EE25E725F864F6161730020300000DF
:10070000000000005D7106C012C216C41AC61EC8E1
:100710002ACA2ECC32CE36D03AD23ED442D646D891
:1007200072DA76DC7ADEFEC073D0E87E7350F97E32
:1007300073D0B97EF390D07E73700430B64273905C
:10074000427CA642739012349642739022348240C7
:100750001242A2423243C2435245E2457246825699
:100760001257A2573258C258525EE25E725F864FED
:10077000616173002030AA82B68E214363C46E008B
:100780009102E11E8A0E3D433313D3011343F3FF5D
:10079000AE83B3E3C300B393D30103AE0200337E51
:1007A0006E00336E7E0023A0C2018280F18D2D8EFB
:1007B0004206D18D370303001303839BB753050013
:1007C00093830373372E0600130E0EA863F36500A0
:1007D00001A00CC963F3750001A00CC963F3C50146
:1007E00001A00CC982804CC982804CC582800C4516
:1007F0008280B712024003A3C2013363A30023AE79
:1008000062008280B712024003A382013363A30017
:1008100023AC62008280314597000000E780C0FE73
:1008200037150140130505C081450D4681460D472A
:1008300097000000E78060F48506E39BE6FE37152D
:1008400001401305058081451146954625479700CF
:100850000000E78080F28506E39BE6FE3715014045
:100860001305058097000000E780A0F895819D8919
:1008700037150140130505C01D4697000000E780AD
:1008800020F3E9BFAA858146014601451703000010
:10089000670043134111814522C406C62A8497008C
:1008A0000000E7804019970700189387A7B888438E
:1008B0005C5D91C38297228597000000E78020B598
:1008C000411122C4970700009387472317040000B3
:1008D0001304C4221D8C06C626C2098411C89314B1
:1008E0002400F114BE949C407D14F114829765FCA1
:1008F000B2402244924441018280411122C44AC044
:10090000170400001304441F170900001309C91E2F
:100910003309894006C626C21359294063090900D4
:1009200081441C40850411048297E31C99FE17043E
:1009300000001304641C170900001309291C330963
:100940008940135929406309090081441C408504EA
:1009500011048297E31C99FEB2402244924402495A
:100960004101828097070018938747ACB2862E8694
:10097000AA8588431703000067008300AE874111F2
:1009800022C4B2852A8436863E8506C6970700189B
:1009900023A407AA97000000E780A0B2FD576306D2
:1009A000F500B240224441018280970700189387E6
:1009B000A7A89C43FDD71CC0B240224441018280BD
:1009C00097070018938707A7984383278714A1C325
:1009D000D8437D48634DE804131827001DC13383B5
:1009E00007012324C30883A8871805463316E600A9
:1009F000B3E8C80023A417192324D3108946630D34
:100A0000D5000507D8C3C2978CC7014582809307DC
:100A1000C7142324F7146DBF83A6C7180507D8C3CE
:100A2000558E23A6C718C2978CC7014582807D5575
:100A300082807971970700189387C79F62C403ACBF
:100A400007004ECE52CC56CA5AC806D622D426D259
:100A50004AD05EC6AA8A2E8B054AFD5903298C14FA
:100A600063040902832449001384F4FF634E0400E5
:100A70008A04CA9463060B0283A744106382670347
:100A80007D14F114E31834FFB250225492540259E9
:100A9000F249624AD24A424BB24B224C45618280B3
:100AA00083274900D440FD176380870423A20400F4
:100AB000E1DA8327891833178A00832B4900F98FDD
:100AC00099EB829683274900E39A77F983278C1460
:100AD000E38827FB61B78327C91883A544087D8F66
:100AE00019E756858296F9BF23228900D1B72E8552
:040AF0008296C9BF62
:040AF400B402000840
:100AF80000000000EC02002054030020BC0300208A
:100B080000000000000000000000000000000000DD
:100B180000000000000000000000000000000000CD
:100B280000000000000000000000000000000000BD
:100B380000000000000000000000000000000000AD
:100B4800000000000000000000000000000000009D
:100B5800000000000000000000000000000000008D
:100B6800000000000000000000000000000000007D
:100B7800000000000000000000000000000000006D
:100B8800000000000000000000000000000000005D
:100B9800000000000000000001000000000000004C
:100BA8000E33CDAB34126DE6ECDE05000B00000011
:100BB800000000000000000000000000000000002D
:100BC800000000000000000000000000000000001D
:100BD800000000000000000000000000000000000D
:100BE80000000000000000000000000000000000FD
:100F180000000000000000000000002000000000A9
:040F280000000020A5
:040000050800015C92
:00000001FF
