:020000040800F2
:10000000B1AA010000000000000000000000000094
:100010000000000000000000000000000C160008B6
:1000200000000000000000000000000000000000D0
:1000300000000000000000000000000000000000C0
:1000400000000000000000000000000000000000B0
:1000500000000000000000000000000000000000A0
:100060000000000000000000000000000000000090
:100070000000000000000000000000000000000080
:100080000000000000000000000000000000000070
:100090000000000000000000000000000000000060
:1000A0000000000000000000000000000000000050
:1000B0000000000000000000000000000000000040
:1000C0000000000000000000000000000000000030
:1000D0000000000000000000000000000000000020
:1000E0005E16000800000000000000000000000094
:1000F0000000000000000000000000000000000000
:1001000000000000000000000000000000000000EF
:1001100000000000000000000000000000000000DF
:1001200000000000000000000000000000000000CF
:1001300000000000000000000000000000000000BF
:1001400000000000000000000000000000000000AF
:100150000000000000000000000000007370043088
:10016000170500001305C5FF8545F605637BB5003F
:1001700089816378B500170500001305C5002E9529
:1001800002859302002073A0027D970200009382F3
:1001900062E773907230973200009382E276739038
:1001A000C27E73E0C07E973200009382A26D73908E
:1001B000523097110018938161A91781001813011B
:1001C00061E417550000130565999705001893859C
:1001D00065E3170600181306262863FAC500832274
:1001E000050023A0550011059105E3EAC5FE17059A
:1001F000001813056526971500189385A5A8637741
:10020000B500232005001105E36DB5FE73F0023241
:10021000174500001305057197400000E780C06C8A
:1002200097400000E780A07397100000E7808031BE
:100230000145814597100000E78040861743000084
:100240006700836B01A073E00232828073F0023298
:0402500082800000A8
:100280000A50726F6772616D2068617320657869CA
:10029000746564207769746820636F64653A000050
:1002A000307800006E6D690A0000000074726170A1
:1002B0000A00000000000000000000000000000034
:1002C00000000000000000080808080808080000F6
:1002D0001818000000486C24120000000000000004
:1002E000000000000000002424247F1212127F125C
:1002F000121200000000081C2A2A0A0C1828282ABA
:100300002A1C080800000022251515152A585454E7
:10031000542200000000000C1212120A7625291146
:10032000916E0000000606040300000000000000BB
:1003300000000000004020101008080808080810FD
:1003400010204000000204080810101010101008BF
:10035000080402000000000008086B1C1C6B080861
:100360000000000000000000080808087F080808D6
:100370000800000000000000000000000000000075
:10038000060604030000000000000000FE0000005C
:10039000000000000000000000000000000000005D
:1003A00006060000000080404020201010080804CD
:1003B000040202000000001824424242424242422B
:1003C00024180000000000080E08080808080808A3
:1003D000083E00000000003C424242202010080479
:1003E000427E00000000003C424220182040404273
:1003F000221C0000000000203028242422227E201D
:10040000207800000000007E0202021A26404042CE
:10041000221C0000000000382402021A2642424238
:10042000241800000000007E22221010080808088E
:10043000080800000000003C4242422418244242C6
:10044000423C0000000000182442424264584040F0
:10045000241C00000000000000001818000000002C
:100460001818000000000000000000080000000054
:1004700000080804000000402010080402040810CE
:10048000204000000000000000007F0000007F000E
:1004900000000000000000020408102040201008A6
:1004A000040200000000003C4242464020101000C0
:1004B000181800000000001C225A555555552D42B1
:1004C000221C00000000000808181414243C2242DA
:1004D00042E700000000001F2222221E2242424268
:1004E000221F00000000007C424201010101014284
:1004F000221C00000000001F2242424242424242AF
:10050000221F00000000003F4212121E121202427F
:10051000423F00000000003F4212121E121202026F
:10052000020700000000003C22220101017121228B
:10053000221C0000000000E7424242427E4242424A
:1005400042E700000000003E080808080808080804
:10055000083E00000000007C101010101010101059
:100560001010110F0000007722120A0E0A12122238
:1005700022770000000000070202020202020202CB
:10058000427F000000000077363636362A2A2A2AB3
:100590002A6B0000000000E346464A4A525252626B
:1005A000624700000000001C22414141414141419D
:1005B000221C00000000003F424242423E02020272
:1005C000020700000000001C2241414141414D53FF
:1005D000321C60000000003F4242423E12122222C2
:1005E00042C700000000007C424202041820404242
:1005F000423E00000000007F49080808080808087B
:10060000081C0000000000E74242424242424242CF
:10061000423C0000000000E7424222242414141847
:10062000080800000000006B494949495555362229
:1006300022220000000000E7422424181818242475
:1006400042E700000000007722221414080808087E
:10065000081C00000000007E212010100804044245
:10066000423F000000780808080808080808080841
:10067000080878000000020204040808081010208E
:1006800020204040001E10101010101010101010EC
:1006900010101E00003844000000000000000000A0
:1006A000000000000000000000000000000000004A
:1006B000000000FF0006080000000000000000002D
:1006C00000000000000000000000003C42784442AE
:1006D00042FC0000000000030202021A26424242CD
:1006E000261A000000000000000000384402020248
:1006F00044380000000000604040407844424242DC
:1007000064D80000000000000000003C427E0202AD
:10071000423C0000000000F08808087E0808080835
:10072000083E0000000000000000007C22221C02A5
:100730003C42423C000000030202023A464242426E
:1007400042E700000000000C0C00000E080808083A
:10075000083E00000000003030000038202020203B
:100760002020221E0000000302020272120A16124A
:10077000227700000000000E080808080808080892
:10078000083E0000000000000000007F929292925C
:1007900092B70000000000000000003B46424242C9
:1007A00042E70000000000000000003C42424242DC
:1007B000423C0000000000000000001B26424242B4
:1007C000221E02070000000000000078444242425E
:1007D000447840E000000000000000774C0404046E
:1007E000041F0000000000000000007C42023C40AA
:1007F000423E0000000000000008083E080808080B
:100800000830000000000000000000634242424245
:1008100062DC000000000000000000E74224241415
:100820000808000000000000000000EB4949555591
:100830002222000000000000000000762418181892
:10084000246E000000000000000000E74224241491
:1008500018080807000000000000007E22100808A9
:10086000447E000000C020202020201020202020D6
:100870002020C000101010101010101010101010B8
:1008800010101010000608080808081008080808CA
:100890000808060000000000000000000040AF4013
:1008A00018350008C0350008D8340008FE350008A7
:1008B000803500083E360008B8340008DE350008F0
:1008C000603500085E360008F83400081E3600085F
:1008D000A03500087E3600087634000898340008F9
:1008E0000100000004000000070000000E000000EE
:1008F00002000000050000000800000000000000E9
:100900000300000006000000090000000F000000C6
:100910000A0000000B0000000C0000000D000000A9
:1009200070380000C0370000C6370000C037000034
:1009300062380000C0370000C63700007038000081
:100940007038000062380000C6370000A63700008B
:10095000A6370000A6370000CA370000763C00002A
:10096000763C00008E3C0000703C0000703C0000B3
:100970001C3D00008E3C0000703C00001C3D00004F
:10098000703C00008E3C00006E3C00006E3C00009D
:100990006E3C00001C3D0000000102020303030343
:1009A00004040404040404040505050505050505FF
:1009B00005050505050505050606060606060606DF
:1009C00006060606060606060606060606060606C7
:1009D00006060606060606060707070707070707AF
:1009E0000707070707070707070707070707070797
:1009F0000707070707070707070707070707070787
:100A00000707070707070707070707070707070776
:100A1000070707070707070708080808080808085E
:100A20000808080808080808080808080808080846
:100A30000808080808080808080808080808080836
:100A40000808080808080808080808080808080826
:100A50000808080808080808080808080808080816
:100A60000808080808080808080808080808080806
:100A700008080808080808080808080808080808F6
:100A800008080808080808080808080808080808E6
:100A90000808080808080808B71700083571938780
:100AA000078E06CF22CD26CB4AC94EC752C556C3A4
:100AB0005AC1DEDEE2DCE6DAEAD8EED6181093861A
:100AC000070403A80700C8438C47D0472320070129
:100AD00048C30CC750C7C1074107E394D7FEFD5771
:100AE0001307A0022316E1003EC83ECA3ECC3ECE0C
:100AF00097300000E78060EF97300000E78000F358
:100B000097300000E780E0F997300000E78020018F
:100B1000014597100000E780A00E97100000E780C5
:100B2000C010014597300000E780E08C0545B749CB
:100B30000140416C97300000E780A0C0294B97002E
:100B40000000E780401401490144814A7D5A814BED
:100B50008144938909807D1C930C000A294D9710CC
:100B60000000E78000C295454E850504970000000F
:100B7000E780805855E197300000E78020EA65D192
:100B800097300000E78080EE97300000E78080F427
:100B900085049307803E638CF40A97300000E78059
:100BA00020FBAA8763400504850A93954A006304E5
:100BB000AA008145814A1397270094103697832D08
:100BC00007FC05453E8AEE9597300000E780E0F38C
:100BD0007C085808140830086C006E8597300000B7
:100BE000E780808793558440094597300000E7806F
:100BF000C0F1A2850D4597300000E78000F1971005
:100C00000000E78000B8014495454E850504970033
:100C10000000E780604E25D14E8597000000E780F8
:100C2000A04B1376F50F62874A8581462909DA853C
:100C300097300000E780A080E31F99F36302AB03C5
:100C4000F947E31AFBF2130B200301492DB7DE85A8
:100C50000145850B97300000E78020EB814435BFCC
:100C6000794B014909BF97F7FFF79387A73989CBDC
:100C700017450000130505CB174300006700C3C6E6
:100C80008280F3670430828093F7050193F8F500C2
:100C900099C3B3E8C8008147854E3D4E930F80024B
:100CA000930280042143139627003397FE003318E4
:100CB000CE00758F1348F8FF3396C80001CF032F7D
:100CC00005003378E80133660601638FF505638913
:100CD000550410C18507E39867FC854E3D4E930F80
:100CE0008002930280044143139727000117339633
:100CF000FE003318EE00758E1348F8FF3397E800B6
:100D000001CE032F45003378E80133670701638F75
:100D1000F5016389550058C18507E39767FC828018
:100D200018C945BF10C9C5BF58C965B750C9E5B78F
:100D30000CC982804CC98280B717024013576500E6
:100D40003E9714438547B397A700D58F1CC3828075
:100D5000B7170240135765003E9714438547B39772
:100D6000A700D58F1CC38280B717024013576500B8
:100D70003E9714438547B397A70093C7F7FFF58FB6
:100D80001CC38280B7070304370708090111938742
:100D90001720130767703ECC3EC23EC602C802CA87
:100DA0003ACE02C002C4B7160240D842B7177A0042
:100DB000094609830D8B93870720630DC7043717F6
:100DC000024050435443584311820C103D8A2E96E2
:100DD000034606FFA1822D839D8A1D8B2E97AE961A
:100DE000054833D6C70083C506FE034787FE630167
:100DF000050B11CD8946B357B600630AD5007515AA
:100E000013351500B357E6003305A040E98F3E8542
:100E100005618280D8421316F700635F0606D85634
:100E20001316F70063580602D856DC56454693560B
:100E30004700A183BD8BBD8A1387270085066313F6
:100E4000C7005147B7177A0093870720B3D7D70257
:100E5000B387E702371702405857B71602403D8B59
:100E60000507B3D7E702D842D44249831396260038
:100E70003D8B63410604BD466300D7040907631E2A
:100E8000D702139717003E9706078583BA9705BFC9
:100E9000B2873E8505618280B7160240D842D442AF
:100EA000B7173D00498313962600938707903D8B23
:100EB000E35306FC136707010507B307F70201B701
:100EC00023200500232205002324050023260500F6
:100ED000232A0500232C05008280D4419C4198459B
:100EE00083A8C50003A80501D58FD98FD449B3E7DE
:100EF00017011841904DB3E70701D58F8D66938692
:100F00000604758FD18FD98F1CC15C4D7D77130777
:100F1000F77FF98F5CCD82801C4193E707041CC1E9
:100F200082804CC582801C410967D98F1CC10CC9C5
:100F3000828008456D8D3335A00082804111B757FE
:100F4000004006C6138707C06302E5066378A70260
:100F5000630CF506B7470140938707806314F508D3
:100F60001305E03097000000E780C0DEB2401305B3
:100F7000E030410117030000670043DF37470040BE
:100F8000130707406303E50693870780631CF50496
:100F90001305204197000000E780C0DBB240130535
:100FA0002041410117030000670043DC1305304175
:100FB00097000000E78000DAB2401305304141019C
:100FC00017030000670083DA130540419700000013
:100FD000E78040D8B24013054041410117030000AB
:100FE0006700C3D8B24041018280130510419700C9
:100FF0000000E78020D6B2401305104141011703DD
:1010000000006700A3D641113757004022C426C212
:1010100006C6930707C02A84AE84630AF50463FDFD
:10102000A7026306E504374701401307078001451F
:101030006317E4000D4597000000E780E0D493D7E4
:101040001400AA97B3D79702B2409244C207C18353
:101050001CC4224441018280B7460040938606406A
:101060006307D500130707800145E31AE4FC09452F
:1010700097000000E78040D1D9B75C4593F7F79F10
:101080005CC55C45DD8D4CC582805C457D777D17F8
:10109000F98F5CC55C45DD8D4CC582801C49757738
:1010A0007D17F98F1CC91C49DD8D0CC982805C45F8
:1010B0000967D98F5CC582805C45DD9BDD8D4CC5A1
:1010C00082805C45ED9BDD8D4CC5828093F5F51FDC
:1010D0004CC1828048411375F51F82805C4993F7AB
:1010E000F7EFDD8D4CC982805C4993F7F7DFDD8D2A
:1010F0004CC9828093D7650093F7F73F3E9508412E
:101100003355B5000589828013D765001377F73F03
:101110003A9518418547B397B70093C7F7FFF98F02
:101120001CC18280B71702409843B706FFE0B106A2
:101130001367170098C3D8433706F7EA7D16758FF3
:10114000D8C39843B706F7FEFD16758F98C398432A
:10115000B706FCFFFD16758F98C3D843B70601DFAD
:10116000FD16758FD8C323A6070294433707FF00E7
:10117000C165F18E94C398C798439386F5FF3716DF
:1011800002404D8F98C311A099C61C42FD161397BB
:10119000E700E35B07FEB717024098439316E700AA
:1011A00063D0060AD8433706C4DF7D16D8C3D843B8
:1011B000B7160240D8C3D84313670740D8C3D843F3
:1011C000718FD8C3D84337062920518FD8C3D85739
:1011D0003D76718FD8D7D8574166130616F1518FD7
:1011E000D8D7984337060004518F98C39C42139771
:1011F0004700E35D07FE9C423706001037170240A8
:10120000D18F9CC21C4393962700E3DD06FE144356
:1012100037060001B7170240D18E14C398439316C6
:101220006700E3DD06FED843B7160240719BD8C3C2
:10123000D84313672700D8C3DC42A18BF5DF828037
:1012400001A0B70700089387072803AF070083AE04
:10125000470003AE870003A3C70083A8070103A8C4
:101260004701944F03D7C70183C7E70179717946D6
:1012700022D48A852A84094506D67AC076C272C4E9
:101280001AC646C842CA36CC231EE100230FF1001D
:1012900097300000E7804073A28509459700000061
:1012A000E780C00AB705000805469385052B094568
:1012B00097300000E780407101A0411122C43744FB
:1012C000014026C29375F50FAA841305048006C653
:1012D0001304048097000000E78080DF9D4522858D
:1012E00097000000E78040E175D9B240224426858E
:1012F00092444101828001114EC606CE22CC26CAFC
:101300004AC8B28915C22E843389C500A944034551
:101310000400050497000000E78060FA8347F4FFAB
:10132000638C9700E31524FFF24062444E85D2445B
:101330004249B24905618280354597000000E78047
:1013400000F8E31624FDCDB7797156CAAE8AB70509
:10135000000809469385052A22D426D24AD04ECECB
:1013600052CC06D62A8A714497300000E780C065C7
:10137000BD492549F15405A093F7F60F71140546B0
:101380009305F1005285A307F10097300000E78034
:10139000A063630F9402B3978900B3F75701B3D7E3
:1013A000870093F7F70F9386070313877703E37597
:1013B000F9FC9377F70F711405469305F1005285F8
:1013C000A307F10097300000E7800060E31594FC6C
:1013D000B250225492540259F249624AD24A4561AB
:1013E0008280B70700D1D8438843CC43E39DE5FE14
:1013F0008280370700D2230007001205B71700D2FA
:10140000A30507003E9563F7A70023A00700C107C7
:10141000E3EDA7FE8280B71700D285070A053E9547
:1014200085472300F5008280B70700D203C7070075
:10143000914705833D8BBA8663F3E7009146B71762
:1014400000D28D070A053E958347050013F6F60F77
:101450002147B397D70093F7F70F118FB3D7D74032
:10146000B395E500CD8F93F7F70F2300F500828049
:10147000B70700D203C7070005839377C70085EF3E
:10148000B71600D20A058D06AA9683C70600214624
:101490003D8B3307E640B3D7E7401395450093F7FC
:1014A000F70F1375F50FB397E700C98F93F7F70F91
:1014B0002380F600828001458280F327503093F725
:1014C00007FC93E73700739057308280B71700D23C
:1014D00089070A053E958347050093E71700230017
:1014E000F5008280B7050008411115469385452A0D
:1014F000054506C697300000E780004D054597007A
:101500000000E78040D441119347F5FF22C406C68E
:10151000139747012A8405C3B7050008154693852C
:10152000C52A054597300000E780004A22859700CC
:101530000000E78040D197000000E780E0FAE9BFB3
:10154000411106C697000000E78000BE1305700534
:1015500097000000E78020EA97000000E78020F66F
:10156000B240410117F3FFFF670023CE8280B70727
:101570000020938747459843011122CC26CA4AC8C8
:101580004EC606CE2A842E89B284B68925C322850A
:1015900097000000E780C0F3228597000000E780F5
:1015A000C0E79375F90F228597000000E78000E8F7
:1015B00093F5F40F228597000000E780A0EB9D478C
:1015C0006301F402930780036316F400B707002059
:1015D00023AE3745F2406244D2444249B2490561E4
:1015E0008280B707002023AC3745CDB7370700D23C
:1015F00058434E074D833A8598C397000000E78013
:1016000080DF97000000E78080EB51B739713ECC56
:10161000B707002083A7874506DE16DC1ADA1ED836
:101620002AD62ED432D236D03ACE42CA46C872C654
:1016300076C47AC27EC08297F250E2525253C253AD
:101640003255A255125682567247E2475248C24856
:10165000324EA24E124F824F2161730020303971F9
:101660003ECCB707002083A7C74506DE16DC1ADA92
:101670001ED82AD62ED432D236D03ACE42CA46C846
:1016800072C676C47AC27EC08297F250E25252533A
:10169000C2533255A255125682567247E2475248FB
:1016A000C248324EA24E124F824F21617300203049
:1016B00079714AD04ECE5EC606D622D426D252CCFE
:1016C00056CA5AC862C466C2AA8B97000000E78057
:1016D00080D12A89AE8997000000E780C0D02A8493
:1016E000AE846314A900E388B9FEB717000803A904
:1016F000878983A9C789370B002097000000E780FE
:1017000080CEAA87018DB3B7A700858D9D8D9730B8
:101710000000E78000FE2A8A03258B44AE8A9730BA
:101720000000E780A0F74A86CE8697200000E78079
:1017300080532A8C5E85AE8C97300000E78000F6DF
:101740002A86AE866285E68597300000E78040B045
:101750002A86AE865285D68597300000E78000A5A0
:10176000E34D05F8B250225492540259F249624AAC
:10177000D24A424BB24B224C924C4561828041117D
:1017800022C43704002013044446B7070020184041
:1017900083A7874606C626C26309F7083745004077
:1017A00089451305058097F0FFFFE780C07811E5B4
:1017B000B24022449244410182808965371501403C
:1017C00097F0FFFFE78040571C40B7040020938448
:1017D00044478A07A69798439307F00FA1653715EA
:1017E000014063CFE70497F0FFFFE780E0541C401F
:1017F000374500401305058013972700BA9483C529
:10180000040085071CC097F0FFFFE780C0711C40F3
:10181000B240924413D7F7416183BA9793F7F70F19
:10182000998F1CC02244410182802244B2409244DC
:10183000896537150140410117F3FFFF6700834FAA
:1018400097F0FFFFE780004F5DB7011122CC37040E
:10185000002013048446104026CAB7040020130752
:1018600016009357F741E183938444463E978C409A
:101870001377F70F4EC652C406CE135A85404AC896
:10188000B307F740AA89130A0A106395B7029700B5
:101890000000E78000EF10408C40130716009357BC
:1018A000F74193D68701B307D70093F7F70F958FCA
:1018B000E38FB7FC9386170013D7F64113558701C2
:1018C00037090020130949470A063387A6004A96BC
:1018D0001377F70F93F9F90F232046011CC0098FE6
:1018E000938909106393E50297000000E78060E99F
:1018F0001C409040138717009356F741E1823697BA
:101900001377F70F158FE301C7FE18C0F24062444A
:101910008A07CA9723A03701D2444249B249224AD2
:1019200005618280797122D4370400201304844633
:101930000328040056CAB70A00201307180093575B
:10194000F74193D88701938A4A46B307170103A743
:101950000A0093F7F70F4AD04ECE5AC85EC606D695
:1019600026D252CCB3871741AA8BAE89328B3689E7
:101970006395E70297000000E780A0E003280400D9
:1019800083A60A009307180013D7F7416183BA971B
:1019900093F7F70F998FE38FD7FC370A0020130ACC
:1019A0000A4603452A00B7040020938444470A08E6
:1019B0001307A00226985E952320E8001CC097001C
:1019C0000000E780C0E803452A005A959700000010
:1019D000E780E0E7144083A50A00138716009357B9
:1019E000F74113D68701B307C70093F7F70F918F1D
:1019F0006394B70297000000E780A0D8144003A6C4
:101A00000A009387160013D7F7416183BA9793F7BB
:101A1000F70F998FE380C7FE03453A008A06A69622
:101A20001307B0024E9598C21CC097000000E780D3
:101A300000E203453A004A9597000000E78020E164
:101A4000144083A50A00138716009357F74113D655
:101A50008701B307C70093F7F70F918F6394B7021D
:101A600097000000E780E0D1144003A60A009387A6
:101A7000160013D7F7416183BA9793F7F70F998F41
:101A8000E380C7FE1CC0B25022548A06A6961307F4
:101A9000C00298C292540259F249624AD24A424B59
:101AA000B24B45618280797156CAB28A811A26D2B8
:101AB00013067500B68493FAFA0F9386F5004AD0A0
:101AC0005AC85EC606D622D44ECE52CC62C4AA8B69
:101AD0002E8B3A89920A97000000E780E0E4A1EC9F
:101AE000B70900089389492B93870901371A002009
:101AF000D699BE9A83C40900214493F714004A85FD
:101B000099E303254AC77D141374F40F970000006E
:101B1000E780E0D3858075F08509E39D3AFDB250FA
:101B2000225492540259F249624AD24A424BB24B71
:101B3000224C45618280DA89370C0008410B130C76
:101B40004C2BB38A3A41138A8B00B3873A01E29750
:101B500083C407005E8429A00504858063068A0289
:101B600093F71400F5DB22862285CE86CE8597007A
:101B70000000E78060DB4A85050497000000E780ED
:101B800000CD8580E31E8AFC8509E39069FD41BF95
:101B9000797189653715014006D622D497F0FFFF89
:101BA000E7804019480097F0FFFFE780A0319307D6
:101BB00040103EC28D47374400403ECC9307002082
:101BC0004C00130504803EC8A1473ECE02C402C6A5
:101BD00002CA97F0FFFFE7808030130504809D451F
:101BE00097F0FFFFE78060341305048097F0FFFF54
:101BF000E780C032B25022544561828009E9B707BC
:101C0000011A3707002085072320F7468280854781
:101C1000631AF500B70700183707002093871710DD
:101C20002320F746828001114EC6B7090020938910
:101C3000094683C7090006CE22CC26CA4AC891E7C6
:101C4000B707011A850723A0F9001305306097F044
:101C5000FFFFE780A00E1305406097F0FFFFE780CD
:101C6000E00D1305006097F0FFFFE780200D1305DE
:101C7000E07097F0FFFFE780600C37150140B96610
:101C80000D46E145130505C097F0FFFFE780000012
:101C9000A9660D46C1453715014097F0FFFFE78063
:101CA000E0FE97000000E780E0EEA96537150140EF
:101CB000B70400203704002097F0FFFFE780C0073B
:101CC000938444461304844698401C40630AF700FA
:101CD00097000000E780E0AA98401C40E31AF7FE56
:101CE0001305400697000000E780C09C14408C401C
:101CF000138716009357F74113D68701B307C70020
:101D000093F7F70F918F6393B70297000000E78076
:101D100040A7144090409387160013D7F741618382
:101D2000BA9793F7F70F998FE381C7FE3707002023
:101D3000130947478A06CA96054798C21CC09700F0
:101D40000000E78000A498401C40E31AF7FE13054A
:101D5000800797000000E780E09514408C401387CF
:101D600016009357F74113D68701B307C70093F7BF
:101D7000F70F918F6393B70297000000E78060A090
:101D8000144090409387160013D7F7416183BA97A8
:101D900093F7F70F998FE381C7FE8A06CA964547E6
:101DA00098C21CC097000000E780A09D98401C408E
:101DB000E31AF7FE1305400697000000E780808FC6
:101DC00083C7190099E76F10605D97000000E780F6
:101DD000409B0C409C40138715009356F74113D647
:101DE0008601B306C70093F6F60F918EE38FF6FCDB
:101DF0008A05CA951307200298C1138716009355C8
:101E0000F74113D68501B305C70093F5F50F14C04C
:101E1000918D6394F5006F10205B138715001356A6
:101E2000F741135586013306A7008A06CA96137632
:101E3000F60F1307100B98C20CC0098E6395C702EA
:101E400097000000E780E0930C409C40138715004A
:101E50001356F741935686013306D7001376F60FD3
:101E6000158EE30FF6FC130716009356F74113D5B2
:101E70008601B306A7008A05CA9593F6F60F1307E5
:101E8000501098C110C0898E6395D702970000004A
:101E9000E780208F10409C40130716009356F741AF
:101EA00093D58601B306B70093F6F60F8D8EE38FB8
:101EB000F6FC138716009355F74113D58501B3053A
:101EC000A7000A064A9693F5F50F1307A01318C248
:101ED00014C0898D6395B70297000000E780608A7F
:101EE00014409C40138716009355F74113D6850183
:101EF000B305C70093F5F50F918DE38FF5FC1387BC
:101F000015001356F741135586013306A7008A06BC
:101F1000CA961376F60F1307A01398C20CC0098E49
:101F20006395C70297000000E780A0850C409C40A5
:101F3000138715001356F741935686013306D700D1
:101F40001376F60F158EE30FF6FC13071600935663
:101F5000F74113D58601B306A7008A05CA9593F603
:101F6000F60F1307200B98C110C0898E6395D70216
:101F700097000000E780E08010409C4013071600A7
:101F80009356F74193D58601B306B70093F6F60F43
:101F90008D8EE38FF6FC138716009355F74113D50A
:101FA0008501B305A7000A064A9693F5F50F1307B6
:101FB000501018C214C0898D6395B70297F0FFFFC7
:101FC000E780207C14409C40138716009355F7410E
:101FD00013D68501B305C70093F5F50F918DE38FF7
:101FE000F5FC138715001356F74113558601330688
:101FF000A7008A06CA961376F60F1307A01398C295
:102000000CC0098E6395C70297F0FFFFE7806077E9
:102010000C409C40138715001356F74193568601D8
:102020003306D7001376F60F158EE30FF6FC130771
:1020300016009356F74113D58601B306A7008A050B
:10204000CA9593F6F60F1307A01398C110C0898E96
:102050006395D70297F0FFFFE780A07210409C4085
:10206000130716009356F74193D58601B306B700C0
:1020700093F6F60F8D8EE38FF6FC138716009355BB
:10208000F74113D58501B305A7000A064A9693F5D3
:10209000F50F1307300B18C214C0898D6395B70272
:1020A00097F0FFFFE780E06D14409C401387160017
:1020B0009355F74113D68501B305C70093F5F50F86
:1020C000918DE38FF5FC138715001356F7411355D7
:1020D00086013306A7008A06CA961376F60F130701
:1020E000501098C20CC0098E6395C70297F0FFFF8D
:1020F000E78020690C409C40138715001356F74178
:10210000935686013306D7001376F60F158EE30F2C
:10211000F6FC130716009356F74113D58601B30654
:10212000A7008A05CA9593F6F60F1307A01398C166
:1021300010C0898E6395D70297F0FFFFE780606437
:1021400010409C40130716009356F74193D5860123
:10215000B306B70093F6F60F8D8EE38FF6FC138768
:1021600016009355F74113D58501B305A7000A065C
:102170004A9693F5F50F1307A01318C214C0898D62
:102180006395B70297F0FFFFE780A05F14409C4083
:10219000138716009355F74113D68501B305C70081
:1021A00093F5F50F918DE38FF5FC1387150013560A
:1021B000F741135586013306A7008A06CA9613769F
:1021C000F60F1307501098C20CC0098E6395C70212
:1021D00097F0FFFFE780E05A0C409C401387150002
:1021E0001356F741935686013306D7001376F60F40
:1021F000158EE30FF6FC130716009356F74113D51F
:102200008601B306A7008A05CA9593F6F60F130751
:10221000A01398C110C0898E6395D70297F0FFFF75
:10222000E780205610409C40130716009356F74154
:1022300093D58601B306B70093F6F60F8D8EE38F24
:10224000F6FC138716009355F74113D58501B305A6
:10225000A7000A064A9693F5F50F1307A01318C2B4
:1022600014C0898D6395B70297F0FFFFE780605136
:1022700014409C40138716009355F74113D68501EF
:10228000B305C70093F5F50F918DE38FF5FC138728
:1022900015001356F741135586013306A7008A0629
:1022A000CA961376F60F1307400B98C20CC0098E1E
:1022B0006395C70297F0FFFFE780A04C0C409C405D
:1022C000138715001356F741935686013306D7003E
:1022D0001376F60F158EE30FF6FC130716009356D0
:1022E000F74113D58601B306A7008A05CA9593F670
:1022F000F60F1307301098C110C0898E6395D7026E
:1023000097F0FFFFE780E04710409C40130716005E
:102310009356F74193D58601B306B70093F6F60FAF
:102320008D8EE38FF6FC138716009355F74113D576
:102330008501B305A7000A064A9693F5F50F130722
:10234000000C18C214C0898D6395B70297F0FFFF87
:10235000E780204314409C40138716009355F741B3
:1023600013D68501B305C70093F5F50F918DE38F63
:10237000F5FC138715001356F741135586013306F4
:10238000A7008A06CA961376F60F1307201698C27E
:102390000CC0098E6395C70297F0FFFFE780603E8F
:1023A0000C409C40138715001356F7419356860145
:1023B0003306D7001376F60F158EE30FF6FC1307DE
:1023C00016009356F74113D58601B306A7008A0578
:1023D000CA9593F6F60F1307201098C110C0898E86
:1023E0006395D70297F0FFFFE780A03910409C402B
:1023F000130716009356F74193D58601B306B7002D
:1024000093F6F60F8D8EE38FF6FC13871600935527
:10241000F74113D58501B305A7000A064A9693F53F
:10242000F50F1307401018C214C0898D6395B702C9
:1024300097F0FFFFE780E03414409C4013871600BC
:102440009355F74113D68501B305C70093F5F50FF2
:10245000918DE38FF5FC138715001356F741135543
:1024600086013306A7008A06CA961376F60F13076D
:10247000100C98C20CC0098E6395C70297F0FFFF3D
:10248000E78020300C409C40138715001356F7411D
:10249000935686013306D7001376F60F158EE30F99
:1024A000F6FC130716009356F74113D58601B306C1
:1024B000A7008A05CA9593F6F60F1307001C98C16A
:1024C00010C0898E6395D70297F0FFFFE780602BDD
:1024D00010409C40130716009356F74193D5860190
:1024E000B306B70093F6F60F8D8EE38FF6FC1387D5
:1024F00016009355F74113D58501B305A7000A06C9
:102500004A9693F5F50F1307200C18C214C0898D55
:102510006395F50297F0FFFFE780A02614409C40EA
:10252000138716009355F74113D68501B305C700ED
:1025300093F5F50F918DE38FF5FC13871500135676
:10254000F741135586013306A7008A06CA9613760B
:10255000F60F1307D01098C20CC0098E6395C702FE
:1025600097F0FFFFE780E0210C409C4013871500A7
:102570001356F741935686013306D7001376F60FAC
:10258000158EE30FF6FC130716009356F74113D58B
:102590008601B306A7008A05CA9593F6F60F1307BE
:1025A000001098C110C0898E6395F60297F0FFFF66
:1025B000E780201D10409C40130716009356F741FA
:1025C00093D58601B306B70093F6F60F8D8EE38F91
:1025D000F6FC138716009355F74113D58501B30513
:1025E000A7000A064A9693F5F50F1307300C18C298
:1025F00014C0898D6395B70297F0FFFFE7806018DC
:1026000014409C40138716009355F74113D685015B
:10261000B305C70093F5F50F918DE38FF5FC138794
:1026200015001356F741135586013306A7008A0695
:10263000CA961376F60F1307D01898C20CC0098EED
:102640006315F60297F0FFFFE780A0130C409C4053
:10265000138715001356F741935686013306D700AA
:102660001376F60F158EE30FF6FC1307160093563C
:10267000F74113D58601B306A7008A05CA9593F6DC
:10268000F60F1307A01698C110C0898E6395D70264
:1026900097F0FFFFE780E00E10409C401307160004
:1026A0009356F74193D58601B306B70093F6F60F1C
:1026B0008D8EE38FF6FC138716009355F74113D5E3
:1026C0008501B305A7000A064A9693F5F50F13078F
:1026D000400C18C214C0898D6395F50297F0FFFF76
:1026E000E780200A14409C40138716009355F74159
:1026F00013D68501B305C70093F5F50F918DE38FD0
:10270000F5FC138715001356F74113558601330660
:10271000A7008A06CA961376F60F1307D01898C238
:102720000CC0098E6395C70297F0FFFFE780600534
:102730000C409C40138715001356F74193568601B1
:102740003306D7001376F60F158EE30FF6FC13074A
:1027500016009356F74113D58601B306A7008A05E4
:10276000CA9593F6F60F1307E01E98C110C0898E24
:102770006395F60297F0FFFFE780A00010409C40B1
:10278000130716009356F74193D58601B306B70099
:1027900093F6F60F8D8EE38FF6FC13871600935594
:1027A000F74113D58501B305A7000A064A9693F5AC
:1027B000F50F1307500C18C214C0898D6395B7022A
:1027C00097F0FFFFE780E0FB14409C401387160062
:1027D0009355F74113D68501B305C70093F5F50F5F
:1027E000918DE38FF5FC138715001356F7411355B0
:1027F00086013306A7008A06CA961376F60F1307DA
:10280000E01098C20CC0098E6315F60297F0FFFF26
:10281000E78020F70C409C40138715001356F741C2
:10282000935686013306D7001376F60F158EE30F05
:10283000F6FC130716009356F74113D58601B3062D
:10284000A7008A05CA9593F6F60F1307000E98C1E4
:1028500010C0898E6395D70297F0FFFFE78060F282
:1028600010409C40130716009356F74193D58601FC
:10287000B306B70093F6F60F8D8EE38FF6FC138741
:1028800016009355F74113D58501B305A7000A0635
:102890004A9693F5F50F1307001118C214C0898DDD
:1028A0006395F50297F0FFFFE780A0ED14409C4090
:1028B000138716009355F74113D68501B305C7005A
:1028C00093F5F50F918DE38FF5FC138715001356E3
:1028D000F741135586013306A7008A06CA96137678
:1028E000F60F1307E01098C20CC0098E6395C7025B
:1028F00097F0FFFFE780E0E80C409C40138715004D
:102900001356F741935686013306D7001376F60F18
:10291000158EE30FF6FC130716009356F74113D5F7
:102920008601B306A7008A05CA9593F6F60F13072A
:10293000201098C110C0898E6395F60297F0FFFFB2
:10294000E78020E410409C40130716009356F7419F
:1029500093D58601B306B70093F6F60F8D8EE38FFD
:10296000F6FC138716009355F74113D58501B3057F
:10297000A7000A064A9693F5F50F1307301018C200
:1029800014C0898D6395B70297F0FFFFE78060DF81
:1029900014409C40138716009355F74113D68501C8
:1029A000B305C70093F5F50F918DE38FF5FC138701
:1029B00015001356F741135586013306A7008A0602
:1029C000CA961376F60F1307E01098C20CC0098E52
:1029D0006315F60297F0FFFFE780A0DA0C409C40F9
:1029E000138715001356F741935686013306D70017
:1029F0001376F60F158EE30FF6FC130716009356A9
:102A0000F74113D58601B306A7008A05CA9593F648
:102A1000F60F1307701098C110C0898E6395D70206
:102A200097F0FFFFE780E0D510409C4013071600A9
:102A30009356F74193D58601B306B70093F6F60F88
:102A40008D8EE38FF6FC138716009355F74113D54F
:102A50008501B305A7000A064A9693F5F50F1307FB
:102A6000201018C214C0898D6395F50297F0FFFFFE
:102A7000E78020D114409C40138716009355F741FE
:102A800013D68501B305C70093F5F50F918DE38F3C
:102A9000F5FC138715001356F741135586013306CD
:102AA000A7008A06CA961376F60F1307701098C20D
:102AB0000CC0098E6315F60297F0FFFFE78060CC2B
:102AC0000C409C40138715001356F741935686011E
:102AD0003306D7001376F60F158EE30FF6FC1307B7
:102AE00016009356F74113D58601B306A7008A0551
:102AF000CA9593F6F60F1307A01098C110C0898EDF
:102B00006395F60297F0FFFFE780A0C710409C4056
:102B1000130716009356F74193D58601B306B70005
:102B200093F6F60F8D8EE38FF6FC13871600935500
:102B3000F74113D58501B305A7000A064A9693F518
:102B4000F50F1307201118C214C0898D6395F50283
:102B500097F0FFFFE780E0C214409C401387160007
:102B60009355F74113D68501B305C70093F5F50FCB
:102B7000918DE38FF5FC138715001356F74113551C
:102B800086013306A7008A06CA961376F60F130746
:102B9000701298C20CC0098E6315F60297F0FFFF01
:102BA000E78020BE0C409C40138715001356F74168
:102BB000935686013306D7001376F60F158EE30F72
:102BC000F6FC130716009356F74113D58601B3069A
:102BD000A7008A05CA9593F6F60F1307701398C1DC
:102BE00010C0898E6395F60297F0FFFFE78060B909
:102BF00010409C40130716009356F74193D5860169
:102C0000B306B70093F6F60F8D8EE38FF6FC1387AD
:102C100016009355F74113D58501B305A7000A06A1
:102C20004A9693F5F50F1307001018C214C0898D4A
:102C30006395F50297F0FFFFE780A0B414409C4035
:102C4000138716009355F74113D68501B305C700C6
:102C500093F5F50F918DE38FF5FC1387150013564F
:102C6000F741135586013306A7008A06CA961376E4
:102C7000F60F1307D01098C20CC0098E6315F60228
:102C800097F0FFFFE780E0AF0C409C4013871500F2
:102C90001356F741935686013306D7001376F60F85
:102CA000158EE30FF6FC130716009356F74113D564
:102CB0008601B306A7008A05CA9593F6F60F130797
:102CC000E01098C110C0898E6395F60297F0FFFF5F
:102CD000E78020AB10409C40130716009356F74145
:102CE00093D58601B306B70093F6F60F8D8EE38F6A
:102CF000F6FC138716009355F74113D58501B305EC
:102D0000A7000A064A9693F5F50F1307001118C29B
:102D100014C0898D6395F50297F0FFFFE78060A6E8
:102D200014409C40138716009355F74113D6850134
:102D3000B305C70093F5F50F918DE38FF5FC13876D
:102D400015001356F741135586013306A7008A066E
:102D5000CA961376F60F1307100E98C20CC0098E90
:102D60006315F60297F0FFFFE780A0A10C409C409E
:102D7000138715001356F741935686013306D70083
:102D80001376F60F158EE30FF6FC13071600935615
:102D9000F74113D58601B306A7008A05CA9593F6B5
:102DA000F60F1307001198C110C0898E6395F602C3
:102DB00097F0FFFFE780E09C10409C40130716004F
:102DC0009356F74193D58601B306B70093F6F60FF5
:102DD0008D8EE38FF6FC138716009355F74113D5BC
:102DE0008501B305A7000A064A9693F5F50F130768
:102DF000E01018C214C0898D6395F50297F0FFFFAB
:102E0000E780209814409C40138716009355F741A3
:102E100013D68501B305C70093F5F50F918DE38FA8
:102E2000F5FC138715001356F74113558601330639
:102E3000A7008A06CA961376F60F1307301098C2B9
:102E40000CC0098E6315F60297F0FFFFE7806093D0
:102E50000C409C40138715001356F741935686018A
:102E60003306D7001376F60F158EE30FF6FC130723
:102E700016009356F74113D58601B306A7008A05BD
:102E8000CA9593F6F60F1307301098C110C0898EBB
:102E90006395F60297F0FFFFE780A08E10409C40FC
:102EA000130716009356F74193D58601B306B70072
:102EB00093F6F60F8D8EE38FF6FC1387160093556D
:102EC000F74113D58501B305A7000A064A9693F585
:102ED000F50F1307F01018C214C0898D6395F50221
:102EE00097F0FFFFE780E08914409C4013871600AD
:102EF0009355F74113D68501B305C70093F5F50F38
:102F0000918DE38FF5FC138715001356F741135588
:102F100086013306A7008A06CA961376F60F1307B2
:102F2000601098C20CC0098E6315F60297F0FFFF7F
:102F3000E78020850C409C40138715001356F7410D
:102F4000935686013306D7001376F60F158EE30FDE
:102F5000F6FC130716009356F74113D58601B30606
:102F6000A7008A05CA9593F6F60F1307201098C19B
:102F700010C0898E6395F60297F0FFFFE7806080AE
:102F800010409C40130716009356F74193D58601D5
:102F9000B306B70093F6F60F8D8EE38FF6FC13871A
:102FA00016009355F74113D58501B305A7000A060E
:102FB0004A9693F5F50F1307801018C214C0898D37
:102FC0006395F50297E0FFFFE780A07B14409C40EB
:102FD000138716009355F74113D68501B305C70033
:102FE00093F5F50F918DE38FF5FC138715001356BC
:102FF000F741135586013306A7008A06CA96137651
:10300000F60F1307A01098C20CC0098E6315F602C4
:1030100097E0FFFFE780E0760C409C4013871500A7
:103020001356F741935686013306D7001376F60FF1
:10303000158EE30FF6FC130716009356F74113D5D0
:103040008601B306A7008A05CA9593F6F60F130703
:10305000301198C110C0898E6395F60297E0FFFF8A
:10306000E780207210409C40130716009356F741EA
:1030700093D58601B306B70093F6F60F8D8EE38FD6
:10308000F6FC138716009355F74113D58501B30558
:10309000A7000A064A9693F5F50F1307601218C2A7
:1030A00014C0898D6395F50297E0FFFFE780606D9E
:1030B00014409C40138716009355F74113D68501A1
:1030C000B305C70093F5F50F918DE38FF5FC1387DA
:1030D00015001356F741135586013306A7008A06DB
:1030E000CA961376F60F1307601398C20CC0098EA8
:1030F0006315F60297E0FFFFE780A0680C409C4054
:10310000138715001356F741935686013306D700EF
:103110001376F60F158EE30FF6FC13071600935681
:10312000F74113D58601B306A7008A05CA9593F621
:10313000F60F1307001098C110C0898E6395F60230
:1031400097E0FFFFE780E06310409C401307160004
:103150009356F74193D58601B306B70093F6F60F61
:103160008D8EE38FF6FC138716009355F74113D528
:103170008501B305A7000A064A9693F5F50F1307D4
:10318000D01018C214C0898D6395F50297E0FFFF37
:10319000E780205F14409C40138716009355F74149
:1031A00013D68501B305C70093F5F50F918DE38F15
:1031B000F5FC138715001356F741135586013306A6
:1031C000A7008A06CA961376F60F1307E01098C276
:1031D0000CC0098E6315F60297E0FFFFE780605A86
:1031E0000C409C40138715001356F74193568601F7
:1031F0003306D7001376F60F158EE30FF6FC130790
:1032000016009356F74113D58601B306A7008A0529
:10321000CA9593F6F60F1307001198C110C0898E56
:103220006395F60297E0FFFFE780A05510409C40B1
:10323000130716009356F74193D58601B306B700DE
:1032400093F6F60F8D8EE38FF6FC138716009355D9
:10325000F74113D58501B305A7000A064A9693F5F1
:10326000F50F1307A00318C214C0898D6395F502EA
:1032700097E0FFFFE780E05014409C401387160062
:103280009355F74113D68501B305C70093F5F50FA4
:10329000918DE38FF5FC138715001356F7411355F5
:1032A00086013306A7008A06CA961376F60F13071F
:1032B000501098C20CC0098E6315F60297E0FFFF0C
:1032C000E780204C0C409C40138715001356F741B3
:1032D000935686013306D7001376F60F158EE30F4B
:1032E000F6FC9306160013D7F64113558701338772
:1032F000A6008A05CA951377F70F9306600394C159
:1033000010C0098F6315F70297E0FFFFE780604761
:1033100010409C409306160013D7F6419355870141
:103320003387B6001377F70F0D8FE30FF7FC930584
:10333000170093D6F54113D58601B386A5000A067A
:103340004A9693F6F60F930580170CC218C0898E23
:103350006395F60297E0FFFFE780A04218408C409B
:103360009307170093D6F74113D68601B386C7009B
:1033700093F6F60F918EE38FB6FC14C0F2406244D0
:103380000A074A97930790021CC3D2444249B249A4
:103390000561828097E0FFFFE780A03E0C409C40E3
:1033A000138715009356F74113D68601B306C7005D
:1033B00093F6F60F918EE38FF6FC8A05CA951307F4
:1033C000100298C114C039A097E0FFFFE780603B6E
:1033D00014409C40138716009355F74113D685017E
:1033E000B305C70093F5F50F918DE38FF5FC6FE002
:1033F000DFA2411126C29306F004AA841306F00945
:10340000814501454AC006C622C41309000A97E057
:10341000FFFFE7806051130400057D14268597E0C7
:10342000FFFFE780C04275F87D19E31609FEB24040
:10343000224492440249410182809307800963E655
:10344000A7009307000463F3B700828017E3FFFF30
:103450006700A365BD4563E4A524011122CC328435
:10346000371600080A051306068A329526CAB6845E
:10347000144106CE82861440850614C091E694401D
:103480009386060E94C014400546638BC620F24016
:103490006244D244056182801440850614C091E6DE
:1034A00094409386060F94C014400546E391C6FEEF
:1034B0000C43BD050CC385A81440850614C091E6D5
:1034C00094409386060694C014400546E391C6FCDA
:1034D0000C4399050CC381A81440850614C091E6DD
:1034E00094409386060294C014400546E391C6FAC0
:1034F0000C4389050CC305A81440850614C091E649
:1035000094409386060A94C014400546E391C6F899
:103510000C43A9050CC301A814400546850614C038
:10352000E397C6F60C4390403AC63EC4B2958CC3AE
:103530001040E31ED6F43745014089051305058088
:1035400097E0FFFFE780C0B8A247FD5614C032479E
:1035500094C3F240624494C014C3D2440561828093
:103560001440850614C091E694409386060894C0E2
:1035700014400546E39DC6F00C43A1050CC365B796
:103580001440850614C091E694409386060494C0C6
:1035900014400546E39DC6EE0C4391050CC361B78C
:1035A0001440850614C091E694409386060C94C09E
:1035B00014400546E39DC6EC0C43B1050CC3A5B70A
:1035C0001440850614C089E69440C10694C0144096
:1035D0000546E39EC6EA0C4385050CC3A9B7144013
:1035E000850614C091E694409386060794C0144063
:1035F0000546E39EC6E80C439D050CC32DB7144059
:10360000850614C091E694409386060394C0144046
:103610000546E39EC6E60C438D050CC329B714404E
:10362000850614C091E694409386060B94C014401E
:103630000546E39EC6E40C43AD050CC3EDB514404E
:10364000850614C091E694409386060594C0144004
:103650000546E39EC6E20C4395050CC3E9B514404C
:10366000850614C091E694409386060994C01440E0
:103670000546E39EC6E00C43A5050CC36DB514409A
:10368000850614C091E694409386060D94C01440BC
:103690000546E39EC6DE0C43B5050CC369B58280C2
:1036A0000C43B9050CC341B5411122C437040020B5
:1036B0001304C446B7070020184083A7074706C66F
:1036C00026C26300F706B74401409D451385048078
:1036D00097E0FFFFE78040A211E5B2402244924408
:1036E000410182801840B7170020938747879316BF
:1036F0002700B6978C4305071385048018C097E010
:10370000FFFFE780E09C1C40B240924413D7F74192
:103710006183BA9793F7F70F998F1CC02244410138
:1037200082802244B2409244374501409305703074
:1037300013050580410117E3FFFF6700239D411139
:1037400026C2AA841305206006C622C497D0FFFFB4
:10375000E780C05E37140140130504809306002003
:103760000D46E14597D0FFFFE780405293060040A9
:103770000D4691451305048097D0FFFFE780005167
:103780001305E0603744014097D0FFFFE780005BFE
:103790001305048097D0FFFFE780807A89659385C1
:1037A00005581305048097E0FFFFE78000868145F8
:1037B0001305048097E0FFFFE780608C81451305C7
:1037C000048097E0FFFFE780808C89651305048003
:1037D00097E0FFFFE780C08C81451305048097E0E8
:1037E000FFFFE780E08F81451305048097E0FFFF2E
:1037F000E780C08F1305048097E0FFFFE780608BB0
:10380000A1451305048097E0FFFFE780208B9145D9
:103810001305048097E0FFFFE780E08A91E4B2405F
:1038200022449244410182802244B2409244B736FD
:1038300000089386866A05468D451305800341017D
:1038400017E3FFFF6700E3D2000000000000000064
:103850000000000000000000000000000000000068
:103860000000000000000000000000000000000058
:103870000000000000000000000000000000000048
:103880005D7106C012C216C41AC61EC82ACA2ECC42
:1038900032CE36D03AD23ED442D646D872DA76DC30
:1038A0007ADEFEC0F322103496C0F322003096C2B6
:1038B000F322407C96C4732520348A8597E0FFFF6D
:1038C000E780A0C48642739012349642739002300F
:1038D000A6427390427C82401242A2423243C243CB
:1038E0005245E245724682561257A2573258C25884
:1038F000525EE25E725F864F6161730020300000AD
:10390000000000005D7106C012C216C41AC61EC8AF
:103910002ACA2ECC32CE36D03AD23ED442D646D85F
:1039200072DA76DC7ADEFEC073D0E87E7350F97E00
:1039300073D0B97EF390D07E73700430B64273902A
:10394000427CA64273901234964273902234824095
:103950001242A2423243C2435245E2457246825667
:103960001257A2573258C258525EE25E725F864FBB
:10397000616173002030AA82B68E214363C46E0059
:103980009102E11E8A0E3D433313D3011343F3FF2B
:10399000AE83B3E3C300B393D30103AE0200337E1F
:1039A0006E00336E7E0023A0C20182802D8E4206FF
:1039B000D18D0CC982804CC982804CC582800C4557
:1039C0008280B712024003A3C2013363A30023AE77
:1039D00062008280B712024003A382013363A30016
:1039E00023AC62008280711106C04145970000003F
:1039F000E78060FDB71200401303600323A4620256
:103A00001303803E23A6620223A80200054323A0DD
:103A10006200824011018280B712004003A50201BA
:103A200019C123A802008280711106C021459700A8
:103A30000000E78060FA37150140130505C0814595
:103A40000D4681460D4797000000E78000F385068C
:103A5000E39BE6FE82401101828097C2FF179382AA
:103A6000625A038502008280711106C03715014039
:103A7000130505C097C2FF179382C25883850200C1
:103A8000FD1563D305009D452380B2001D469700B8
:103A90000000E780C0F22E85824011018280711102
:103AA00006C0214597000000E78000F3371501406C
:103AB000130505C081450D46A1464147970000000A
:103AC000E780A0EB8506E39BE6FE82401101828041
:103AD000711106C097C2FF179382025383A202009E
:103AE000AA9237150140130505C083C50200A2053F
:103AF00037060100130606F097000000E78040EB50
:103B000082401101828097C2FF179382E24F83A205
:103B10000200AA922380B2008280711106C0114572
:103B200097000000E78040EB371501401305058042
:103B3000814511469546254797000000E780E0E360
:103B40008506E39BE6FE824011018280711106C06A
:103B50007D5E97CEFF17938EFE4B03A30E0093035B
:103B6000F3FF23A07E006397030423A06E003715A4
:103B700001401305058097000000E78080E49581EF
:103B8000BD898DC985813335B0003303A00085819F
:103B90003335B0002A9385813335B0002A939700DE
:103BA0000000E780C0EB0A05336EA300130300207A
:103BB00023A06E00728582401101828097C2FF1798
:103BC0009382924503A302007D1323A062006350F9
:103BD00003021303F00823A0620097C2FF17938229
:103BE000A24203A302001343130023A062008280B9
:103BF00097000000E78060DF97000000E78000E3A7
:103C000097000000E780E0E997000000E78020F1DE
:103C1000010097000000E78060E07DD99700000078
:103C2000E780C0E497000000E780C0EA970000004A
:103C3000E78000F2E34E05FC97C2FF179382123E25
:103C400003A302009303F3FF63D303009D4323A068
:103C5000720097C2FF179382623B9A922380A20060
:103C600045BF797113D8450126D24ECE52CC5AC8E1
:103C70005EC69394C50006D622D44AD056CA13789D
:103C8000F87F2A8BB28B368AB18093D9F501630411
:103C900008089307F07F630EF80C935AD5018E0441
:103CA000B3E49A00B70A8000B3EA54011314350054
:103CB000130918C0014B13554A019314CA00137815
:103CC000F57FB180135AFA016308080C9307F07F5F
:103CD0006301F8121395340093D7DB015D8DB704AF
:103CE0008000C98C139F3B00130518C08147131730
:103CF0002B005D8F7D17B94633C649013308A940B3
:103D000063EBE61097D6FFFF9386C6C10A07369786
:103D1000184336970287B3EAA40063860A068DCC5F
:103D2000268597100000E78060B8930755FF71471C
:103D3000634BF702F54A130485FFB38AFA40B39444
:103D40008400B35A5B01B3EA9A0033148B00130862
:103D5000D0C03309A840B9BF97100000E78000B574
:103D600013050502D9B7930485FDB31A9B000144DE
:103D7000F9BFB3EAA400638C0A002A84A68A130957
:103D8000F07F0D4B0DBF01440149054B2DB7014498
:103D90001309F07F094B05B733EF740163040F0675
:103DA0009DC8268597100000E78040B0930755FF17
:103DB0007147634AF7027547130F85FF1D8FB39450
:103DC000E40133D7EB00D98C339FEB011306D0C04D
:103DD0003305A64021BF5E8597100000E78000AD47
:103DE00013050502E1B7930485FDB3949B00014FD1
:103DF000F1BF33EF7401630B0F005E8F1305F07F8B
:103E00008D47F5B5814401458547D5B581441305F6
:103E1000F07F8947E9BD63E6540163939A2A6361A1
:103E2000E42B9396FA01135714009317F40193DAD5
:103E30001A0033E4E6001395840093548F01458DF6
:103E4000135E0501B3D8CA0313130501135303010D
:103E50001357040193158F00B3F4CA03C68FB3063A
:103E60001303939A040133675701637CD7002A97A1
:103E7000938FF8FF6367A7006375D700938FE8FF00
:103E80002A97158FB35EC703420441803377C70377
:103E9000F686B308D3034207418F637C17012A9744
:103EA0009386FEFF6367A700637517019386EEFF95
:103EB0002A97C20FB3EFDF00C1663304174193881E
:103EC000F6FF13DF0F0133F71F0193DE0501B3F88F
:103ED0001501B3031703B3041F033387EE02B302C4
:103EE000DF03330F970013D703017A9763739700AB
:103EF000B692135F0701169FC162FD12B376570099
:103F0000C206B3F353009E966367E401FE84631E0A
:103F1000E40363FCD702AE9733B7B7002A973A940D
:103F20009384FFFF636685006311850263EFB7002A
:103F30006366E401631B8F0063F9D700AE9733B764
:103F4000B7002A979384EFFF3A94B386D74033049F
:103F5000E441B3B7D7001D8C7D5F6305850E335FE9
:103F6000C40313D706013374C403B307E303420445
:103F7000598C7A87637CF4002A941307FFFF6367E8
:103F8000A4006375F4001307EFFF2A941D8C335FC0
:103F9000C403C206C1823374C403FA873303E30344
:103FA0004204558C637C64002A949307FFFF636787
:103FB000A400637564009307EFFF2A9442075D8FA6
:103FC00093170701C1833304644013530701338EF1
:103FD0001703B308130333836E02B38EFE029357A5
:103FE0000E01C69EF69763F41701C166369393D807
:103FF00007019A9841637D13B3F66700C206337ECA
:104000006E00F29663661401631E14193A8F9DCAFE
:104010002A94130FF7FF6361A4026366140163120D
:10402000141963FDD50093971500B3B5B7002E950D
:10403000130FE7FF2A94BE85631414016384B6004E
:10404000136F1F001307F83F6357E00A93777F0051
:1040500081CF9377FF0091466388D70093064F0086
:1040600033BFE601FA94368F9397740063D8070044
:10407000B70700FFFD17FD8C130708409307E07F8B
:1040800063C8E710135F3F009397D401B3E7E701DC
:1040900013D5340032051377F77F5207B2502254FC
:1040A0003181598D7E063367C50092540259F24919
:1040B000624AD24A424BB24B3E85BA854561828004
:1040C0007D1881478DBB4E86D684228FDA870947BB
:1040D0006380E70C0D476386E70A0547E394E7F63C
:1040E0000145814785A85286DDB7B7040800014F16
:1040F00001468D47E9BF0545198D93078003E3C14C
:10410000A7FEFD4763CAA7041308E841B39704015B
:104110003357AF0033180F01D98F33380001B3E79D
:10412000070133D5A40013F7770001CF13F7F70089
:1041300091466308D70013874700B337F7003E95D1
:10414000BA8713178500634A07041317D5018D83B7
:10415000D98F0D8101473DBF8557998F9306000286
:10416000B3D7F40001476306D5001308E84333973B
:104170000401336FE701333FE001B3E7E701014595
:104180005DB73705080081471307F07F014619B76F
:10419000014581471307F07FF5BD0145814705477C
:1041A000D5BD7A873A8F69BD13D84501B70710008E
:1041B000FD1713D746011378F87F930EF07FB3F8FD
:1041C000B7002A83F58FFD81328E1377F77FFD824A
:1041D0006318D801B3EEA80063850E0689450DA8C3
:1041E0006316D701B3EEC700E39A0EFE631D080401
:1041F00033E5A8001335150019E35D8E15CE11E5E2
:10420000638AD50085C9FD5521A0FD5591C2B685AB
:104210002E858280E34807FF6354E800F5F9E5B78F
:10422000E3E217FF639CF800E36E6EFCE368C3FFF4
:104230008145F9BF8545E9BF65FDE9B7E3E0F8FED3
:10424000C5BFE30107FB4DFF014545BF79714ECE68
:1042500093D9450122D426D252CC56CA5AC8939437
:10426000C50006D64AD05EC693F9F97F2A84328B00
:10427000B68AB18013DAF501638109089307F07FEC
:104280006389F90C9357D5018E04DD8CB707800044
:10429000DD8C13193500938919C0814B13D54A0160
:1042A0001394CA001375F57F318093DAFA0161C562
:1042B0009307F07F630DF5109357DB010E045D8CBF
:1042C000B70780005D8C130515C093173B000147AD
:1042D00093962B00D98E4E95FD16B94533465A015B
:1042E0001308150063E6D51097C5FFFF9385456752
:1042F0008A06AE969442AE96828633E9A4006303A2
:1043000009069DC8268597000000E780205A1307FC
:1043100055FFF14763C9E702F547130985FF998FF8
:10432000B3942401B357F400DD8C331924019309AD
:10433000D0C0B389A94095B797000000E780005727
:1043400013050502E9B7930485FDB31494000149F0
:10435000F9BF33E9A400630B09002A899309F07FB0
:104360008D4B2DBF81448149854B0DBF81449309FD
:10437000F07F894B25B7B3676401B5C31DC822859B
:1043800097000000E7808052930655FFF14763CA0B
:10439000D7027547930785FF158F3314F400335701
:1043A000EB00598CB317FB001307D0C03305A740AF
:1043B00039BF5A8597000000E780404F130505027A
:1043C000E1B7130485FD33148B008147F1BFB36758
:1043D000640191CBDA871305F07F0D47D5BD014409
:1043E00001450547F5B501441305F07F0947CDB5F3
:1043F000416F930EFFFF1357090193D807013379DB
:10440000D901B3F7D701B3852803B3862703B30FC8
:10441000F7023383F50193D506019A95330E1703FE
:1044200063F3F5017A9E93D30501B3F5D501B3F695
:10443000D601135F0401B372D401C205B695B30E61
:104440005702B386220333092F033303D90113D94B
:1044500006011A993307E7036374D90141631A9778
:10446000935E0901C169BA9E1387F9FF3379E900A8
:10447000F98E13D404014209F98C369933879702D7
:10448000CA933303F402B3869802B3878802B388D1
:10449000660093560701C69663F36600CE9793D8DD
:1044A0000601C169B38FF8009387F9FFFD8E7D8FF8
:1044B000B3889202C206BA96B3075402B3049F02AD
:1044C00033038F02BE9413D40801A29463F3F40063
:1044D0004E93C167FD1733F7F400B3F8F8004207B5
:1044E0001E9E469733392E01769733042701369E58
:1044F000B336DE00B308F401338FD8003337D70169
:1045000033342401598CC180B3B8F801B336DF00CD
:104510002694B3E6D80036941A9493577F01260464
:104520005D8C93179E00CD8FB337F000135E7E0134
:1045300013179F00B3E7C701D98F1317740063588F
:10454000070A13D71700858BD98F1317F401D98F5A
:1045500005809306F83F635ED00813F7770001CF1C
:1045600013F7F70091456308B70013874700B33787
:10457000F7003E94BA871317740063580700370793
:1045800000FF7D17798C930608401307E07F634C8A
:10459000D70E13D737009317D401D98F0D8032046B
:1045A00013F7F67F52073180598C7E063367C400BB
:1045B000B250225492540259F249624AD24A424BB2
:1045C000B24B3E85BA854561828052862684CA8771
:1045D0005E8789466309D70A8D46630FD7088546EB
:1045E000E319D7F6014481479DA05686DDB72A8896
:1045F0008DB78545958D13078003E345B7FE7D474D
:104600006349B7041308E84133170401B3D6B70070
:10461000B3970701558FB337F000D98F3354B400E7
:1046200013F7770001CF13F7F70091466308D7001F
:1046300013874700B337F7003E94BA8713178400F7
:10464000634807041317D4018D83D98F0D808146E9
:10465000B9B70557158F130500023357E40081469B
:104660006386A5001308E843B3160401D58FB3375A
:10467000F000D98F01446DB73704080081479306D5
:10468000F07F014629BF014481479306F07F01BFB7
:1046900001448147854621B7411122C406C62A84B8
:1046A00021C597000000E78060201307E041A9477B
:1046B000098F63C6A702AD47898F5505B357F4002C
:1046C0003314A4002285B2402244B2071377F77F47
:1046D0005207B183B3E6E700B685410182805515E4
:1046E000B317A4000144F9BF81470147E1BF01119D
:1046F00006CE22CC26CA4AC84EC652C4B367B500FD
:10470000638607142A842E89AE84BDC52E85970042
:104710000000E780A019AA89130AE043330A3A414E
:104720009307304363C74707AD47228563D33703F9
:104730009307A00263C937059305B002938759FF19
:10474000B3853541B355B400B314F900CD8C33159E
:10475000F4009395C400F2406244137AFA7F520A3F
:10476000B181B3E745012A87D2444249B249224A7E
:104770003A85BE850561828097000000E7800013BE
:104780009309050251BF938559FDB314B400014547
:10479000C9B79307604363D947031386890322850A
:1047A000CA8597000000E780C00DC98D2146B3344B
:1047B000B0002285CA853306364197000000E780A5
:1047C000A00933E4A4002E89A147228563D43703CE
:1047D0009307700263C6370793058002938789FFAA
:1047E000B38535413319F900B355B40033E92501D8
:1047F0003315F400B70780FFFD17B375F900937701
:10480000750081CF9377F50011476388E700930720
:10481000450033B5A700AA953E859397850063DAD6
:104820000700B70780FFFD17130AF043FD8D330A19
:104830003A410D819397D5015D8D93D4350011BF19
:10484000138989FD3319240101456DB78144014560
:10485000014A01B701CE93070002918F6349F0002E
:10486000130506FE014733D5A500BA85828033D7EC
:10487000C5003355C500B395F5004D8DFDB701CE8C
:1048800093070002918F6349F000930506FE0147EC
:10489000B315B5003A8582803317C500B395C500BE
:1048A0003355F500C98DFDB7C1676376F5029307EF
:1048B000F00FB3B7A7008E07130700021D8FB35781
:1048C000F50017C5FFFF1305650DAA9703C507007F
:1048D0003305A740828037070001C147E36EE5FC3E
:1048E000E147D9BFAA85814601460145170300006B
:1048F000670043134111814522C406C62A849700EC
:104900000000E780401997C7FF179387A7B4884333
:104910005C5D91C38297228597D0FFFFE780A092CC
:10492000411122C497070000938747231704000012
:104930001304C4221D8C06C626C2098411C8931410
:104940002400F114BE949C407D14F114829765FC00
:10495000B2402244924441018280411122C44AC0A3
:10496000170400001304441F170900001309C91E8F
:104970003309894006C626C2135929406309090034
:1049800081441C40850411048297E31C99FE17049E
:1049900000001304641C170900001309291C3309C3
:1049A0008940135929406309090081441C4085044A
:1049B00011048297E31C99FEB240224492440249BA
:1049C0004101828097C7FF17938787A8B2862E86FA
:1049D000AA8588431703000067008300AE87411152
:1049E00022C4B2852A8436863E8506C697C7FF173D
:1049F00023A6072897D0FFFFE7802090FD57630686
:104A0000F500B24022444101828097C7FF17938787
:104A1000E7269C43FDD71CC0B2402244410182805E
:104A200097C7FF17938707A3984383278714A1C3CA
:104A3000D8437D48634DE804131827001DC1338314
:104A400007012324C30883A8871805463316E60008
:104A5000B3E8C80023A417192324D3108946630D93
:104A6000D5000507D8C3C2978CC70145828093073C
:104A7000C7142324F7146DBF83A6C7180507D8C32E
:104A8000558E23A6C718C2978CC7014582807D55D5
:104A90008280797197C7FF179387C79B62C403AC65
:104AA00007004ECE52CC56CA5AC806D622D426D2B9
:104AB0004AD05EC6AA8A2E8B054AFD5903298C145A
:104AC00063040902832449001384F4FF634E040045
:104AD0008A04CA9463060B0283A7441063826703A7
:104AE0007D14F114E31834FFB25022549254025949
:104AF000F249624AD24A424BB24B224C4561828013
:104B000083274900D440FD176380870423A2040053
:104B1000E1DA8327891833178A00832B4900F98F3C
:104B200099EB829683274900E39A77F983278C14BF
:104B3000E38827FB61B78327C91883A544087D8FC5
:104B400019E756858296F9BF23228900D1B72E85B1
:044B50008296C9BFC1
:044B5400660C0008E3
:104B58000700000008000020AA55AA55AA55AA5522
:104B6800AA000200008F00000007000000000000FB
:104B7800000000000C03002074030020DC03002068
:104B8800000000000000000000000000000000001D
:104B9800000000000000000000000000000000000D
:104BA80000000000000000000000000000000000FD
:104BB80000000000000000000000000000000000ED
:104BC80000000000000000000000000000000000DD
:104BD80000000000000000000000000000000000CD
:104BE80000000000000000000000000000000000BD
:104BF80000000000000000000000000000000000AD
:104C0800000000000000000000000000000000009C
:104C1800000000000000000001000000000000008B
:104C28000E33CDAB34126DE6ECDE05000B00000050
:104C3800000000000000000000000000000000006C
:104C4800000000000000000000000000000000005C
:104C5800000000000000000000000000000000004C
:104C6800000000000000000000000000000000003C
:104F9800000000000000000000F36F062000002061
:044FA80020000020C5
:040000050800015C92
:00000001FF
